{
  "address": "0x99BACb21c4E22776baB63707DDccb87243cb242c",
  "abi": [
    {
      "inputs": [
        {
          "internalType": "contract BFactory",
          "name": "_bFactory",
          "type": "address"
        },
        {
          "internalType": "uint256",
          "name": "_fee",
          "type": "uint256"
        }
      ],
      "stateMutability": "nonpayable",
      "type": "constructor"
    },
    {
      "anonymous": false,
      "inputs": [
        {
          "indexed": true,
          "internalType": "address",
          "name": "marketFactory",
          "type": "address"
        },
        {
          "indexed": true,
          "internalType": "uint256",
          "name": "marketId",
          "type": "uint256"
        },
        {
          "indexed": true,
          "internalType": "address",
          "name": "user",
          "type": "address"
        },
        {
          "indexed": false,
          "internalType": "address",
          "name": "recipient",
          "type": "address"
        },
        {
          "indexed": false,
          "internalType": "int256",
          "name": "collateral",
          "type": "int256"
        },
        {
          "indexed": false,
          "internalType": "int256",
          "name": "lpTokens",
          "type": "int256"
        },
        {
          "indexed": false,
          "internalType": "uint256[]",
          "name": "sharesReturned",
          "type": "uint256[]"
        }
      ],
      "name": "LiquidityChanged",
      "type": "event"
    },
    {
      "anonymous": false,
      "inputs": [
        {
          "indexed": false,
          "internalType": "address",
          "name": "pool",
          "type": "address"
        },
        {
          "indexed": true,
          "internalType": "address",
          "name": "marketFactory",
          "type": "address"
        },
        {
          "indexed": true,
          "internalType": "uint256",
          "name": "marketId",
          "type": "uint256"
        },
        {
          "indexed": true,
          "internalType": "address",
          "name": "creator",
          "type": "address"
        },
        {
          "indexed": false,
          "internalType": "address",
          "name": "lpTokenRecipient",
          "type": "address"
        }
      ],
      "name": "PoolCreated",
      "type": "event"
    },
    {
      "anonymous": false,
      "inputs": [
        {
          "indexed": true,
          "internalType": "address",
          "name": "marketFactory",
          "type": "address"
        },
        {
          "indexed": true,
          "internalType": "uint256",
          "name": "marketId",
          "type": "uint256"
        },
        {
          "indexed": true,
          "internalType": "address",
          "name": "user",
          "type": "address"
        },
        {
          "indexed": false,
          "internalType": "uint256",
          "name": "outcome",
          "type": "uint256"
        },
        {
          "indexed": false,
          "internalType": "int256",
          "name": "collateral",
          "type": "int256"
        },
        {
          "indexed": false,
          "internalType": "int256",
          "name": "shares",
          "type": "int256"
        },
        {
          "indexed": false,
          "internalType": "uint256",
          "name": "price",
          "type": "uint256"
        }
      ],
      "name": "SharesSwapped",
      "type": "event"
    },
    {
      "inputs": [],
      "name": "BONE",
      "outputs": [
        {
          "internalType": "uint256",
          "name": "",
          "type": "uint256"
        }
      ],
      "stateMutability": "view",
      "type": "function"
    },
    {
      "inputs": [],
      "name": "BPOW_PRECISION",
      "outputs": [
        {
          "internalType": "uint256",
          "name": "",
          "type": "uint256"
        }
      ],
      "stateMutability": "view",
      "type": "function"
    },
    {
      "inputs": [],
      "name": "EXIT_FEE",
      "outputs": [
        {
          "internalType": "uint256",
          "name": "",
          "type": "uint256"
        }
      ],
      "stateMutability": "view",
      "type": "function"
    },
    {
      "inputs": [],
      "name": "INIT_POOL_SUPPLY",
      "outputs": [
        {
          "internalType": "uint256",
          "name": "",
          "type": "uint256"
        }
      ],
      "stateMutability": "view",
      "type": "function"
    },
    {
      "inputs": [],
      "name": "MAX_BOUND_TOKENS",
      "outputs": [
        {
          "internalType": "uint256",
          "name": "",
          "type": "uint256"
        }
      ],
      "stateMutability": "view",
      "type": "function"
    },
    {
      "inputs": [],
      "name": "MAX_BPOW_BASE",
      "outputs": [
        {
          "internalType": "uint256",
          "name": "",
          "type": "uint256"
        }
      ],
      "stateMutability": "view",
      "type": "function"
    },
    {
      "inputs": [],
      "name": "MAX_FEE",
      "outputs": [
        {
          "internalType": "uint256",
          "name": "",
          "type": "uint256"
        }
      ],
      "stateMutability": "view",
      "type": "function"
    },
    {
      "inputs": [],
      "name": "MAX_IN_RATIO",
      "outputs": [
        {
          "internalType": "uint256",
          "name": "",
          "type": "uint256"
        }
      ],
      "stateMutability": "view",
      "type": "function"
    },
    {
      "inputs": [],
      "name": "MAX_OUT_RATIO",
      "outputs": [
        {
          "internalType": "uint256",
          "name": "",
          "type": "uint256"
        }
      ],
      "stateMutability": "view",
      "type": "function"
    },
    {
      "inputs": [],
      "name": "MAX_TOTAL_WEIGHT",
      "outputs": [
        {
          "internalType": "uint256",
          "name": "",
          "type": "uint256"
        }
      ],
      "stateMutability": "view",
      "type": "function"
    },
    {
      "inputs": [],
      "name": "MAX_WEIGHT",
      "outputs": [
        {
          "internalType": "uint256",
          "name": "",
          "type": "uint256"
        }
      ],
      "stateMutability": "view",
      "type": "function"
    },
    {
      "inputs": [],
      "name": "MIN_BALANCE",
      "outputs": [
        {
          "internalType": "uint256",
          "name": "",
          "type": "uint256"
        }
      ],
      "stateMutability": "view",
      "type": "function"
    },
    {
      "inputs": [],
      "name": "MIN_BOUND_TOKENS",
      "outputs": [
        {
          "internalType": "uint256",
          "name": "",
          "type": "uint256"
        }
      ],
      "stateMutability": "view",
      "type": "function"
    },
    {
      "inputs": [],
      "name": "MIN_BPOW_BASE",
      "outputs": [
        {
          "internalType": "uint256",
          "name": "",
          "type": "uint256"
        }
      ],
      "stateMutability": "view",
      "type": "function"
    },
    {
      "inputs": [],
      "name": "MIN_FEE",
      "outputs": [
        {
          "internalType": "uint256",
          "name": "",
          "type": "uint256"
        }
      ],
      "stateMutability": "view",
      "type": "function"
    },
    {
      "inputs": [],
      "name": "MIN_WEIGHT",
      "outputs": [
        {
          "internalType": "uint256",
          "name": "",
          "type": "uint256"
        }
      ],
      "stateMutability": "view",
      "type": "function"
    },
    {
      "inputs": [
        {
          "internalType": "contract AbstractMarketFactoryV3",
          "name": "_marketFactory",
          "type": "address"
        },
        {
          "internalType": "uint256",
          "name": "_marketId",
          "type": "uint256"
        },
        {
          "internalType": "uint256",
          "name": "_collateralIn",
          "type": "uint256"
        },
        {
          "internalType": "uint256",
          "name": "_minLPTokensOut",
          "type": "uint256"
        },
        {
          "internalType": "address",
          "name": "_lpTokenRecipient",
          "type": "address"
        }
      ],
      "name": "addLiquidity",
      "outputs": [
        {
          "internalType": "uint256",
          "name": "_poolAmountOut",
          "type": "uint256"
        },
        {
          "internalType": "uint256[]",
          "name": "_balances",
          "type": "uint256[]"
        }
      ],
      "stateMutability": "nonpayable",
      "type": "function"
    },
    {
      "inputs": [],
      "name": "bFactory",
      "outputs": [
        {
          "internalType": "contract BFactory",
          "name": "",
          "type": "address"
        }
      ],
      "stateMutability": "view",
      "type": "function"
    },
    {
      "inputs": [
        {
          "internalType": "contract AbstractMarketFactoryV3",
          "name": "_marketFactory",
          "type": "address"
        },
        {
          "internalType": "uint256",
          "name": "_marketId",
          "type": "uint256"
        },
        {
          "internalType": "uint256",
          "name": "_outcome",
          "type": "uint256"
        },
        {
          "internalType": "uint256",
          "name": "_collateralIn",
          "type": "uint256"
        },
        {
          "internalType": "uint256",
          "name": "_minTokensOut",
          "type": "uint256"
        }
      ],
      "name": "buy",
      "outputs": [
        {
          "internalType": "uint256",
          "name": "",
          "type": "uint256"
        }
      ],
      "stateMutability": "nonpayable",
      "type": "function"
    },
    {
      "inputs": [
        {
          "internalType": "contract AbstractMarketFactoryV3",
          "name": "_marketFactory",
          "type": "address"
        },
        {
          "internalType": "address",
          "name": "from",
          "type": "address"
        },
        {
          "internalType": "address",
          "name": "bondingcurve",
          "type": "address"
        },
        {
          "internalType": "uint256",
          "name": "_marketId",
          "type": "uint256"
        },
        {
          "internalType": "uint256",
          "name": "_collateralIn",
          "type": "uint256"
        }
      ],
      "name": "buyZCB",
      "outputs": [
        {
          "internalType": "uint256",
          "name": "",
          "type": "uint256"
        }
      ],
      "stateMutability": "nonpayable",
      "type": "function"
    },
    {
      "inputs": [
        {
          "internalType": "contract AbstractMarketFactoryV3",
          "name": "_marketFactory",
          "type": "address"
        },
        {
          "internalType": "uint256",
          "name": "_marketId",
          "type": "uint256"
        },
        {
          "internalType": "uint256",
          "name": "_initialLiquidity",
          "type": "uint256"
        },
        {
          "internalType": "address",
          "name": "_lpTokenRecipient",
          "type": "address"
        }
      ],
      "name": "createPool",
      "outputs": [
        {
          "internalType": "uint256",
          "name": "",
          "type": "uint256"
        }
      ],
      "stateMutability": "nonpayable",
      "type": "function"
    },
    {
      "inputs": [],
      "name": "getColor",
      "outputs": [
        {
          "internalType": "bytes32",
          "name": "",
          "type": "bytes32"
        }
      ],
      "stateMutability": "pure",
      "type": "function"
    },
    {
      "inputs": [
        {
          "internalType": "contract AbstractMarketFactoryV3",
          "name": "_marketFactory",
          "type": "address"
        },
        {
          "internalType": "uint256",
          "name": "_marketId",
          "type": "uint256"
        }
      ],
      "name": "getPool",
      "outputs": [
        {
          "internalType": "contract BPool",
          "name": "",
          "type": "address"
        }
      ],
      "stateMutability": "view",
      "type": "function"
    },
    {
      "inputs": [
        {
          "internalType": "contract AbstractMarketFactoryV3",
          "name": "_marketFactory",
          "type": "address"
        },
        {
          "internalType": "uint256",
          "name": "_marketId",
          "type": "uint256"
        }
      ],
      "name": "getPoolBalances",
      "outputs": [
        {
          "internalType": "uint256[]",
          "name": "",
          "type": "uint256[]"
        }
      ],
      "stateMutability": "view",
      "type": "function"
    },
    {
      "inputs": [
        {
          "internalType": "contract AbstractMarketFactoryV3",
          "name": "_marketFactory",
          "type": "address"
        },
        {
          "internalType": "uint256",
          "name": "_marketId",
          "type": "uint256"
        },
        {
          "internalType": "address",
          "name": "_user",
          "type": "address"
        }
      ],
      "name": "getPoolTokenBalance",
      "outputs": [
        {
          "internalType": "uint256",
          "name": "",
          "type": "uint256"
        }
      ],
      "stateMutability": "view",
      "type": "function"
    },
    {
      "inputs": [
        {
          "internalType": "contract AbstractMarketFactoryV3",
          "name": "_marketFactory",
          "type": "address"
        },
        {
          "internalType": "uint256",
          "name": "_marketId",
          "type": "uint256"
        }
      ],
      "name": "getPoolWeights",
      "outputs": [
        {
          "internalType": "uint256[]",
          "name": "",
          "type": "uint256[]"
        }
      ],
      "stateMutability": "view",
      "type": "function"
    },
    {
      "inputs": [
        {
          "internalType": "contract AbstractMarketFactoryV3",
          "name": "_marketFactory",
          "type": "address"
        },
        {
          "internalType": "uint256",
          "name": "_marketId",
          "type": "uint256"
        }
      ],
      "name": "getSwapFee",
      "outputs": [
        {
          "internalType": "uint256",
          "name": "",
          "type": "uint256"
        }
      ],
      "stateMutability": "view",
      "type": "function"
    },
    {
      "inputs": [
        {
          "internalType": "address",
          "name": "",
          "type": "address"
        },
        {
          "internalType": "uint256",
          "name": "",
          "type": "uint256"
        }
      ],
      "name": "pools",
      "outputs": [
        {
          "internalType": "contract BPool",
          "name": "",
          "type": "address"
        }
      ],
      "stateMutability": "view",
      "type": "function"
    },
    {
      "inputs": [
        {
          "internalType": "contract AbstractMarketFactoryV3",
          "name": "_marketFactory",
          "type": "address"
        },
        {
          "internalType": "uint256",
          "name": "_marketId",
          "type": "uint256"
        },
        {
          "internalType": "uint256",
          "name": "_lpTokensIn",
          "type": "uint256"
        },
        {
          "internalType": "uint256",
          "name": "_minCollateralOut",
          "type": "uint256"
        },
        {
          "internalType": "address",
          "name": "_collateralRecipient",
          "type": "address"
        }
      ],
      "name": "removeLiquidity",
      "outputs": [
        {
          "internalType": "uint256",
          "name": "_collateralOut",
          "type": "uint256"
        },
        {
          "internalType": "uint256[]",
          "name": "_balances",
          "type": "uint256[]"
        }
      ],
      "stateMutability": "nonpayable",
      "type": "function"
    },
    {
      "inputs": [
        {
          "internalType": "contract AbstractMarketFactoryV3",
          "name": "_marketFactory",
          "type": "address"
        },
        {
          "internalType": "uint256",
          "name": "_marketId",
          "type": "uint256"
        },
        {
          "internalType": "uint256",
          "name": "_outcome",
          "type": "uint256"
        },
        {
          "internalType": "uint256[]",
          "name": "_shareTokensIn",
          "type": "uint256[]"
        },
        {
          "internalType": "uint256",
          "name": "_minSetsOut",
          "type": "uint256"
        }
      ],
      "name": "sellForCollateral",
      "outputs": [
        {
          "internalType": "uint256",
          "name": "",
          "type": "uint256"
        }
      ],
      "stateMutability": "nonpayable",
      "type": "function"
    },
    {
      "inputs": [
        {
          "internalType": "contract AbstractMarketFactoryV3",
          "name": "_marketFactory",
          "type": "address"
        },
        {
          "internalType": "address",
          "name": "from",
          "type": "address"
        },
        {
          "internalType": "address",
          "name": "bondingcurve",
          "type": "address"
        },
        {
          "internalType": "uint256",
          "name": "_marketId",
          "type": "uint256"
        },
        {
          "internalType": "uint256",
          "name": "_zcb_amountIn",
          "type": "uint256"
        }
      ],
      "name": "sellZCB",
      "outputs": [
        {
          "internalType": "uint256",
          "name": "",
          "type": "uint256"
        }
      ],
      "stateMutability": "nonpayable",
      "type": "function"
    },
    {
      "inputs": [
        {
          "internalType": "contract AbstractMarketFactoryV3",
          "name": "_marketFactory",
          "type": "address"
        },
        {
          "internalType": "uint256",
          "name": "_marketId",
          "type": "uint256"
        }
      ],
      "name": "tokenRatios",
      "outputs": [
        {
          "internalType": "uint256[]",
          "name": "",
          "type": "uint256[]"
        }
      ],
      "stateMutability": "view",
      "type": "function"
    }
  ],
  "transactionHash": "0x1d572320d0c2853d770e6fe0eb5a3ead17cb6f91ecb56107c13cd999574852ce",
  "args": [
    "0xE152327f9700F1733d12e7a507045FB4A4606C6F",
    "1000000000000"
  ],
  "numDeployments": 7,
  "solcInputHash": "e99c8449f30646952907aa423784d19d",
  "bytecode": "0x60806040523480156200001157600080fd5b50604051620044813803806200448183398101604081905262000034916200005e565b600080546001600160a01b0319166001600160a01b03939093169290921790915560025562000098565b6000806040838503121562000071578182fd5b82516001600160a01b038116811462000088578283fd5b6020939093015192949293505050565b6143d980620000a86000396000f3fe608060405234801561001057600080fd5b50600436106101f05760003560e01c80639a86139b1161010f578063c6580d12116100a2578063e4a28a5211610071578063e4a28a52146101f5578063ec093021146103d1578063f6dc695c146103d9578063fa0de359146103ec57600080fd5b8063c6580d1214610383578063c7b4b6dd1461038b578063d055da71146103ab578063d2364bf3146103be57600080fd5b8063ba019dab116100de578063ba019dab1461036b578063bc063e1a14610373578063bc694ea21461037b578063c36596a61461024357600080fd5b80639a86139b14610339578063a0147aa114610348578063b0e0d1361461035b578063b7b800a41461036357600080fd5b806371e684e511610187578063867378c511610156578063867378c5146102ed5780638f38a555146102f55780639381cd2b14610329578063992e2a921461033157600080fd5b806371e684e5146102ac57806372b60c30146102bf57806376c7a3c7146102d2578063842980f4146102da57600080fd5b806345fa6783116101c357806345fa67831461025257806359f842b2146102735780635b5b9ea21461028657806360cac85a1461029957600080fd5b806309a3bbe4146101f55780630a16594014610210578063189d00ca1461023b578063218b538214610243575b600080fd5b6101fd6103ff565b6040519081526020015b60405180910390f35b600054610223906001600160a01b031681565b6040516001600160a01b039091168152602001610207565b6101fd610415565b6101fd670de0b6b3a764000081565b610265610260366004613f27565b61042c565b604051610207929190614208565b610265610281366004613f27565b610d7e565b610223610294366004613c6a565b6115d1565b6101fd6102a7366004613e67565b6115fe565b6101fd6102ba366004613d83565b611e06565b6101fd6102cd366004613f7c565b61201d565b6101fd612573565b6101fd6102e8366004613e1e565b612588565b6101fd613037565b610223610303366004613c6a565b60016020908152600092835260408084209091529082529020546001600160a01b031681565b6101fd61304e565b6101fd613061565b6542524f4e5a4560d01b6101fd565b6101fd610356366004613ddd565b61307f565b6101fd600881565b6101fd600281565b6101fd600181565b6101fd613121565b6101fd613134565b6101fd600081565b61039e610399366004613c6a565b613153565b60405161020791906141be565b61039e6103b9366004613c6a565b613412565b61039e6103cc366004613c6a565b61361a565b6101fd613818565b6101fd6103e7366004613d83565b61382b565b6101fd6103fa366004613c6a565b6139c6565b610412670de0b6b3a764000060326142f4565b81565b6104126402540be400670de0b6b3a76400006142d4565b6001600160a01b0380861660009081526001602090815260408083208884529091528120549091606091168061047d5760405162461bcd60e51b8152600401610474906141d1565b60405180910390fd5b60405163eb44fdd360e01b8152600481018890526000906001600160a01b038a169063eb44fdd39060240160006040518083038186803b1580156104c057600080fd5b505afa1580156104d4573d6000803e3d6000fd5b505050506040513d6000823e601f3d908101601f191682016040526104fc9190810190613fdb565b90506000896001600160a01b031663d8dfeb456040518163ffffffff1660e01b815260040160206040518083038186803b15801561053957600080fd5b505afa15801561054d573d6000803e3d6000fd5b505050506040513d601f19601f820116820180604052508101906105719190613fbf565b6040516323b872dd60e01b81529091506001600160a01b038216906323b872dd906105a490339030908d90600401614154565b602060405180830381600087803b1580156105be57600080fd5b505af11580156105d2573d6000803e3d6000fd5b505050506040513d601f19601f820116820180604052508101906105f69190613d62565b5060405163095ea7b360e01b81526001600160a01b0382169063095ea7b390610627908d90600019906004016141a5565b602060405180830381600087803b15801561064157600080fd5b505af1158015610655573d6000803e3d6000fd5b505050506040513d601f19601f820116820180604052508101906106799190613d62565b50604051636643d6f560e11b8152600481018990526000906001600160a01b038c169063cc87adea9060240160206040518083038186803b1580156106bd57600080fd5b505afa1580156106d1573d6000803e3d6000fd5b505050506040513d601f19601f820116820180604052508101906106f591906140df565b60405163221fff8160e01b81529091506001600160a01b038c169063221fff8190610728908d9085903090600401614221565b600060405180830381600087803b15801561074257600080fd5b505af1158015610756573d6000803e3d6000fd5b5050505060001995506000846001600160a01b03166318160ddd6040518163ffffffff1660e01b815260040160206040518083038186803b15801561079a57600080fd5b505afa1580156107ae573d6000803e3d6000fd5b505050506040513d601f19601f820116820180604052508101906107d291906140df565b905060008460200151516001600160401b0381111561080157634e487b7160e01b600052604160045260246000fd5b60405190808252806020026020018201604052801561082a578160200160208202803683370190505b50905060005b8560200151518110156109af578382828151811061085e57634e487b7160e01b600052603260045260246000fd5b60200260200101818152505060008660200151828151811061089057634e487b7160e01b600052603260045260246000fd5b602090810291909101015160405163f8b2cb4f60e01b81526001600160a01b0380831660048301529192506000918a169063f8b2cb4f9060240160206040518083038186803b1580156108e257600080fd5b505afa1580156108f6573d6000803e3d6000fd5b505050506040513d601f19601f8201168201806040525081019061091a91906140df565b90506000670de0b6b3a76400006109326002886142d4565b83886109476002670de0b6b3a76400006142d4565b610959670de0b6b3a76400008d6142f4565b6109639190614313565b61096d91906142f4565b61097791906142d4565b6109819190614313565b61098b91906142d4565b90508b81101561099957809b505b50505080806109a79061432a565b915050610830565b506040516313da703560e21b81526001600160a01b03871690634f69c0d4906109de908b908590600401614208565b600060405180830381600087803b1580156109f857600080fd5b505af1158015610a0c573d6000803e3d6000fd5b50505050505087861015610a735760405162461bcd60e51b815260206004820152602860248201527f576f756c64206e6f74206861766520726563656976656420656e6f756768204c6044820152675020746f6b656e7360c01b6064820152608401610474565b60405163a9059cbb60e01b81526001600160a01b0385169063a9059cbb90610aa1908a908a906004016141a5565b602060405180830381600087803b158015610abb57600080fd5b505af1158015610acf573d6000803e3d6000fd5b505050506040513d601f19601f82011682018060405250810190610af39190613d62565b508260200151516001600160401b03811115610b1f57634e487b7160e01b600052604160045260246000fd5b604051908082528060200260200182016040528015610b48578160200160208202803683370190505b50945060005b836020015151811015610d1e57600084602001518281518110610b8157634e487b7160e01b600052603260045260246000fd5b60209081029190910101516040516370a0823160e01b81523060048201529091506001600160a01b038216906370a082319060240160206040518083038186803b158015610bce57600080fd5b505afa158015610be2573d6000803e3d6000fd5b505050506040513d601f19601f82011682018060405250810190610c0691906140df565b878381518110610c2657634e487b7160e01b600052603260045260246000fd5b6020026020010181815250506000878381518110610c5457634e487b7160e01b600052603260045260246000fd5b60200260200101511115610d0b57806001600160a01b031663a9059cbb8a898581518110610c9257634e487b7160e01b600052603260045260246000fd5b60200260200101516040518363ffffffff1660e01b8152600401610cb79291906141a5565b602060405180830381600087803b158015610cd157600080fd5b505af1158015610ce5573d6000803e3d6000fd5b505050506040513d601f19601f82011682018060405250810190610d099190613d62565b505b5080610d168161432a565b915050610b4e565b50338a6001600160a01b038d167f9a1dccf45b5053e827f262e45fbb5211c2bd99497d340eecaebbd245eb48f4bc8a610d568e614345565b8b8b604051610d689493929190614178565b60405180910390a4505050509550959350505050565b6001600160a01b03808616600090815260016020908152604080832088845290915281205490916060911680610dc65760405162461bcd60e51b8152600401610474906141d1565b60405163eb44fdd360e01b8152600481018890526000906001600160a01b038a169063eb44fdd39060240160006040518083038186803b158015610e0957600080fd5b505afa158015610e1d573d6000803e3d6000fd5b505050506040513d6000823e601f3d908101601f19168201604052610e459190810190613fdb565b6040516323b872dd60e01b81529091506001600160a01b038316906323b872dd90610e7890339030908c90600401614154565b602060405180830381600087803b158015610e9257600080fd5b505af1158015610ea6573d6000803e3d6000fd5b505050506040513d601f19601f82011682018060405250810190610eca9190613d62565b50606060008260200151516001600160401b03811115610efa57634e487b7160e01b600052604160045260246000fd5b604051908082528060200260200182016040528015610f23578160200160208202803683370190505b5060405163ea40f3f760e01b81529091506001600160a01b0385169063ea40f3f790610f55908c908590600401614208565b60006040518083038186803b158015610f6d57600080fd5b505afa158015610f81573d6000803e3d6000fd5b505050506040513d6000823e601f3d908101601f19168201604052610fa99190810190613d30565b60405163b02f0b7360e01b81529092506001600160a01b0385169063b02f0b7390610fda908c908590600401614208565b600060405180830381600087803b158015610ff457600080fd5b505af1158015611008573d6000803e3d6000fd5b5060001993506000925050505b83602001515181101561106d57600083828151811061104457634e487b7160e01b600052603260045260246000fd5b602002602001015190508281101561105a578092505b50806110658161432a565b915050611015565b508a6001600160a01b0316637641ab016040518163ffffffff1660e01b815260040160206040518083038186803b1580156110a757600080fd5b505afa1580156110bb573d6000803e3d6000fd5b505050506040513d601f19601f820116820180604052508101906110df91906140df565b8b6001600160a01b0316637641ab016040518163ffffffff1660e01b815260040160206040518083038186803b15801561111857600080fd5b505afa15801561112c573d6000803e3d6000fd5b505050506040513d601f19601f8201168201806040525081019061115091906140df565b61115a90836142d4565b61116491906142f4565b6040516353ac55f560e01b8152600481018c90529091506000906001600160a01b038d16906353ac55f59060240160206040518083038186803b1580156111aa57600080fd5b505afa1580156111be573d6000803e3d6000fd5b505050506040513d601f19601f820116820180604052508101906111e29190613d62565b905080156112735760405163992c907960e01b8152600481018c90526001600160a01b0389811660248301528d169063992c907990604401602060405180830381600087803b15801561123457600080fd5b505af1158015611248573d6000803e3d6000fd5b505050506040513d601f19601f8201168201806040525081019061126c91906140df565b96506112f8565b6040516335a9cdad60e01b81526001600160a01b038d16906335a9cdad906112a3908e9086908d90600401614221565b602060405180830381600087803b1580156112bd57600080fd5b505af11580156112d1573d6000803e3d6000fd5b505050506040513d601f19601f820116820180604052508101906112f591906140df565b96505b8887116113565760405162461bcd60e51b815260206004820152602660248201527f416d6f756e74206f6620636f6c6c61746572616c2072657475726e656420746f60448201526537903637bb9760d11b6064820152608401610474565b8360200151516001600160401b0381111561138157634e487b7160e01b600052604160045260246000fd5b6040519080825280602002602001820160405280156113aa578160200160208202803683370190505b50955060005b846020015151811015611566576000856020015182815181106113e357634e487b7160e01b600052603260045260246000fd5b6020026020010151905082801561140f575085604001516001600160a01b0316816001600160a01b0316145b1561141a5750611554565b8385838151811061143b57634e487b7160e01b600052603260045260246000fd5b602002602001015161144d9190614313565b88838151811061146d57634e487b7160e01b600052603260045260246000fd5b602002602001018181525050600088838151811061149b57634e487b7160e01b600052603260045260246000fd5b6020026020010151111561155257806001600160a01b031663a9059cbb8b8a85815181106114d957634e487b7160e01b600052603260045260246000fd5b60200260200101516040518363ffffffff1660e01b81526004016114fe9291906141a5565b602060405180830381600087803b15801561151857600080fd5b505af115801561152c573d6000803e3d6000fd5b505050506040513d601f19601f820116820180604052508101906115509190613d62565b505b505b8061155e8161432a565b9150506113b0565b50336001600160a01b03168b8d6001600160a01b03167f9a1dccf45b5053e827f262e45fbb5211c2bd99497d340eecaebbd245eb48f4bc8b8b8f6115a990614345565b8c6040516115ba9493929190614178565b60405180910390a450505050509550959350505050565b6001600160a01b038083166000908152600160209081526040808320858452909152902054165b92915050565b6001600160a01b038086166000908152600160209081526040808320888452909152812054909116806116435760405162461bcd60e51b8152600401610474906141d1565b60405163eb44fdd360e01b8152600481018790526000906001600160a01b0389169063eb44fdd39060240160006040518083038186803b15801561168657600080fd5b505afa15801561169a573d6000803e3d6000fd5b505050506040513d6000823e601f3d908101601f191682016040526116c29190810190613fdb565b90506000196000805b83602001515181101561171f578781815181106116f857634e487b7160e01b600052603260045260246000fd5b60200260200101518261170b91906142bc565b9150806117178161432a565b9150506116cb565b508260200151888151811061174457634e487b7160e01b600052603260045260246000fd5b60200260200101516001600160a01b03166323b872dd3330846040518463ffffffff1660e01b815260040161177b93929190614154565b602060405180830381600087803b15801561179557600080fd5b505af11580156117a9573d6000803e3d6000fd5b505050506040513d601f19601f820116820180604052508101906117cd9190613d62565b50826020015188815181106117f257634e487b7160e01b600052603260045260246000fd5b60200260200101516001600160a01b031663095ea7b3856000196040518363ffffffff1660e01b81526004016118299291906141a5565b602060405180830381600087803b15801561184357600080fd5b505af1158015611857573d6000803e3d6000fd5b505050506040513d601f19601f8201168201806040525081019061187b9190613d62565b5060005b836020015151811015611ae4578881141561189957611ad2565b6000846020015182815181106118bf57634e487b7160e01b600052603260045260246000fd5b602002602001015190506000866001600160a01b0316638201aa3f87602001518d815181106118fe57634e487b7160e01b600052603260045260246000fd5b60200260200101518c868151811061192657634e487b7160e01b600052603260045260246000fd5b60209081029190910101516040516001600160e01b031960e085901b1681526001600160a01b0392831660048201526024810191909152908516604482015260006064820152600019608482015260a4016040805180830381600087803b15801561199057600080fd5b505af11580156119a4573d6000803e3d6000fd5b505050506040513d601f19601f820116820180604052508101906119c891906140f7565b5090508c6001600160a01b0316637641ab016040518163ffffffff1660e01b815260040160206040518083038186803b158015611a0457600080fd5b505afa158015611a18573d6000803e3d6000fd5b505050506040513d601f19601f82011682018060405250810190611a3c91906140df565b8d6001600160a01b0316637641ab016040518163ffffffff1660e01b815260040160206040518083038186803b158015611a7557600080fd5b505afa158015611a89573d6000803e3d6000fd5b505050506040513d601f19601f82011682018060405250810190611aad91906140df565b611ab790836142d4565b611ac191906142f4565b905084811015611acf578094505b50505b80611adc8161432a565b91505061187f565b5085821015611b355760405162461bcd60e51b815260206004820152601b60248201527f4d696e696d756d2073657473206e6f7420617661696c61626c652e00000000006044820152606401610474565b6040516335a9cdad60e01b81526001600160a01b038b16906335a9cdad90611b65908c9086903390600401614221565b602060405180830381600087803b158015611b7f57600080fd5b505af1158015611b93573d6000803e3d6000fd5b505050506040513d601f19601f82011682018060405250810190611bb791906140df565b5060005b836020015151811015611d1557600084602001518281518110611bee57634e487b7160e01b600052603260045260246000fd5b60209081029190910101516040516370a0823160e01b81523060048201529091506000906001600160a01b038316906370a082319060240160206040518083038186803b158015611c3e57600080fd5b505afa158015611c52573d6000803e3d6000fd5b505050506040513d601f19601f82011682018060405250810190611c7691906140df565b90508015611d005760405163a9059cbb60e01b81526001600160a01b0383169063a9059cbb90611cac90339085906004016141a5565b602060405180830381600087803b158015611cc657600080fd5b505af1158015611cda573d6000803e3d6000fd5b505050506040513d601f19601f82011682018060405250810190611cfe9190613d62565b505b50508080611d0d9061432a565b915050611bbb565b5060405163239d36a960e11b8152600481018390526000906001600160a01b038c169063473a6d529060240160206040518083038186803b158015611d5957600080fd5b505afa158015611d6d573d6000803e3d6000fd5b505050506040513d601f19601f82011682018060405250810190611d9191906140df565b9050338a6001600160a01b038d167fec2a60d57293d00dfe68ab5f1d18738c4600ce39c0c0c623fc086814615f33fa8c85611dcb88614345565b611dd58a8a613a60565b60408051948552602085019390935291830152606082015260800160405180910390a49a9950505050505050505050565b600080866001600160a01b031663d8dfeb456040518163ffffffff1660e01b815260040160206040518083038186803b158015611e4257600080fd5b505afa158015611e56573d6000803e3d6000fd5b505050506040513d601f19601f82011682018060405250810190611e7a9190613fbf565b6040516323b872dd60e01b81529091506001600160a01b038216906323b872dd90611ead90899030908890600401614154565b602060405180830381600087803b158015611ec757600080fd5b505af1158015611edb573d6000803e3d6000fd5b505050506040513d601f19601f82011682018060405250810190611eff9190613d62565b5060405163095ea7b360e01b81526001600160a01b0382169063095ea7b390611f2e90889087906004016141a5565b602060405180830381600087803b158015611f4857600080fd5b505af1158015611f5c573d6000803e3d6000fd5b505050506040513d601f19601f82011682018060405250810190611f809190613d62565b506040516354ea127160e11b81526001600160a01b0388811660048301528781166024830152604482018590526064820186905286169063a9d424e290608401602060405180830381600087803b158015611fda57600080fd5b505af1158015611fee573d6000803e3d6000fd5b505050506040513d601f19601f8201168201806040525081019061201291906140df565b979650505050505050565b6001600160a01b038086166000908152600160209081526040808320888452909152812054909116806120625760405162461bcd60e51b8152600401610474906141d1565b60405163eb44fdd360e01b8152600481018790526000906001600160a01b0389169063eb44fdd39060240160006040518083038186803b1580156120a557600080fd5b505afa1580156120b9573d6000803e3d6000fd5b505050506040513d6000823e601f3d908101601f191682016040526120e19190810190613fdb565b60405163ea05487960e01b81526004810189905260248101889052604481018790529091506001600160a01b0389169063ea05487990606401600060405180830381600087803b15801561213457600080fd5b505af1158015612148573d6000803e3d6000fd5b505050506000886001600160a01b031663d8dfeb456040518163ffffffff1660e01b815260040160206040518083038186803b15801561218757600080fd5b505afa15801561219b573d6000803e3d6000fd5b505050506040513d601f19601f820116820180604052508101906121bf9190613fbf565b6040516323b872dd60e01b81529091506001600160a01b038216906323b872dd906121f290339030908b90600401614154565b602060405180830381600087803b15801561220c57600080fd5b505af1158015612220573d6000803e3d6000fd5b505050506040513d601f19601f820116820180604052508101906122449190613d62565b50604051636643d6f560e11b8152600481018790526000906001600160a01b038b169063cc87adea9060240160206040518083038186803b15801561228857600080fd5b505afa15801561229c573d6000803e3d6000fd5b505050506040513d601f19601f820116820180604052508101906122c091906140df565b60405163221fff8160e01b81529091506001600160a01b038b169063221fff81906122f3908c9085903090600401614221565b600060405180830381600087803b15801561230d57600080fd5b505af1158015612321573d6000803e3d6000fd5b505050506000819050600084602001518a8151811061235057634e487b7160e01b600052603260045260246000fd5b6020026020010151905060005b856020015151811015612469578a81141561237757612457565b60008660200151828151811061239d57634e487b7160e01b600052603260045260246000fd5b6020908102919091010151604051638201aa3f60e01b81526001600160a01b03808316600483015260248201889052858116604483015260006064830181905260001960848401529293508a1690638201aa3f9060a4016040805180830381600087803b15801561240d57600080fd5b505af1158015612421573d6000803e3d6000fd5b505050506040513d601f19601f8201168201806040525081019061244591906140f7565b50905061245281866142bc565b945050505b806124618161432a565b91505061235d565b50878210156124ae5760405162461bcd60e51b815260206004820152601160248201527014db1a5c1c1859d948195e18d959591959607a1b6044820152606401610474565b60405163a9059cbb60e01b81526001600160a01b0382169063a9059cbb906124dc90339086906004016141a5565b602060405180830381600087803b1580156124f657600080fd5b505af115801561250a573d6000803e3d6000fd5b505050506040513d601f19601f8201168201806040525081019061252e9190613d62565b503390508a6001600160a01b038d167fec2a60d57293d00dfe68ab5f1d18738c4600ce39c0c0c623fc086814615f33fa8c6125688d614345565b86611dd58989613a60565b610412620f4240670de0b6b3a76400006142d4565b6001600160a01b038481166000908152600160209081526040808320878452909152812054909116156125f45760405162461bcd60e51b8152602060048201526014602482015273141bdbdb08185b1c9958591e4818dc99585d195960621b6044820152606401610474565b60405163eb44fdd360e01b8152600481018590526000906001600160a01b0387169063eb44fdd39060240160006040518083038186803b15801561263757600080fd5b505afa15801561264b573d6000803e3d6000fd5b505050506040513d6000823e601f3d908101601f191682016040526126739190810190613fdb565b604051636643d6f560e11b8152600481018690529091506000906001600160a01b0388169063cc87adea9060240160206040518083038186803b1580156126b957600080fd5b505afa1580156126cd573d6000803e3d6000fd5b505050506040513d601f19601f820116820180604052508101906126f191906140df565b9050612706670de0b6b3a764000060646142f4565b8110156127705760405162461bcd60e51b815260206004820152603260248201527f496e697469616c206c6971756964697479206d757374206265206174206c656160448201527139ba101898181031b7b63630ba32b930b61760711b6064820152608401610474565b6000876001600160a01b031663d8dfeb456040518163ffffffff1660e01b815260040160206040518083038186803b1580156127ab57600080fd5b505afa1580156127bf573d6000803e3d6000fd5b505050506040513d601f19601f820116820180604052508101906127e39190613fbf565b604051636eb1769f60e11b815233600482015230602482015290915086906001600160a01b0383169063dd62ed3e9060440160206040518083038186803b15801561282d57600080fd5b505afa158015612841573d6000803e3d6000fd5b505050506040513d601f19601f8201168201806040525081019061286591906140df565b10156128d95760405162461bcd60e51b815260206004820152603760248201527f696e73756666696369656e7420636f6c6c61746572616c20616c6c6f77616e6360448201527f6520666f7220696e697469616c206c69717569646974790000000000000000006064820152608401610474565b6040516323b872dd60e01b81526001600160a01b038216906323b872dd9061290990339030908b90600401614154565b602060405180830381600087803b15801561292357600080fd5b505af1158015612937573d6000803e3d6000fd5b505050506040513d601f19601f8201168201806040525081019061295b9190613d62565b5060405163095ea7b360e01b81526001600160a01b0382169063095ea7b39061298c908b90600019906004016141a5565b602060405180830381600087803b1580156129a657600080fd5b505af11580156129ba573d6000803e3d6000fd5b505050506040513d601f19601f820116820180604052508101906129de9190613d62565b5060405163221fff8160e01b81526001600160a01b0389169063221fff8190612a0f908a9086903090600401614221565b600060405180830381600087803b158015612a2957600080fd5b505af1158015612a3d573d6000803e3d6000fd5b5050505060008060009054906101000a90046001600160a01b03166001600160a01b031663d556c5dc6040518163ffffffff1660e01b8152600401602060405180830381600087803b158015612a9257600080fd5b505af1158015612aa6573d6000803e3d6000fd5b505050506040513d601f19601f82011682018060405250810190612aca9190613fbf565b905060005b846020015151811015612c4a57600085602001518281518110612b0257634e487b7160e01b600052603260045260246000fd5b60200260200101519050806001600160a01b031663095ea7b3846000196040518363ffffffff1660e01b8152600401612b3c9291906141a5565b602060405180830381600087803b158015612b5657600080fd5b505af1158015612b6a573d6000803e3d6000fd5b505050506040513d601f19601f82011682018060405250810190612b8e9190613d62565b50826001600160a01b031663e4e1e53882878961012001518681518110612bc557634e487b7160e01b600052603260045260246000fd5b60209081029190910101516040516001600160e01b031960e086901b1681526001600160a01b03909316600484015260248301919091526044820152606401600060405180830381600087803b158015612c1e57600080fd5b505af1158015612c32573d6000803e3d6000fd5b50505050508080612c429061432a565b915050612acf565b506002546040516334e1990760e01b815260048101919091526001600160a01b038216906334e1990790602401600060405180830381600087803b158015612c9157600080fd5b505af1158015612ca5573d6000803e3d6000fd5b50505050806001600160a01b0316634bb278f36040518163ffffffff1660e01b8152600401600060405180830381600087803b158015612ce457600080fd5b505af1158015612cf8573d6000803e3d6000fd5b505050506001600160a01b0389811660009081526001602090815260408083208c8452909152812080546001600160a01b03191692841692909217909155612d4a6103e8670de0b6b3a76400006142d4565b6040516370a0823160e01b81523060048201526001600160a01b038416906370a082319060240160206040518083038186803b158015612d8957600080fd5b505afa158015612d9d573d6000803e3d6000fd5b505050506040513d601f19601f82011682018060405250810190612dc191906140df565b612dcb9190614313565b90506001600160a01b03821663a9059cbb6000612df26103e8670de0b6b3a76400006142d4565b6040518363ffffffff1660e01b8152600401612e0f9291906141a5565b602060405180830381600087803b158015612e2957600080fd5b505af1158015612e3d573d6000803e3d6000fd5b505050506040513d601f19601f82011682018060405250810190612e619190613d62565b5060405163a9059cbb60e01b81526001600160a01b0383169063a9059cbb90612e90908a9085906004016141a5565b602060405180830381600087803b158015612eaa57600080fd5b505af1158015612ebe573d6000803e3d6000fd5b505050506040513d601f19601f82011682018060405250810190612ee29190613d62565b5060008560200151516001600160401b03811115612f1057634e487b7160e01b600052604160045260246000fd5b604051908082528060200260200182016040528015612f39578160200160208202803683370190505b50905060005b866020015151811015612f8b576000828281518110612f6e57634e487b7160e01b600052603260045260246000fd5b602090810291909101015280612f838161432a565b915050612f3f565b50604080516001600160a01b0385811682528a8116602083015233928d92918f16917ffb27591822deac7913ea973cf845992f243e2ba5634ef8fbe0b6554aca37a428910160405180910390a4338a6001600160a01b038d167f9a1dccf45b5053e827f262e45fbb5211c2bd99497d340eecaebbd245eb48f4bc8b61300f8e614345565b87876040516130219493929190614178565b60405180910390a4509998505050505050505050565b61041264e8d4a51000670de0b6b3a76400006142d4565b610412670de0b6b3a764000060646142f4565b6130746003670de0b6b3a76400006142d4565b6104129060016142bc565b6001600160a01b0383811660009081526001602090815260408083208684529091528082205490516370a0823160e01b815284841660048201529192169081906370a082319060240160206040518083038186803b1580156130e057600080fd5b505afa1580156130f4573d6000803e3d6000fd5b505050506040513d601f19601f8201168201806040525081019061311891906140df565b95945050505050565b610412600a670de0b6b3a76400006142d4565b6001613149670de0b6b3a764000060026142f4565b6104129190614313565b6001600160a01b03808316600090815260016020908152604080832085845290915290205460609116806131b65760005b6040519080825280602002602001820160405280156131ad578160200160208202803683370190505b509150506115f8565b60405163eb44fdd360e01b8152600481018490526000906001600160a01b0386169063eb44fdd39060240160006040518083038186803b1580156131f957600080fd5b505afa15801561320d573d6000803e3d6000fd5b505050506040513d6000823e601f3d908101601f191682016040526132359190810190613fdb565b90506000816020015160008151811061325e57634e487b7160e01b600052603260045260246000fd5b6020026020010151905060008260200151516001600160401b0381111561329557634e487b7160e01b600052604160045260246000fd5b6040519080825280602002602001820160405280156132be578160200160208202803683370190505b509050670de0b6b3a7640000816000815181106132eb57634e487b7160e01b600052603260045260246000fd5b602090810291909101015260015b836020015151811015613407576000856001600160a01b03166315e84af9858760200151858151811061333c57634e487b7160e01b600052603260045260246000fd5b60200260200101516040518363ffffffff1660e01b81526004016133769291906001600160a01b0392831681529116602082015260400190565b60206040518083038186803b15801561338e57600080fd5b505afa1580156133a2573d6000803e3d6000fd5b505050506040513d601f19601f820116820180604052508101906133c691906140df565b9050808383815181106133e957634e487b7160e01b600052603260045260246000fd5b602090810291909101015250806133ff8161432a565b9150506132f9565b509695505050505050565b6001600160a01b0380831660009081526001602090815260408083208584529091529020546060911680613447576000613184565b6000816001600160a01b031663cc77828d6040518163ffffffff1660e01b815260040160006040518083038186803b15801561348257600080fd5b505afa158015613496573d6000803e3d6000fd5b505050506040513d6000823e601f3d908101601f191682016040526134be9190810190613c95565b9050600081516001600160401b038111156134e957634e487b7160e01b600052604160045260246000fd5b604051908082528060200260200182016040528015613512578160200160208202803683370190505b50905060005b825181101561361057836001600160a01b031663948d8ce684838151811061355057634e487b7160e01b600052603260045260246000fd5b60200260200101516040518263ffffffff1660e01b815260040161358391906001600160a01b0391909116815260200190565b60206040518083038186803b15801561359b57600080fd5b505afa1580156135af573d6000803e3d6000fd5b505050506040513d601f19601f820116820180604052508101906135d391906140df565b8282815181106135f357634e487b7160e01b600052603260045260246000fd5b6020908102919091010152806136088161432a565b915050613518565b5095945050505050565b6001600160a01b038083166000908152600160209081526040808320858452909152902054606091168061364f576000613184565b6000816001600160a01b031663cc77828d6040518163ffffffff1660e01b815260040160006040518083038186803b15801561368a57600080fd5b505afa15801561369e573d6000803e3d6000fd5b505050506040513d6000823e601f3d908101601f191682016040526136c69190810190613c95565b9050600081516001600160401b038111156136f157634e487b7160e01b600052604160045260246000fd5b60405190808252806020026020018201604052801561371a578160200160208202803683370190505b50905060005b825181101561361057836001600160a01b031663f8b2cb4f84838151811061375857634e487b7160e01b600052603260045260246000fd5b60200260200101516040518263ffffffff1660e01b815260040161378b91906001600160a01b0391909116815260200190565b60206040518083038186803b1580156137a357600080fd5b505afa1580156137b7573d6000803e3d6000fd5b505050506040513d601f19601f820116820180604052508101906137db91906140df565b8282815181106137fb57634e487b7160e01b600052603260045260246000fd5b6020908102919091010152806138108161432a565b915050613720565b6104126002670de0b6b3a76400006142d4565b6040516331de7d1560e01b81526001600160a01b0386811660048301528581166024830152604482018390526064820184905260009182918616906331de7d1590608401602060405180830381600087803b15801561388957600080fd5b505af115801561389d573d6000803e3d6000fd5b505050506040513d601f19601f820116820180604052508101906138c191906140df565b90506000876001600160a01b031663d8dfeb456040518163ffffffff1660e01b815260040160206040518083038186803b1580156138fe57600080fd5b505afa158015613912573d6000803e3d6000fd5b505050506040513d601f19601f820116820180604052508101906139369190613fbf565b60405163a9059cbb60e01b81529091506001600160a01b0382169063a9059cbb90613967908a9086906004016141a5565b602060405180830381600087803b15801561398157600080fd5b505af1158015613995573d6000803e3d6000fd5b505050506040513d601f19601f820116820180604052508101906139b99190613d62565b5090979650505050505050565b6001600160a01b0380831660009081526001602090815260408083208584528252808320548151631a995bed60e31b8152915193941692839263d4cadf689260048082019391829003018186803b158015613a2057600080fd5b505afa158015613a34573d6000803e3d6000fd5b505050506040513d601f19601f82011682018060405250810190613a5891906140df565b949350505050565b600081613a9e5760405162461bcd60e51b815260206004820152600c60248201526b4552525f4449565f5a45524f60a01b6044820152606401610474565b6000613ab2670de0b6b3a7640000856142f4565b9050831580613ad15750670de0b6b3a7640000613acf85836142d4565b145b613b105760405162461bcd60e51b815260206004820152601060248201526f11549497d1125597d25395115493905360821b6044820152606401610474565b6000613b1d6002856142d4565b613b2790836142bc565b905081811015613b6c5760405162461bcd60e51b815260206004820152601060248201526f11549497d1125597d25395115493905360821b6044820152606401610474565b6000613b7885836142d4565b9695505050505050565b8051613b8d8161438b565b919050565b600082601f830112613ba2578081fd5b81516020613bb7613bb283614299565b614269565b80838252828201915082860187848660051b8901011115613bd6578586fd5b855b858110156139b9578151613beb8161438b565b84529284019290840190600101613bd8565b600082601f830112613c0d578081fd5b81516020613c1d613bb283614299565b80838252828201915082860187848660051b8901011115613c3c578586fd5b855b858110156139b957815184529284019290840190600101613c3e565b80518015158114613b8d57600080fd5b60008060408385031215613c7c578182fd5b8235613c878161438b565b946020939093013593505050565b60006020808385031215613ca7578182fd5b82516001600160401b03811115613cbc578283fd5b8301601f81018513613ccc578283fd5b8051613cda613bb282614299565b80828252848201915084840188868560051b8701011115613cf9578687fd5b8694505b83851015613d24578051613d108161438b565b835260019490940193918501918501613cfd565b50979650505050505050565b600060208284031215613d41578081fd5b81516001600160401b03811115613d56578182fd5b613a5884828501613bfd565b600060208284031215613d73578081fd5b613d7c82613c5a565b9392505050565b600080600080600060a08688031215613d9a578081fd5b8535613da58161438b565b94506020860135613db58161438b565b93506040860135613dc58161438b565b94979396509394606081013594506080013592915050565b600080600060608486031215613df1578081fd5b8335613dfc8161438b565b9250602084013591506040840135613e138161438b565b809150509250925092565b60008060008060808587031215613e33578182fd5b8435613e3e8161438b565b935060208501359250604085013591506060850135613e5c8161438b565b939692955090935050565b600080600080600060a08688031215613e7e578283fd5b8535613e898161438b565b945060208681013594506040870135935060608701356001600160401b03811115613eb2578283fd5b8701601f81018913613ec2578283fd5b8035613ed0613bb282614299565b8082825284820191508484018c868560051b8701011115613eef578687fd5b8694505b83851015613f11578035835260019490940193918501918501613ef3565b50989b979a509598608001359695505050505050565b600080600080600060a08688031215613f3e578283fd5b8535613f498161438b565b94506020860135935060408601359250606086013591506080860135613f6e8161438b565b809150509295509295909350565b600080600080600060a08688031215613f93578283fd5b8535613f9e8161438b565b97602087013597506040870135966060810135965060800135945092505050565b600060208284031215613fd0578081fd5b8151613d7c8161438b565b600060208284031215613fec578081fd5b81516001600160401b0380821115614002578283fd5b908301906101608286031215614016578283fd5b61401e614240565b61402783613b82565b815260208301518281111561403a578485fd5b61404687828601613b92565b60208301525061405860408401613b82565b6040820152606083015160608201526080830151608082015260a083015160a082015260c083015160c082015260e083015160e082015261010080840151818301525061012080840151838111156140ae578586fd5b6140ba88828701613bfd565b82840152505061014091506140d0828401613c5a565b91810191909152949350505050565b6000602082840312156140f0578081fd5b5051919050565b60008060408385031215614109578182fd5b505080516020909101519092909150565b6000815180845260208085019450808401835b838110156141495781518752958201959082019060010161412d565b509495945050505050565b6001600160a01b039384168152919092166020820152604081019190915260600190565b60018060a01b0385168152836020820152826040820152608060608201526000613b78608083018461411a565b6001600160a01b03929092168252602082015260400190565b602081526000613d7c602083018461411a565b60208082526018908201527f506f6f6c206e6565647320746f20626520637265617465640000000000000000604082015260600190565b828152604060208201526000613a58604083018461411a565b92835260208301919091526001600160a01b0316604082015260600190565b60405161016081016001600160401b038111828210171561426357614263614375565b60405290565b604051601f8201601f191681016001600160401b038111828210171561429157614291614375565b604052919050565b60006001600160401b038211156142b2576142b2614375565b5060051b60200190565b600082198211156142cf576142cf61435f565b500190565b6000826142ef57634e487b7160e01b81526012600452602481fd5b500490565b600081600019048311821515161561430e5761430e61435f565b500290565b6000828210156143255761432561435f565b500390565b600060001982141561433e5761433e61435f565b5060010190565b6000600160ff1b82141561435b5761435b61435f565b0390565b634e487b7160e01b600052601160045260246000fd5b634e487b7160e01b600052604160045260246000fd5b6001600160a01b03811681146143a057600080fd5b5056fea2646970667358221220c0db876ca34241a72339bde8f2bc6d0e7a9ca7675c9a9566fe99faebd822a64064736f6c63430008040033",
  "devdoc": {
    "kind": "dev",
    "methods": {},
    "version": 1
  },
  "userdoc": {
    "kind": "user",
    "methods": {},
    "version": 1
  },
  "storageLayout": {
    "storage": [
      {
        "astId": 30252,
        "contract": "contracts/turbo/AMMFactory.sol:AMMFactory",
        "label": "bFactory",
        "offset": 0,
        "slot": "0",
        "type": "t_contract(BFactory)7681"
      },
      {
        "astId": 30259,
        "contract": "contracts/turbo/AMMFactory.sol:AMMFactory",
        "label": "pools",
        "offset": 0,
        "slot": "1",
        "type": "t_mapping(t_address,t_mapping(t_uint256,t_contract(BPool)11030))"
      },
      {
        "astId": 30261,
        "contract": "contracts/turbo/AMMFactory.sol:AMMFactory",
        "label": "fee",
        "offset": 0,
        "slot": "2",
        "type": "t_uint256"
      }
    ],
    "types": {
      "t_address": {
        "encoding": "inplace",
        "label": "address",
        "numberOfBytes": "20"
      },
      "t_contract(BFactory)7681": {
        "encoding": "inplace",
        "label": "contract BFactory",
        "numberOfBytes": "20"
      },
      "t_contract(BPool)11030": {
        "encoding": "inplace",
        "label": "contract BPool",
        "numberOfBytes": "20"
      },
      "t_mapping(t_address,t_mapping(t_uint256,t_contract(BPool)11030))": {
        "encoding": "mapping",
        "key": "t_address",
        "label": "mapping(address => mapping(uint256 => contract BPool))",
        "numberOfBytes": "32",
        "value": "t_mapping(t_uint256,t_contract(BPool)11030)"
      },
      "t_mapping(t_uint256,t_contract(BPool)11030)": {
        "encoding": "mapping",
        "key": "t_uint256",
        "label": "mapping(uint256 => contract BPool)",
        "numberOfBytes": "32",
        "value": "t_contract(BPool)11030"
      },
      "t_uint256": {
        "encoding": "inplace",
        "label": "uint256",
        "numberOfBytes": "32"
      }
    }
  }
}