{
  "address": "0xd0780FD29f17cF568f45d26d4F71f66ed747e605",
  "abi": [
    {
      "inputs": [
        {
          "internalType": "contract IERC20Full",
          "name": "_collateral",
          "type": "address"
        },
        {
          "internalType": "contract IERC20Full",
          "name": "_reputationToken",
          "type": "address"
        }
      ],
      "stateMutability": "nonpayable",
      "type": "constructor"
    },
    {
      "anonymous": false,
      "inputs": [
        {
          "indexed": true,
          "internalType": "address",
          "name": "owner",
          "type": "address"
        },
        {
          "indexed": true,
          "internalType": "address",
          "name": "spender",
          "type": "address"
        },
        {
          "indexed": false,
          "internalType": "uint256",
          "name": "value",
          "type": "uint256"
        }
      ],
      "name": "Approval",
      "type": "event"
    },
    {
      "anonymous": false,
      "inputs": [
        {
          "indexed": true,
          "internalType": "address",
          "name": "from",
          "type": "address"
        },
        {
          "indexed": true,
          "internalType": "address",
          "name": "to",
          "type": "address"
        },
        {
          "indexed": false,
          "internalType": "uint256",
          "name": "value",
          "type": "uint256"
        }
      ],
      "name": "Transfer",
      "type": "event"
    },
    {
      "inputs": [
        {
          "internalType": "address",
          "name": "owner",
          "type": "address"
        },
        {
          "internalType": "address",
          "name": "spender",
          "type": "address"
        }
      ],
      "name": "allowance",
      "outputs": [
        {
          "internalType": "uint256",
          "name": "",
          "type": "uint256"
        }
      ],
      "stateMutability": "view",
      "type": "function"
    },
    {
      "inputs": [
        {
          "internalType": "address",
          "name": "spender",
          "type": "address"
        },
        {
          "internalType": "uint256",
          "name": "amount",
          "type": "uint256"
        }
      ],
      "name": "approve",
      "outputs": [
        {
          "internalType": "bool",
          "name": "",
          "type": "bool"
        }
      ],
      "stateMutability": "nonpayable",
      "type": "function"
    },
    {
      "inputs": [
        {
          "internalType": "address",
          "name": "account",
          "type": "address"
        }
      ],
      "name": "balanceOf",
      "outputs": [
        {
          "internalType": "uint256",
          "name": "",
          "type": "uint256"
        }
      ],
      "stateMutability": "view",
      "type": "function"
    },
    {
      "inputs": [],
      "name": "collateral",
      "outputs": [
        {
          "internalType": "contract IERC20Full",
          "name": "",
          "type": "address"
        }
      ],
      "stateMutability": "view",
      "type": "function"
    },
    {
      "inputs": [],
      "name": "decimals",
      "outputs": [
        {
          "internalType": "uint8",
          "name": "",
          "type": "uint8"
        }
      ],
      "stateMutability": "view",
      "type": "function"
    },
    {
      "inputs": [
        {
          "internalType": "address",
          "name": "spender",
          "type": "address"
        },
        {
          "internalType": "uint256",
          "name": "subtractedValue",
          "type": "uint256"
        }
      ],
      "name": "decreaseAllowance",
      "outputs": [
        {
          "internalType": "bool",
          "name": "",
          "type": "bool"
        }
      ],
      "stateMutability": "nonpayable",
      "type": "function"
    },
    {
      "inputs": [
        {
          "internalType": "uint256",
          "name": "_amount",
          "type": "uint256"
        }
      ],
      "name": "depositFees",
      "outputs": [
        {
          "internalType": "bool",
          "name": "",
          "type": "bool"
        }
      ],
      "stateMutability": "nonpayable",
      "type": "function"
    },
    {
      "inputs": [
        {
          "internalType": "address",
          "name": "_owner",
          "type": "address"
        }
      ],
      "name": "earnedFeesOf",
      "outputs": [
        {
          "internalType": "uint256",
          "name": "",
          "type": "uint256"
        }
      ],
      "stateMutability": "view",
      "type": "function"
    },
    {
      "inputs": [
        {
          "internalType": "uint256",
          "name": "_amount",
          "type": "uint256"
        }
      ],
      "name": "exit",
      "outputs": [
        {
          "internalType": "bool",
          "name": "",
          "type": "bool"
        }
      ],
      "stateMutability": "nonpayable",
      "type": "function"
    },
    {
      "inputs": [],
      "name": "feeReserve",
      "outputs": [
        {
          "internalType": "uint256",
          "name": "",
          "type": "uint256"
        }
      ],
      "stateMutability": "view",
      "type": "function"
    },
    {
      "inputs": [
        {
          "internalType": "address",
          "name": "spender",
          "type": "address"
        },
        {
          "internalType": "uint256",
          "name": "addedValue",
          "type": "uint256"
        }
      ],
      "name": "increaseAllowance",
      "outputs": [
        {
          "internalType": "bool",
          "name": "",
          "type": "bool"
        }
      ],
      "stateMutability": "nonpayable",
      "type": "function"
    },
    {
      "inputs": [
        {
          "internalType": "address",
          "name": "",
          "type": "address"
        }
      ],
      "name": "magnifiedFeesCorrections",
      "outputs": [
        {
          "internalType": "uint256",
          "name": "",
          "type": "uint256"
        }
      ],
      "stateMutability": "view",
      "type": "function"
    },
    {
      "inputs": [],
      "name": "magnifiedFeesPerShare",
      "outputs": [
        {
          "internalType": "uint256",
          "name": "",
          "type": "uint256"
        }
      ],
      "stateMutability": "view",
      "type": "function"
    },
    {
      "inputs": [],
      "name": "name",
      "outputs": [
        {
          "internalType": "string",
          "name": "",
          "type": "string"
        }
      ],
      "stateMutability": "view",
      "type": "function"
    },
    {
      "inputs": [],
      "name": "redeem",
      "outputs": [
        {
          "internalType": "bool",
          "name": "",
          "type": "bool"
        }
      ],
      "stateMutability": "nonpayable",
      "type": "function"
    },
    {
      "inputs": [],
      "name": "reputationToken",
      "outputs": [
        {
          "internalType": "contract IERC20Full",
          "name": "",
          "type": "address"
        }
      ],
      "stateMutability": "view",
      "type": "function"
    },
    {
      "inputs": [
        {
          "internalType": "uint256",
          "name": "_amount",
          "type": "uint256"
        }
      ],
      "name": "stake",
      "outputs": [
        {
          "internalType": "bool",
          "name": "",
          "type": "bool"
        }
      ],
      "stateMutability": "nonpayable",
      "type": "function"
    },
    {
      "inputs": [
        {
          "internalType": "address",
          "name": "",
          "type": "address"
        }
      ],
      "name": "storedFees",
      "outputs": [
        {
          "internalType": "uint256",
          "name": "",
          "type": "uint256"
        }
      ],
      "stateMutability": "view",
      "type": "function"
    },
    {
      "inputs": [],
      "name": "symbol",
      "outputs": [
        {
          "internalType": "string",
          "name": "",
          "type": "string"
        }
      ],
      "stateMutability": "view",
      "type": "function"
    },
    {
      "inputs": [],
      "name": "totalSupply",
      "outputs": [
        {
          "internalType": "uint256",
          "name": "",
          "type": "uint256"
        }
      ],
      "stateMutability": "view",
      "type": "function"
    },
    {
      "inputs": [
        {
          "internalType": "address",
          "name": "to",
          "type": "address"
        },
        {
          "internalType": "uint256",
          "name": "amount",
          "type": "uint256"
        }
      ],
      "name": "transfer",
      "outputs": [
        {
          "internalType": "bool",
          "name": "",
          "type": "bool"
        }
      ],
      "stateMutability": "nonpayable",
      "type": "function"
    },
    {
      "inputs": [
        {
          "internalType": "address",
          "name": "from",
          "type": "address"
        },
        {
          "internalType": "address",
          "name": "to",
          "type": "address"
        },
        {
          "internalType": "uint256",
          "name": "amount",
          "type": "uint256"
        }
      ],
      "name": "transferFrom",
      "outputs": [
        {
          "internalType": "bool",
          "name": "",
          "type": "bool"
        }
      ],
      "stateMutability": "nonpayable",
      "type": "function"
    },
    {
      "inputs": [
        {
          "internalType": "address",
          "name": "_owner",
          "type": "address"
        }
      ],
      "name": "withdrawableFeesOf",
      "outputs": [
        {
          "internalType": "uint256",
          "name": "",
          "type": "uint256"
        }
      ],
      "stateMutability": "view",
      "type": "function"
    }
  ],
  "transactionHash": "0xa69cf1d2f58b4c3b180a15fbdd860ca5fdc463bc1be4ac2682a019298649fbe7",
  "args": [
    "0x5799bFe361BEea69f808328FF4884DF92f1f66f0",
    "0x1A921b8a13372Cc81A415d02627756b5418a71c9"
  ],
  "solcInputHash": "bcb06b8b228bc6167eb9eeb2cf5701fd",
  "bytecode": "0x60806040523480156200001157600080fd5b5060405162001be638038062001be683398101604081905262000034916200029d565b806001600160a01b03166395d89b416040518163ffffffff1660e01b815260040160006040518083038186803b1580156200006e57600080fd5b505afa15801562000083573d6000803e3d6000fd5b505050506040513d6000823e601f3d908101601f19168201604052620000ad9190810190620002d4565b604051602001620000bf919062000388565b604051602081830303815290604052816001600160a01b03166395d89b416040518163ffffffff1660e01b815260040160006040518083038186803b1580156200010857600080fd5b505afa1580156200011d573d6000803e3d6000fd5b505050506040513d6000823e601f3d908101601f19168201604052620001479190810190620002d4565b60405160200162000159919062000388565b60408051601f1981840301815291905281516200017e906003906020850190620001da565b50805162000194906004906020840190620001da565b5050600580546001600160a01b038086166001600160a01b03199283168117909355600680549186169190921617905515159050620001d257600080fd5b50506200043a565b828054620001e890620003e7565b90600052602060002090601f0160209004810192826200020c576000855562000257565b82601f106200022757805160ff191683800117855562000257565b8280016001018555821562000257579182015b82811115620002575782518255916020019190600101906200023a565b506200026592915062000269565b5090565b5b808211156200026557600081556001016200026a565b80516001600160a01b03811681146200029857600080fd5b919050565b60008060408385031215620002b0578182fd5b620002bb8362000280565b9150620002cb6020840162000280565b90509250929050565b600060208284031215620002e6578081fd5b81516001600160401b0380821115620002fd578283fd5b818401915084601f83011262000311578283fd5b81518181111562000326576200032662000424565b604051601f8201601f19908116603f0116810190838211818310171562000351576200035162000424565b816040528281528760208487010111156200036a578586fd5b6200037d836020830160208801620003b4565b979650505050505050565b61535f60f01b815260008251620003a7816002850160208701620003b4565b9190910160020192915050565b60005b83811015620003d1578181015183820152602001620003b7565b83811115620003e1576000848401525b50505050565b600181811c90821680620003fc57607f821691505b602082108114156200041e57634e487b7160e01b600052602260045260246000fd5b50919050565b634e487b7160e01b600052604160045260246000fd5b61179c806200044a6000396000f3fe608060405234801561001057600080fd5b506004361061018d5760003560e01c8063789ff0e1116100e3578063a9059cbb1161008c578063d8dfeb4511610066578063d8dfeb451461036d578063dd62ed3e1461038d578063ebdac090146103d357600080fd5b8063a9059cbb1461033f578063be040fb014610352578063d083a7a91461035a57600080fd5b806395d89b41116100bd57806395d89b4114610311578063a457c2d714610319578063a694fc3a1461032c57600080fd5b8063789ff0e1146102e25780637f8661a1146102eb57806382005d86146102fe57600080fd5b8063275bbe9b11610145578063395093511161011f578063395093511461027957806349d2a4e61461028c57806370a08231146102ac57600080fd5b8063275bbe9b1461021c578063313ce56714610261578063341d302f1461027057600080fd5b8063125c120411610176578063125c1204146101d357806318160ddd1461020157806323b872dd1461020957600080fd5b806306fdde0314610192578063095ea7b3146101b0575b600080fd5b61019a6103e6565b6040516101a791906115cd565b60405180910390f35b6101c36101be36600461156c565b610478565b60405190151581526020016101a7565b6101f36101e13660046114e5565b60096020526000908152604090205481565b6040519081526020016101a7565b6002546101f3565b6101c3610217366004611531565b610490565b60065461023c9073ffffffffffffffffffffffffffffffffffffffff1681565b60405173ffffffffffffffffffffffffffffffffffffffff90911681526020016101a7565b604051601281526020016101a7565b6101f360075481565b6101c361028736600461156c565b6104b4565b6101f361029a3660046114e5565b60086020526000908152604090205481565b6101f36102ba3660046114e5565b73ffffffffffffffffffffffffffffffffffffffff1660009081526020819052604090205490565b6101f3600a5481565b6101c36102f93660046115b5565b610500565b6101f361030c3660046114e5565b6105f6565b61019a610635565b6101c361032736600461156c565b610644565b6101c361033a3660046115b5565b61071a565b6101c361034d36600461156c565b6107fd565b6101c361080b565b6101f36103683660046114e5565b610845565b60055461023c9073ffffffffffffffffffffffffffffffffffffffff1681565b6101f361039b3660046114ff565b73ffffffffffffffffffffffffffffffffffffffff918216600090815260016020908152604080832093909416825291909152205490565b6101c36103e13660046115b5565b6108d3565b6060600380546103f5906116e3565b80601f0160208091040260200160405190810160405280929190818152602001828054610421906116e3565b801561046e5780601f106104435761010080835404028352916020019161046e565b820191906000526020600020905b81548152906001019060200180831161045157829003601f168201915b5050505050905090565b600033610486818585610a0c565b5060019392505050565b60003361049e858285610bbf565b6104a9858585610c96565b506001949350505050565b33600081815260016020908152604080832073ffffffffffffffffffffffffffffffffffffffff8716845290915281205490919061048690829086906104fb90879061163e565b610a0c565b600061050b33610dbf565b6105153383610e99565b6006546040517fa9059cbb0000000000000000000000000000000000000000000000000000000081523360048201526024810184905273ffffffffffffffffffffffffffffffffffffffff9091169063a9059cbb90604401602060405180830381600087803b15801561058757600080fd5b505af115801561059b573d6000803e3d6000fd5b505050506040513d601f19601f820116820180604052508101906105bf9190611595565b50336000908152602081905260409020546105de905b60075490611099565b33600090815260086020526040902055506001919050565b73ffffffffffffffffffffffffffffffffffffffff811660009081526009602052604081205461062f9061062984610845565b906110ac565b92915050565b6060600480546103f5906116e3565b33600081815260016020908152604080832073ffffffffffffffffffffffffffffffffffffffff871684529091528120549091908381101561070d576040517f08c379a000000000000000000000000000000000000000000000000000000000815260206004820152602560248201527f45524332303a2064656372656173656420616c6c6f77616e63652062656c6f7760448201527f207a65726f00000000000000000000000000000000000000000000000000000060648201526084015b60405180910390fd5b6104a98286868403610a0c565b6006546040517f23b872dd0000000000000000000000000000000000000000000000000000000081523360048201523060248201526044810183905260009173ffffffffffffffffffffffffffffffffffffffff16906323b872dd90606401602060405180830381600087803b15801561079357600080fd5b505af11580156107a7573d6000803e3d6000fd5b505050506040513d601f19601f820116820180604052508101906107cb9190611595565b506107d633836110b8565b6007546105de906107e79084611099565b33600090815260086020526040902054906110ac565b600033610486818585610c96565b600061081633610dbf565b3360009081526020819052604090205461082f906105d5565b3360009081526008602052604090205550600190565b73ffffffffffffffffffffffffffffffffffffffff8116600090815260208190526040812054600754829061087a9083611099565b73ffffffffffffffffffffffffffffffffffffffff8516600090815260086020526040902054909150700100000000000000000000000000000000906108c19083906111ec565b6108cb9190611656565b949350505050565b6005546040517f23b872dd0000000000000000000000000000000000000000000000000000000081523360048201523060248201526044810183905260009173ffffffffffffffffffffffffffffffffffffffff16906323b872dd90606401602060405180830381600087803b15801561094c57600080fd5b505af1158015610960573d6000803e3d6000fd5b505050506040513d601f19601f820116820180604052508101906109849190611595565b50600061099060025490565b9050806109b057600a546109a490846110ac565b600a5550600192915050565b600a54156109ce57600a546109c69084906110ac565b6000600a5592505b610a00816109ed85700100000000000000000000000000000000611099565b6109f79190611656565b600754906110ac565b60075550600192915050565b73ffffffffffffffffffffffffffffffffffffffff8316610aae576040517f08c379a0000000000000000000000000000000000000000000000000000000008152602060048201526024808201527f45524332303a20617070726f76652066726f6d20746865207a65726f2061646460448201527f72657373000000000000000000000000000000000000000000000000000000006064820152608401610704565b73ffffffffffffffffffffffffffffffffffffffff8216610b51576040517f08c379a000000000000000000000000000000000000000000000000000000000815260206004820152602260248201527f45524332303a20617070726f766520746f20746865207a65726f20616464726560448201527f73730000000000000000000000000000000000000000000000000000000000006064820152608401610704565b73ffffffffffffffffffffffffffffffffffffffff83811660008181526001602090815260408083209487168084529482529182902085905590518481527f8c5be1e5ebec7d5bd14f71427d1e84f3dd0314c0f7b2291e5b200ac8c7c3b925910160405180910390a3505050565b73ffffffffffffffffffffffffffffffffffffffff8381166000908152600160209081526040808320938616835292905220547fffffffffffffffffffffffffffffffffffffffffffffffffffffffffffffffff8114610c905781811015610c83576040517f08c379a000000000000000000000000000000000000000000000000000000000815260206004820152601d60248201527f45524332303a20696e73756666696369656e7420616c6c6f77616e63650000006044820152606401610704565b610c908484848403610a0c565b50505050565b610cce610ca284610845565b73ffffffffffffffffffffffffffffffffffffffff8516600090815260096020526040902054906110ac565b73ffffffffffffffffffffffffffffffffffffffff8416600090815260096020526040902055610cff8383836111f8565b610d2e6105d58473ffffffffffffffffffffffffffffffffffffffff1660009081526020819052604090205490565b73ffffffffffffffffffffffffffffffffffffffff8416600090815260086020526040902055600754610d9190610d659083611099565b73ffffffffffffffffffffffffffffffffffffffff8416600090815260086020526040902054906110ac565b73ffffffffffffffffffffffffffffffffffffffff9092166000908152600860205260409020919091555050565b6000610dca826105f6565b90508015610e955773ffffffffffffffffffffffffffffffffffffffff8281166000818152600960205260408082209190915560055490517fa9059cbb0000000000000000000000000000000000000000000000000000000081526004810192909252602482018490529091169063a9059cbb90604401602060405180830381600087803b158015610e5b57600080fd5b505af1158015610e6f573d6000803e3d6000fd5b505050506040513d601f19601f82011682018060405250810190610e939190611595565b505b5050565b73ffffffffffffffffffffffffffffffffffffffff8216610f3c576040517f08c379a000000000000000000000000000000000000000000000000000000000815260206004820152602160248201527f45524332303a206275726e2066726f6d20746865207a65726f2061646472657360448201527f73000000000000000000000000000000000000000000000000000000000000006064820152608401610704565b610f4882600083610e93565b73ffffffffffffffffffffffffffffffffffffffff821660009081526020819052604090205481811015610ffe576040517f08c379a000000000000000000000000000000000000000000000000000000000815260206004820152602260248201527f45524332303a206275726e20616d6f756e7420657863656564732062616c616e60448201527f63650000000000000000000000000000000000000000000000000000000000006064820152608401610704565b73ffffffffffffffffffffffffffffffffffffffff8316600090815260208190526040812083830390556002805484929061103a9084906116cc565b909155505060405182815260009073ffffffffffffffffffffffffffffffffffffffff8516907fddf252ad1be2c89b69c2b068fc378daa952ba7f163c4a11628f55a4df523b3ef9060200160405180910390a3610e9383600084610e93565b60006110a5828461168f565b9392505050565b60006110a5828461163e565b73ffffffffffffffffffffffffffffffffffffffff8216611135576040517f08c379a000000000000000000000000000000000000000000000000000000000815260206004820152601f60248201527f45524332303a206d696e7420746f20746865207a65726f2061646472657373006044820152606401610704565b61114160008383610e93565b8060026000828254611153919061163e565b909155505073ffffffffffffffffffffffffffffffffffffffff82166000908152602081905260408120805483929061118d90849061163e565b909155505060405181815273ffffffffffffffffffffffffffffffffffffffff8316906000907fddf252ad1be2c89b69c2b068fc378daa952ba7f163c4a11628f55a4df523b3ef9060200160405180910390a3610e9560008383610e93565b60006110a582846116cc565b73ffffffffffffffffffffffffffffffffffffffff831661129b576040517f08c379a000000000000000000000000000000000000000000000000000000000815260206004820152602560248201527f45524332303a207472616e736665722066726f6d20746865207a65726f20616460448201527f64726573730000000000000000000000000000000000000000000000000000006064820152608401610704565b73ffffffffffffffffffffffffffffffffffffffff821661133e576040517f08c379a000000000000000000000000000000000000000000000000000000000815260206004820152602360248201527f45524332303a207472616e7366657220746f20746865207a65726f206164647260448201527f65737300000000000000000000000000000000000000000000000000000000006064820152608401610704565b611349838383610e93565b73ffffffffffffffffffffffffffffffffffffffff8316600090815260208190526040902054818110156113ff576040517f08c379a000000000000000000000000000000000000000000000000000000000815260206004820152602660248201527f45524332303a207472616e7366657220616d6f756e742065786365656473206260448201527f616c616e636500000000000000000000000000000000000000000000000000006064820152608401610704565b73ffffffffffffffffffffffffffffffffffffffff80851660009081526020819052604080822085850390559185168152908120805484929061144390849061163e565b925050819055508273ffffffffffffffffffffffffffffffffffffffff168473ffffffffffffffffffffffffffffffffffffffff167fddf252ad1be2c89b69c2b068fc378daa952ba7f163c4a11628f55a4df523b3ef846040516114a991815260200190565b60405180910390a3610c90848484610e93565b803573ffffffffffffffffffffffffffffffffffffffff811681146114e057600080fd5b919050565b6000602082840312156114f6578081fd5b6110a5826114bc565b60008060408385031215611511578081fd5b61151a836114bc565b9150611528602084016114bc565b90509250929050565b600080600060608486031215611545578081fd5b61154e846114bc565b925061155c602085016114bc565b9150604084013590509250925092565b6000806040838503121561157e578182fd5b611587836114bc565b946020939093013593505050565b6000602082840312156115a6578081fd5b815180151581146110a5578182fd5b6000602082840312156115c6578081fd5b5035919050565b6000602080835283518082850152825b818110156115f9578581018301518582016040015282016115dd565b8181111561160a5783604083870101525b50601f017fffffffffffffffffffffffffffffffffffffffffffffffffffffffffffffffe016929092016040019392505050565b6000821982111561165157611651611737565b500190565b60008261168a577f4e487b710000000000000000000000000000000000000000000000000000000081526012600452602481fd5b500490565b6000817fffffffffffffffffffffffffffffffffffffffffffffffffffffffffffffffff04831182151516156116c7576116c7611737565b500290565b6000828210156116de576116de611737565b500390565b600181811c908216806116f757607f821691505b60208210811415611731577f4e487b7100000000000000000000000000000000000000000000000000000000600052602260045260246000fd5b50919050565b7f4e487b7100000000000000000000000000000000000000000000000000000000600052601160045260246000fdfea26469706673582212207fe8f4623f0d5ab47a1fe2dfd73e6ba797f89c9931434e993f65d1d1171d32c664736f6c63430008040033",
  "devdoc": {
    "kind": "dev",
    "methods": {
      "allowance(address,address)": {
        "details": "See {IERC20-allowance}."
      },
      "approve(address,uint256)": {
        "details": "See {IERC20-approve}. NOTE: If `amount` is the maximum `uint256`, the allowance is not updated on `transferFrom`. This is semantically equivalent to an infinite approval. Requirements: - `spender` cannot be the zero address."
      },
      "balanceOf(address)": {
        "details": "See {IERC20-balanceOf}."
      },
      "decimals()": {
        "details": "Returns the number of decimals used to get its user representation. For example, if `decimals` equals `2`, a balance of `505` tokens should be displayed to a user as `5.05` (`505 / 10 ** 2`). Tokens usually opt for a value of 18, imitating the relationship between Ether and Wei. This is the value {ERC20} uses, unless this function is overridden; NOTE: This information is only used for _display_ purposes: it in no way affects any of the arithmetic of the contract, including {IERC20-balanceOf} and {IERC20-transfer}."
      },
      "decreaseAllowance(address,uint256)": {
        "details": "Atomically decreases the allowance granted to `spender` by the caller. This is an alternative to {approve} that can be used as a mitigation for problems described in {IERC20-approve}. Emits an {Approval} event indicating the updated allowance. Requirements: - `spender` cannot be the zero address. - `spender` must have allowance for the caller of at least `subtractedValue`."
      },
      "increaseAllowance(address,uint256)": {
        "details": "Atomically increases the allowance granted to `spender` by the caller. This is an alternative to {approve} that can be used as a mitigation for problems described in {IERC20-approve}. Emits an {Approval} event indicating the updated allowance. Requirements: - `spender` cannot be the zero address."
      },
      "name()": {
        "details": "Returns the name of the token."
      },
      "symbol()": {
        "details": "Returns the symbol of the token, usually a shorter version of the name."
      },
      "totalSupply()": {
        "details": "See {IERC20-totalSupply}."
      },
      "transfer(address,uint256)": {
        "details": "See {IERC20-transfer}. Requirements: - `to` cannot be the zero address. - the caller must have a balance of at least `amount`."
      },
      "transferFrom(address,address,uint256)": {
        "details": "See {IERC20-transferFrom}. Emits an {Approval} event indicating the updated allowance. This is not required by the EIP. See the note at the beginning of {ERC20}. NOTE: Does not update the allowance if the current allowance is the maximum `uint256`. Requirements: - `from` and `to` cannot be the zero address. - `from` must have a balance of at least `amount`. - the caller must have allowance for ``from``'s tokens of at least `amount`."
      }
    },
    "version": 1
  },
  "userdoc": {
    "kind": "user",
    "methods": {},
    "version": 1
  },
  "storageLayout": {
    "storage": [
      {
        "astId": 128,
        "contract": "contracts/turbo/FeePot.sol:FeePot",
        "label": "_balances",
        "offset": 0,
        "slot": "0",
        "type": "t_mapping(t_address,t_uint256)"
      },
      {
        "astId": 134,
        "contract": "contracts/turbo/FeePot.sol:FeePot",
        "label": "_allowances",
        "offset": 0,
        "slot": "1",
        "type": "t_mapping(t_address,t_mapping(t_address,t_uint256))"
      },
      {
        "astId": 136,
        "contract": "contracts/turbo/FeePot.sol:FeePot",
        "label": "_totalSupply",
        "offset": 0,
        "slot": "2",
        "type": "t_uint256"
      },
      {
        "astId": 138,
        "contract": "contracts/turbo/FeePot.sol:FeePot",
        "label": "_name",
        "offset": 0,
        "slot": "3",
        "type": "t_string_storage"
      },
      {
        "astId": 140,
        "contract": "contracts/turbo/FeePot.sol:FeePot",
        "label": "_symbol",
        "offset": 0,
        "slot": "4",
        "type": "t_string_storage"
      },
      {
        "astId": 24865,
        "contract": "contracts/turbo/FeePot.sol:FeePot",
        "label": "collateral",
        "offset": 0,
        "slot": "5",
        "type": "t_contract(IERC20Full)10200"
      },
      {
        "astId": 24868,
        "contract": "contracts/turbo/FeePot.sol:FeePot",
        "label": "reputationToken",
        "offset": 0,
        "slot": "6",
        "type": "t_contract(IERC20Full)10200"
      },
      {
        "astId": 24870,
        "contract": "contracts/turbo/FeePot.sol:FeePot",
        "label": "magnifiedFeesPerShare",
        "offset": 0,
        "slot": "7",
        "type": "t_uint256"
      },
      {
        "astId": 24874,
        "contract": "contracts/turbo/FeePot.sol:FeePot",
        "label": "magnifiedFeesCorrections",
        "offset": 0,
        "slot": "8",
        "type": "t_mapping(t_address,t_uint256)"
      },
      {
        "astId": 24878,
        "contract": "contracts/turbo/FeePot.sol:FeePot",
        "label": "storedFees",
        "offset": 0,
        "slot": "9",
        "type": "t_mapping(t_address,t_uint256)"
      },
      {
        "astId": 24880,
        "contract": "contracts/turbo/FeePot.sol:FeePot",
        "label": "feeReserve",
        "offset": 0,
        "slot": "10",
        "type": "t_uint256"
      }
    ],
    "types": {
      "t_address": {
        "encoding": "inplace",
        "label": "address",
        "numberOfBytes": "20"
      },
      "t_contract(IERC20Full)10200": {
        "encoding": "inplace",
        "label": "contract IERC20Full",
        "numberOfBytes": "20"
      },
      "t_mapping(t_address,t_mapping(t_address,t_uint256))": {
        "encoding": "mapping",
        "key": "t_address",
        "label": "mapping(address => mapping(address => uint256))",
        "numberOfBytes": "32",
        "value": "t_mapping(t_address,t_uint256)"
      },
      "t_mapping(t_address,t_uint256)": {
        "encoding": "mapping",
        "key": "t_address",
        "label": "mapping(address => uint256)",
        "numberOfBytes": "32",
        "value": "t_uint256"
      },
      "t_string_storage": {
        "encoding": "bytes",
        "label": "string",
        "numberOfBytes": "32"
      },
      "t_uint256": {
        "encoding": "inplace",
        "label": "uint256",
        "numberOfBytes": "32"
      }
    }
  }
}