{
  "address": "0xA764F06eadEAEce5AC8B124F0508B7e6d2e3a8f7",
  "abi": [
    {
      "inputs": [
        {
          "internalType": "address",
          "name": "collateral_address_",
          "type": "address"
        }
      ],
      "stateMutability": "nonpayable",
      "type": "constructor"
    },
    {
      "anonymous": false,
      "inputs": [
        {
          "indexed": true,
          "internalType": "address",
          "name": "owner",
          "type": "address"
        },
        {
          "indexed": true,
          "internalType": "address",
          "name": "approved",
          "type": "address"
        },
        {
          "indexed": true,
          "internalType": "uint256",
          "name": "tokenId",
          "type": "uint256"
        }
      ],
      "name": "Approval",
      "type": "event"
    },
    {
      "anonymous": false,
      "inputs": [
        {
          "indexed": true,
          "internalType": "address",
          "name": "owner",
          "type": "address"
        },
        {
          "indexed": true,
          "internalType": "address",
          "name": "operator",
          "type": "address"
        },
        {
          "indexed": false,
          "internalType": "bool",
          "name": "approved",
          "type": "bool"
        }
      ],
      "name": "ApprovalForAll",
      "type": "event"
    },
    {
      "anonymous": false,
      "inputs": [
        {
          "indexed": true,
          "internalType": "address",
          "name": "from",
          "type": "address"
        },
        {
          "indexed": true,
          "internalType": "address",
          "name": "to",
          "type": "address"
        },
        {
          "indexed": true,
          "internalType": "uint256",
          "name": "tokenId",
          "type": "uint256"
        }
      ],
      "name": "Transfer",
      "type": "event"
    },
    {
      "inputs": [],
      "name": "DOMAIN_SEPARATOR",
      "outputs": [
        {
          "internalType": "bytes32",
          "name": "seperator",
          "type": "bytes32"
        }
      ],
      "stateMutability": "view",
      "type": "function"
    },
    {
      "inputs": [],
      "name": "MAX_LOCK_DURATION",
      "outputs": [
        {
          "internalType": "uint256",
          "name": "",
          "type": "uint256"
        }
      ],
      "stateMutability": "view",
      "type": "function"
    },
    {
      "inputs": [],
      "name": "PERMIT_TYPEHASH",
      "outputs": [
        {
          "internalType": "bytes32",
          "name": "typehash",
          "type": "bytes32"
        }
      ],
      "stateMutability": "pure",
      "type": "function"
    },
    {
      "inputs": [],
      "name": "_baseURI_",
      "outputs": [
        {
          "internalType": "string",
          "name": "",
          "type": "string"
        }
      ],
      "stateMutability": "view",
      "type": "function"
    },
    {
      "inputs": [
        {
          "internalType": "address",
          "name": "to",
          "type": "address"
        },
        {
          "internalType": "uint256",
          "name": "tokenId",
          "type": "uint256"
        }
      ],
      "name": "approve",
      "outputs": [],
      "stateMutability": "nonpayable",
      "type": "function"
    },
    {
      "inputs": [
        {
          "internalType": "address",
          "name": "owner",
          "type": "address"
        }
      ],
      "name": "balanceOf",
      "outputs": [
        {
          "internalType": "uint256",
          "name": "",
          "type": "uint256"
        }
      ],
      "stateMutability": "view",
      "type": "function"
    },
    {
      "inputs": [],
      "name": "baseURI",
      "outputs": [
        {
          "internalType": "string",
          "name": "",
          "type": "string"
        }
      ],
      "stateMutability": "view",
      "type": "function"
    },
    {
      "inputs": [
        {
          "internalType": "address",
          "name": "recipient",
          "type": "address"
        },
        {
          "internalType": "uint256",
          "name": "amount",
          "type": "uint256"
        },
        {
          "internalType": "uint256",
          "name": "end",
          "type": "uint256"
        }
      ],
      "name": "createLock",
      "outputs": [
        {
          "internalType": "uint256",
          "name": "iDSLockID",
          "type": "uint256"
        }
      ],
      "stateMutability": "nonpayable",
      "type": "function"
    },
    {
      "inputs": [
        {
          "internalType": "uint256",
          "name": "tokenID",
          "type": "uint256"
        }
      ],
      "name": "exists",
      "outputs": [
        {
          "internalType": "bool",
          "name": "status",
          "type": "bool"
        }
      ],
      "stateMutability": "view",
      "type": "function"
    },
    {
      "inputs": [
        {
          "internalType": "uint256",
          "name": "tokenId",
          "type": "uint256"
        }
      ],
      "name": "getApproved",
      "outputs": [
        {
          "internalType": "address",
          "name": "",
          "type": "address"
        }
      ],
      "stateMutability": "view",
      "type": "function"
    },
    {
      "inputs": [
        {
          "internalType": "uint256",
          "name": "iDSLockID",
          "type": "uint256"
        },
        {
          "internalType": "uint256",
          "name": "amount",
          "type": "uint256"
        }
      ],
      "name": "increaseAmount",
      "outputs": [],
      "stateMutability": "nonpayable",
      "type": "function"
    },
    {
      "inputs": [
        {
          "internalType": "address",
          "name": "owner",
          "type": "address"
        },
        {
          "internalType": "address",
          "name": "operator",
          "type": "address"
        }
      ],
      "name": "isApprovedForAll",
      "outputs": [
        {
          "internalType": "bool",
          "name": "",
          "type": "bool"
        }
      ],
      "stateMutability": "view",
      "type": "function"
    },
    {
      "inputs": [
        {
          "internalType": "uint256",
          "name": "iDSLockID",
          "type": "uint256"
        }
      ],
      "name": "isLocked",
      "outputs": [
        {
          "internalType": "bool",
          "name": "locked",
          "type": "bool"
        }
      ],
      "stateMutability": "view",
      "type": "function"
    },
    {
      "inputs": [
        {
          "internalType": "uint256",
          "name": "iDSLockID",
          "type": "uint256"
        }
      ],
      "name": "locks",
      "outputs": [
        {
          "components": [
            {
              "internalType": "uint256",
              "name": "amount",
              "type": "uint256"
            },
            {
              "internalType": "uint256",
              "name": "end",
              "type": "uint256"
            }
          ],
          "internalType": "struct Lock",
          "name": "lock_",
          "type": "tuple"
        }
      ],
      "stateMutability": "view",
      "type": "function"
    },
    {
      "inputs": [],
      "name": "name",
      "outputs": [
        {
          "internalType": "string",
          "name": "",
          "type": "string"
        }
      ],
      "stateMutability": "view",
      "type": "function"
    },
    {
      "inputs": [
        {
          "internalType": "uint256",
          "name": "tokenID",
          "type": "uint256"
        }
      ],
      "name": "nonces",
      "outputs": [
        {
          "internalType": "uint256",
          "name": "nonce",
          "type": "uint256"
        }
      ],
      "stateMutability": "view",
      "type": "function"
    },
    {
      "inputs": [
        {
          "internalType": "uint256",
          "name": "tokenId",
          "type": "uint256"
        }
      ],
      "name": "ownerOf",
      "outputs": [
        {
          "internalType": "address",
          "name": "",
          "type": "address"
        }
      ],
      "stateMutability": "view",
      "type": "function"
    },
    {
      "inputs": [
        {
          "internalType": "address",
          "name": "spender",
          "type": "address"
        },
        {
          "internalType": "uint256",
          "name": "tokenID",
          "type": "uint256"
        },
        {
          "internalType": "uint256",
          "name": "deadline",
          "type": "uint256"
        },
        {
          "internalType": "uint8",
          "name": "v",
          "type": "uint8"
        },
        {
          "internalType": "bytes32",
          "name": "r",
          "type": "bytes32"
        },
        {
          "internalType": "bytes32",
          "name": "s",
          "type": "bytes32"
        }
      ],
      "name": "permit",
      "outputs": [],
      "stateMutability": "nonpayable",
      "type": "function"
    },
    {
      "inputs": [
        {
          "internalType": "address",
          "name": "to",
          "type": "address"
        },
        {
          "internalType": "uint256",
          "name": "tokenID",
          "type": "uint256"
        }
      ],
      "name": "safeTransfer",
      "outputs": [],
      "stateMutability": "nonpayable",
      "type": "function"
    },
    {
      "inputs": [
        {
          "internalType": "address",
          "name": "from",
          "type": "address"
        },
        {
          "internalType": "address",
          "name": "to",
          "type": "address"
        },
        {
          "internalType": "uint256",
          "name": "tokenId",
          "type": "uint256"
        }
      ],
      "name": "safeTransferFrom",
      "outputs": [],
      "stateMutability": "nonpayable",
      "type": "function"
    },
    {
      "inputs": [
        {
          "internalType": "address",
          "name": "from",
          "type": "address"
        },
        {
          "internalType": "address",
          "name": "to",
          "type": "address"
        },
        {
          "internalType": "uint256",
          "name": "tokenId",
          "type": "uint256"
        },
        {
          "internalType": "bytes",
          "name": "_data",
          "type": "bytes"
        }
      ],
      "name": "safeTransferFrom",
      "outputs": [],
      "stateMutability": "nonpayable",
      "type": "function"
    },
    {
      "inputs": [
        {
          "internalType": "address",
          "name": "operator",
          "type": "address"
        },
        {
          "internalType": "bool",
          "name": "approved",
          "type": "bool"
        }
      ],
      "name": "setApprovalForAll",
      "outputs": [],
      "stateMutability": "nonpayable",
      "type": "function"
    },
    {
      "inputs": [
        {
          "internalType": "address",
          "name": "account",
          "type": "address"
        }
      ],
      "name": "stakedBalance",
      "outputs": [
        {
          "internalType": "uint256",
          "name": "balance",
          "type": "uint256"
        }
      ],
      "stateMutability": "view",
      "type": "function"
    },
    {
      "inputs": [
        {
          "internalType": "bytes4",
          "name": "interfaceId",
          "type": "bytes4"
        }
      ],
      "name": "supportsInterface",
      "outputs": [
        {
          "internalType": "bool",
          "name": "",
          "type": "bool"
        }
      ],
      "stateMutability": "view",
      "type": "function"
    },
    {
      "inputs": [],
      "name": "symbol",
      "outputs": [
        {
          "internalType": "string",
          "name": "",
          "type": "string"
        }
      ],
      "stateMutability": "view",
      "type": "function"
    },
    {
      "inputs": [
        {
          "internalType": "uint256",
          "name": "iDSLockID",
          "type": "uint256"
        }
      ],
      "name": "timeLeft",
      "outputs": [
        {
          "internalType": "uint256",
          "name": "time",
          "type": "uint256"
        }
      ],
      "stateMutability": "view",
      "type": "function"
    },
    {
      "inputs": [
        {
          "internalType": "uint256",
          "name": "index",
          "type": "uint256"
        }
      ],
      "name": "tokenByIndex",
      "outputs": [
        {
          "internalType": "uint256",
          "name": "",
          "type": "uint256"
        }
      ],
      "stateMutability": "view",
      "type": "function"
    },
    {
      "inputs": [
        {
          "internalType": "address",
          "name": "owner",
          "type": "address"
        },
        {
          "internalType": "uint256",
          "name": "index",
          "type": "uint256"
        }
      ],
      "name": "tokenOfOwnerByIndex",
      "outputs": [
        {
          "internalType": "uint256",
          "name": "",
          "type": "uint256"
        }
      ],
      "stateMutability": "view",
      "type": "function"
    },
    {
      "inputs": [
        {
          "internalType": "uint256",
          "name": "tokenID",
          "type": "uint256"
        }
      ],
      "name": "tokenURI",
      "outputs": [
        {
          "internalType": "string",
          "name": "",
          "type": "string"
        }
      ],
      "stateMutability": "view",
      "type": "function"
    },
    {
      "inputs": [],
      "name": "totalNumLocks",
      "outputs": [
        {
          "internalType": "uint256",
          "name": "",
          "type": "uint256"
        }
      ],
      "stateMutability": "view",
      "type": "function"
    },
    {
      "inputs": [],
      "name": "totalSupply",
      "outputs": [
        {
          "internalType": "uint256",
          "name": "",
          "type": "uint256"
        }
      ],
      "stateMutability": "view",
      "type": "function"
    },
    {
      "inputs": [
        {
          "internalType": "address",
          "name": "to",
          "type": "address"
        },
        {
          "internalType": "uint256",
          "name": "tokenID",
          "type": "uint256"
        }
      ],
      "name": "transfer",
      "outputs": [],
      "stateMutability": "nonpayable",
      "type": "function"
    },
    {
      "inputs": [
        {
          "internalType": "address",
          "name": "from",
          "type": "address"
        },
        {
          "internalType": "address",
          "name": "to",
          "type": "address"
        },
        {
          "internalType": "uint256",
          "name": "tokenId",
          "type": "uint256"
        }
      ],
      "name": "transferFrom",
      "outputs": [],
      "stateMutability": "nonpayable",
      "type": "function"
    },
    {
      "inputs": [
        {
          "internalType": "uint256",
          "name": "iDSLockID",
          "type": "uint256"
        },
        {
          "internalType": "address",
          "name": "recipient",
          "type": "address"
        },
        {
          "internalType": "uint256",
          "name": "amount",
          "type": "uint256"
        }
      ],
      "name": "withdrawInPart",
      "outputs": [],
      "stateMutability": "nonpayable",
      "type": "function"
    }
  ],
  "transactionHash": "0x081e7c5816333903a2ab07a184b049058bae85ba19a04802b9a09f5c98ff5d45",
  "args": [
    "0x5799bFe361BEea69f808328FF4884DF92f1f66f0"
  ],
  "solcInputHash": "256d0a41466e4b2edeb4e0708cf9f0fe",
  "bytecode": "0x6101406040527f137406564cdcf9b40b1700502a9241e87476728da7ae3d0edfcf0541e5b49b3e610120523480156200003757600080fd5b5060405162003290380380620032908339810160408190526200005a916200037f565b60405180604001604052806008815260200167694453206c6f636b60c01b815250604051806040016040528060078152602001666944534c4f434b60c81b81525081604051806040016040528060018152602001603160f81b8152508383620000d06301ffc9a760e01b620001e660201b60201c565b8151620000e5906006906020850190620002d3565b508051620000fb906007906020840190620002d3565b506200010e6380ac58cd60e01b620001e6565b62000120635b5e139f60e01b620001e6565b6200013263780e9d6360e01b620001e6565b5050815160208084019190912082519183019190912060c082905260e08190527f8b73c3c69bb8fe3d512ecc4cf759cc79239f7b179b0ffacaa9a75d522b39400f6200017d6200026b565b60a0526200018d8184846200026f565b608052610100525050604080516020810191829052600090819052620001b89350600b9250620002d3565b50506001600c5550600d80546001600160a01b0319166001600160a01b0392909216919091179055620003af565b6001600160e01b0319808216141562000246576040805162461bcd60e51b815260206004820152601c60248201527f4552433136353a20696e76616c696420696e7465726661636520696400000000604482015290519081900360640190fd5b6001600160e01b0319166000908152602081905260409020805460ff19166001179055565b4690565b60008383836200027e6200026b565b3060405160200180868152602001858152602001848152602001838152602001826001600160a01b03168152602001955050505050506040516020818303038152906040528051906020012090509392505050565b828054600181600116156101000203166002900490600052602060002090601f0160209004810192826200030b576000855562000356565b82601f106200032657805160ff191683800117855562000356565b8280016001018555821562000356579182015b828111156200035657825182559160200191906001019062000339565b506200036492915062000368565b5090565b5b8082111562000364576000815560010162000369565b60006020828403121562000391578081fd5b81516001600160a01b0381168114620003a8578182fd5b9392505050565b60805160a05160c05160e0516101005161012051612e92620003fe600039806107135280610b385250806116fc52508061173e52508061171d5250806116a35250806116d35250612e926000f3fe608060405234801561001057600080fd5b50600436106102065760003560e01c8063602172671161011a578063a9059cbb116100ad578063d61866271161007c578063d618662714610419578063df19578f1461042c578063e985e9c514610434578063f4dadc6114610447578063f6aacfb11461046757610206565b8063a9059cbb146103cd578063b2383e55146103e0578063b88d4fde146103f3578063c87b56dd1461040657610206565b806370a08231116100e957806370a082311461038c5780637ac2ff7b1461039f57806395d89b41146103b2578063a22cb465146103ba57610206565b8063602172671461034b5780636352211e1461035e578063650e1505146103715780636c0360eb1461038457610206565b806330adf81f1161019d57806342842e0e1161016c57806342842e0e146102f757806347cb7a681461030a5780634f1bfc9e1461031d5780634f558e79146103255780634f6ccce71461033857610206565b806330adf81f146102cc5780633644e515146102d45780633d8adfd0146102dc578063423f6cef146102e457610206565b8063141a468c116101d9578063141a468c1461027e57806318160ddd1461029e57806323b872dd146102a65780632f745c59146102b957610206565b806301ffc9a71461020b57806306fdde0314610234578063081812fc14610249578063095ea7b314610269575b600080fd5b61021e610219366004612a67565b61047a565b60405161022b9190612b00565b60405180910390f35b61023c61049d565b60405161022b9190612b14565b61025c610257366004612a8f565b610534565b60405161022b9190612aec565b61027c6102773660046129ae565b610596565b005b61029161028c366004612a8f565b61066c565b60405161022b9190612b0b565b61029161067e565b61027c6102b4366004612879565b61068f565b6102916102c73660046129ae565b6106e6565b610291610711565b610291610735565b61023c61073f565b61027c6102f23660046129ae565b6107cd565b61027c610305366004612879565b6107ec565b610291610318366004612a8f565b610807565b61029161088e565b61021e610333366004612a8f565b610896565b610291610346366004612a8f565b6108a1565b61029161035936600461282d565b6108b7565b61025c61036c366004612a8f565b610904565b61029161037f3660046129d7565b61092c565b61023c6109bb565b61029161039a36600461282d565b610a1c565b61027c6103ad366004612a09565b610a84565b61023c610ed2565b61027c6103c8366004612974565b610f33565b61027c6103db3660046129ae565b611038565b61027c6103ee366004612acb565b611043565b61027c6104013660046128b4565b611133565b61023c610414366004612a8f565b611191565b61027c610427366004612aa7565b611331565b61029161143b565b61021e610442366004612847565b611441565b61045a610455366004612a8f565b61146f565b60405161022b9190612bdd565b61021e610475366004612a8f565b6114eb565b6001600160e01b0319811660009081526020819052604090205460ff165b919050565b60068054604080516020601f60026000196101006001881615020190951694909404938401819004810282018101909252828152606093909290918301828280156105295780601f106104fe57610100808354040283529160200191610529565b820191906000526020600020905b81548152906001019060200180831161050c57829003601f168201915b505050505090505b90565b600061053f8261154f565b61057a5760405162461bcd60e51b815260040180806020018281038252602c815260200180612d8c602c913960400191505060405180910390fd5b506000908152600460205260409020546001600160a01b031690565b60006105a182610904565b9050806001600160a01b0316836001600160a01b031614156105f45760405162461bcd60e51b8152600401808060200182810382526021815260200180612de16021913960400191505060405180910390fd5b806001600160a01b031661060661155c565b6001600160a01b0316148061062257506106228161044261155c565b61065d5760405162461bcd60e51b8152600401808060200182810382526038815260200180612cbf6038913960400191505060405180910390fd5b6106678383611560565b505050565b6000908152600a602052604090205490565b600061068a60026115ce565b905090565b6106a061069a61155c565b826115d9565b6106db5760405162461bcd60e51b8152600401808060200182810382526031815260200180612e026031913960400191505060405180910390fd5b61066783838361167d565b6001600160a01b03821660009081526001602052604081206107089083611693565b90505b92915050565b7f000000000000000000000000000000000000000000000000000000000000000090565b600061068a61169f565b600b805460408051602060026001851615610100026000190190941693909304601f810184900484028201840190925281815292918301828280156107c55780601f1061079a576101008083540402835291602001916107c5565b820191906000526020600020905b8154815290600101906020018083116107a857829003601f168201915b505050505081565b6107e833838360405180602001604052806000815250611133565b5050565b61066783838360405180602001604052806000815250611133565b6000816108138161154f565b610852576040805162461bcd60e51b815260206004820152601b6024820152600080516020612d6c833981519152604482015290519081900360640190fd5b6000838152600f60205260409020600101544210610871576000610887565b6000838152600f60205260409020600101544290035b9392505050565b630784ce0081565b600061070b8261154f565b6000806108af600284611769565b509392505050565b6000806108c383610a1c565b90506000915060005b818110156108fd5760006108e085836106e6565b6000908152600f60205260409020549390930192506001016108cc565b5050919050565b600061070b82604051806060016040528060298152602001612d216029913960029190611785565b60006002600c541415610986576040805162461bcd60e51b815260206004820152601f60248201527f5265656e7472616e637947756172643a207265656e7472616e742063616c6c00604482015290519081900360640190fd5b6002600c55600d546109a3906001600160a01b0316333086611792565b6109ae8484846117ec565b6001600c55949350505050565b60098054604080516020601f60026000196101006001881615020190951694909404938401819004810282018101909252828152606093909290918301828280156105295780601f106104fe57610100808354040283529160200191610529565b60006001600160a01b038216610a635760405162461bcd60e51b815260040180806020018281038252602a815260200180612cf7602a913960400191505060405180910390fd5b6001600160a01b038216600090815260016020526040902061070b906115ce565b610a8d8561154f565b610acc576040805162461bcd60e51b815260206004820152601b6024820152600080516020612d6c833981519152604482015290519081900360640190fd5b83421115610b12576040805162461bcd60e51b815260206004820152600e60248201526d1c195c9b5a5d08195e1c1a5c995960921b604482015290519081900360640190fd5b6000858152600a6020526040812080546001810190915590610b32610735565b604080517f00000000000000000000000000000000000000000000000000000000000000006020808301919091526001600160a01b038c1682840152606082018b90526080820186905260a08083018b90528351808403909101815260c08301845280519082012061190160f01b60e084015260e28301949094526101028083019490945282518083039094018452610122909101909152815191012090506000610bdc88610904565b9050806001600160a01b0316896001600160a01b03161415610c3d576040805162461bcd60e51b815260206004820152601560248201527431b0b73737ba103832b936b4ba103a379039b2b63360591b604482015290519081900360640190fd5b610c468161185a565b15610dae576040805160208082018890528183018790526001600160f81b031960f88a901b1660608301528251604181840301815260618301808552630b135d3f60e11b90526065830186815260858401948552815160a585015281516001600160a01b03871695631626ba7e958995919260c59091019185019080838360005b83811015610cdf578181015183820152602001610cc7565b50505050905090810190601f168015610d0c5780820380516001836020036101000a031916815260200191505b50935050505060206040518083038186803b158015610d2a57600080fd5b505afa158015610d3e573d6000803e3d6000fd5b505050506040513d6020811015610d5457600080fd5b50516001600160e01b031916630b135d3f60e11b14610da9576040805162461bcd60e51b815260206004820152600c60248201526b1d5b985d5d1a1bdc9a5e995960a21b604482015290519081900360640190fd5b610ebd565b600060018388888860405160008152602001604052604051808581526020018460ff1681526020018381526020018281526020019450505050506020604051602081039080840390855afa158015610e0a573d6000803e3d6000fd5b5050604051601f1901519150506001600160a01b038116610e66576040805162461bcd60e51b8152602060048201526011602482015270696e76616c6964207369676e617475726560781b604482015290519081900360640190fd5b816001600160a01b0316816001600160a01b031614610ebb576040805162461bcd60e51b815260206004820152600c60248201526b1d5b985d5d1a1bdc9a5e995960a21b604482015290519081900360640190fd5b505b610ec78989610596565b505050505050505050565b60078054604080516020601f60026000196101006001881615020190951694909404938401819004810282018101909252828152606093909290918301828280156105295780601f106104fe57610100808354040283529160200191610529565b610f3b61155c565b6001600160a01b0316826001600160a01b03161415610fa1576040805162461bcd60e51b815260206004820152601960248201527f4552433732313a20617070726f766520746f2063616c6c657200000000000000604482015290519081900360640190fd5b8060056000610fae61155c565b6001600160a01b03908116825260208083019390935260409182016000908120918716808252919093529120805460ff191692151592909217909155610ff261155c565b6001600160a01b03167f17307eab39ab6107e8899845ad3d59bd9653f200f220920489ca2b5937696c318360405180821515815260200191505060405180910390a35050565b6107e833838361068f565b6002600c54141561109b576040805162461bcd60e51b815260206004820152601f60248201527f5265656e7472616e637947756172643a207265656e7472616e742063616c6c00604482015290519081900360640190fd5b6002600c55816110aa8161154f565b6110e9576040805162461bcd60e51b815260206004820152601b6024820152600080516020612d6c833981519152604482015290519081900360640190fd5b600d54611101906001600160a01b0316333085611792565b6000838152600f602052604090208054600190910154908301906111289085908390611860565b50506001600c555050565b61114461113e61155c565b836115d9565b61117f5760405162461bcd60e51b8152600401808060200182810382526031815260200180612e026031913960400191505060405180910390fd5b61118b848484846118a9565b50505050565b60608161119d8161154f565b6111dc576040805162461bcd60e51b815260206004820152601b6024820152600080516020612d6c833981519152604482015290519081900360640190fd5b600b8054604080516020601f60026000196101006001881615020190951694909404938401819004810282018101909252828152600093909290918301828280156112685780601f1061123d57610100808354040283529160200191611268565b820191906000526020600020905b81548152906001019060200180831161124b57829003601f168201915b5050505050905080611279856118fb565b6040516020018083805190602001908083835b602083106112ab5780518252601f19909201916020918201910161128c565b51815160209384036101000a600019018019909216911617905285519190930192850191508083835b602083106112f35780518252601f1990920191602091820191016112d4565b6001836020036101000a0380198251168184511680821785525050505050509050019250505060405160208183030381529060405292505050919050565b6002600c541415611389576040805162461bcd60e51b815260206004820152601f60248201527f5265656e7472616e637947756172643a207265656e7472616e742063616c6c00604482015290519081900360640190fd5b6002600c558261139933826115d9565b6113e3576040805162461bcd60e51b81526020600482015260166024820152751bdb9b1e481bdddb995c881bdc88185c1c1c9bdd995960521b604482015290519081900360640190fd5b6000848152600f602052604090205482111561141a5760405162461bcd60e51b815260040161141190612b67565b60405180910390fd5b61142484836119d6565b600d54611128906001600160a01b03168484611a8a565b600e5481565b6001600160a01b03918216600090815260056020908152604080832093909416825291909152205460ff1690565b61147761279c565b816114818161154f565b6114c0576040805162461bcd60e51b815260206004820152601b6024820152600080516020612d6c833981519152604482015290519081900360640190fd5b50506000908152600f6020908152604091829020825180840190935280548352600101549082015290565b6000816114f78161154f565b611536576040805162461bcd60e51b815260206004820152601b6024820152600080516020612d6c833981519152604482015290519081900360640190fd5b50506000908152600f6020526040902060010154421090565b600061070b600283611adc565b3390565b600081815260046020526040902080546001600160a01b0319166001600160a01b038416908117909155819061159582610904565b6001600160a01b03167f8c5be1e5ebec7d5bd14f71427d1e84f3dd0314c0f7b2291e5b200ac8c7c3b92560405160405180910390a45050565b600061070b82611ae8565b60006115e48261154f565b61161f5760405162461bcd60e51b815260040180806020018281038252602c815260200180612c93602c913960400191505060405180910390fd5b600061162a83610904565b9050806001600160a01b0316846001600160a01b031614806116655750836001600160a01b031661165a84610534565b6001600160a01b0316145b8061167557506116758185611441565b949350505050565b611688838383611aec565b610667838383610667565b60006107088383611c38565b60007f00000000000000000000000000000000000000000000000000000000000000006116ca611c9c565b14156116f757507f0000000000000000000000000000000000000000000000000000000000000000610531565b6117627f00000000000000000000000000000000000000000000000000000000000000007f00000000000000000000000000000000000000000000000000000000000000007f0000000000000000000000000000000000000000000000000000000000000000611ca0565b9050610531565b60008080806117788686611d02565b9097909650945050505050565b6000611675848484611d7d565b604080516001600160a01b0380861660248301528416604482015260648082018490528251808303909101815260849091019091526020810180516001600160e01b03166323b872dd60e01b17905261118b908590611e47565b600e805460010190819055604080518082019091528381526020810183905242630784ce00018311156118315760405162461bcd60e51b815260040161141190612bb0565b6000828152600f6020908152604090912082518155908201516001909101556108af8583611ef8565b3b151590565b6000838152600f60208181526040808420815180830183528154815260018201805491850191909152825180840190935296825281830195865296909352525190925590519055565b6118b484848461167d565b6118c084848484611f12565b61118b5760405162461bcd60e51b8152600401808060200182810382526032815260200180612c176032913960400191505060405180910390fd5b60608161192057506040805180820190915260018152600360fc1b6020820152610498565b8160005b811561193857600101600a82049150611924565b60008167ffffffffffffffff8111801561195157600080fd5b506040519080825280601f01601f19166020018201604052801561197c576020820181803683370190505b50859350905060001982015b83156119cd57600a840660300160f81b828280600190039350815181106119ab57fe5b60200101906001600160f81b031916908160001a905350600a84049350611988565b50949350505050565b6000828152600f6020526040902060010154421015611a075760405162461bcd60e51b815260040161141190612b90565b6000828152600f6020526040902054811415611a4057611a268261207a565b6000828152600f60205260408120818155600101556107e8565b6000828152600f6020818152604080842081518083018352815480825260018301548286019081528451808601909552915188900384529051928401929092529590935252039055565b604080516001600160a01b038416602482015260448082018490528251808303909101815260649091019091526020810180516001600160e01b031663a9059cbb60e01b179052610667908490611e47565b6000610708838361209c565b5490565b826001600160a01b0316611aff82610904565b6001600160a01b031614611b445760405162461bcd60e51b8152600401808060200182810382526029815260200180612db86029913960400191505060405180910390fd5b6001600160a01b038216611b895760405162461bcd60e51b8152600401808060200182810382526024815260200180612c496024913960400191505060405180910390fd5b611b94838383610667565b611b9f600082611560565b6001600160a01b0383166000908152600160205260409020611bc190826120b4565b506001600160a01b0382166000908152600160205260409020611be490826120c0565b50611bf1600282846120cc565b5080826001600160a01b0316846001600160a01b03167fddf252ad1be2c89b69c2b068fc378daa952ba7f163c4a11628f55a4df523b3ef60405160405180910390a4505050565b81546000908210611c7a5760405162461bcd60e51b8152600401808060200182810382526022815260200180612bf56022913960400191505060405180910390fd5b826000018281548110611c8957fe5b9060005260206000200154905092915050565b4690565b6000838383611cad611c9c565b3060405160200180868152602001858152602001848152602001838152602001826001600160a01b03168152602001955050505050506040516020818303038152906040528051906020012090509392505050565b815460009081908310611d465760405162461bcd60e51b8152600401808060200182810382526022815260200180612d4a6022913960400191505060405180910390fd5b6000846000018481548110611d5757fe5b906000526020600020906002020190508060000154816001015492509250509250929050565b60008281526001840160205260408120548281611e185760405162461bcd60e51b81526004018080602001828103825283818151815260200191508051906020019080838360005b83811015611ddd578181015183820152602001611dc5565b50505050905090810190601f168015611e0a5780820380516001836020036101000a031916815260200191505b509250505060405180910390fd5b50846000016001820381548110611e2b57fe5b9060005260206000209060020201600101549150509392505050565b6000611e9c826040518060400160405280602081526020017f5361666545524332303a206c6f772d6c6576656c2063616c6c206661696c6564815250856001600160a01b03166120e29092919063ffffffff16565b80519091501561066757808060200190516020811015611ebb57600080fd5b50516106675760405162461bcd60e51b815260040180806020018281038252602a815260200180612e33602a913960400191505060405180910390fd5b6107e88282604051806020016040528060008152506120f1565b6000611f26846001600160a01b031661185a565b611f3257506001611675565b6000612040630a85bd0160e11b611f4761155c565b88878760405160240180856001600160a01b03168152602001846001600160a01b0316815260200183815260200180602001828103825283818151815260200191508051906020019080838360005b83811015611fae578181015183820152602001611f96565b50505050905090810190601f168015611fdb5780820380516001836020036101000a031916815260200191505b5095505050505050604051602081830303815290604052906001600160e01b0319166020820180516001600160e01b038381831617835250505050604051806060016040528060328152602001612c17603291396001600160a01b03881691906120e2565b9050600081806020019051602081101561205957600080fd5b50516001600160e01b031916630a85bd0160e11b1492505050949350505050565b600061208582610904565b905061209082612143565b6107e881600084610667565b60009081526001919091016020526040902054151590565b60006107088383612210565b600061070883836122d6565b600061167584846001600160a01b038516612320565b606061167584846000856123b7565b6120fb8383612512565b6121086000848484611f12565b6106675760405162461bcd60e51b8152600401808060200182810382526032815260200180612c176032913960400191505060405180910390fd5b600061214e82610904565b905061215c81600084610667565b612167600083611560565b60008281526008602052604090205460026000196101006001841615020190911604156121a55760008281526008602052604081206121a5916127b6565b6001600160a01b03811660009081526001602052604090206121c790836120b4565b506121d3600283612528565b5060405182906000906001600160a01b038416907fddf252ad1be2c89b69c2b068fc378daa952ba7f163c4a11628f55a4df523b3ef908390a45050565b600081815260018301602052604081205480156122cc578354600019808301919081019060009087908390811061224357fe5b906000526020600020015490508087600001848154811061226057fe5b60009182526020808320909101929092558281526001898101909252604090209084019055865487908061229057fe5b6001900381819060005260206000200160009055905586600101600087815260200190815260200160002060009055600194505050505061070b565b600091505061070b565b60006122e2838361209c565b6123185750815460018181018455600084815260208082209093018490558454848252828601909352604090209190915561070b565b50600061070b565b600082815260018401602052604081205480612385575050604080518082018252838152602080820184815286546001818101895560008981528481209551600290930290950191825591519082015586548684528188019092529290912055610887565b8285600001600183038154811061239857fe5b9060005260206000209060020201600101819055506000915050610887565b6060824710156123f85760405162461bcd60e51b8152600401808060200182810382526026815260200180612c6d6026913960400191505060405180910390fd5b6124018561185a565b612452576040805162461bcd60e51b815260206004820152601d60248201527f416464726573733a2063616c6c20746f206e6f6e2d636f6e7472616374000000604482015290519081900360640190fd5b600080866001600160a01b031685876040518082805190602001908083835b602083106124905780518252601f199092019160209182019101612471565b6001836020036101000a03801982511681845116808217855250505050505090500191505060006040518083038185875af1925050503d80600081146124f2576040519150601f19603f3d011682016040523d82523d6000602084013e6124f7565b606091505b5091509150612507828286612534565b979650505050505050565b61251c828261259a565b6107e860008383610667565b600061070883836126c8565b60608315612543575081610887565b8251156125535782518084602001fd5b60405162461bcd60e51b8152602060048201818152845160248401528451859391928392604401919085019080838360008315611ddd578181015183820152602001611dc5565b6001600160a01b0382166125f5576040805162461bcd60e51b815260206004820181905260248201527f4552433732313a206d696e7420746f20746865207a65726f2061646472657373604482015290519081900360640190fd5b6125fe8161154f565b15612650576040805162461bcd60e51b815260206004820152601c60248201527f4552433732313a20746f6b656e20616c7265616479206d696e74656400000000604482015290519081900360640190fd5b61265c60008383610667565b6001600160a01b038216600090815260016020526040902061267e90826120c0565b5061268b600282846120cc565b5060405181906001600160a01b038416906000907fddf252ad1be2c89b69c2b068fc378daa952ba7f163c4a11628f55a4df523b3ef908290a45050565b600081815260018301602052604081205480156122cc57835460001980830191908101906000908790839081106126fb57fe5b906000526020600020906002020190508087600001848154811061271b57fe5b60009182526020808320845460029093020191825560019384015491840191909155835482528983019052604090209084019055865487908061275a57fe5b600082815260208082206002600019909401938402018281556001908101839055929093558881528982019092526040822091909155945061070b9350505050565b604051806040016040528060008152602001600081525090565b50805460018160011615610100020316600290046000825580601f106127dc57506127fa565b601f0160209004906000526020600020908101906127fa91906127fd565b50565b5b8082111561281257600081556001016127fe565b5090565b80356001600160a01b038116811461049857600080fd5b60006020828403121561283e578081fd5b61070882612816565b60008060408385031215612859578081fd5b61286283612816565b915061287060208401612816565b90509250929050565b60008060006060848603121561288d578081fd5b61289684612816565b92506128a460208501612816565b9150604084013590509250925092565b600080600080608085870312156128c9578081fd5b6128d285612816565b935060206128e1818701612816565b935060408601359250606086013567ffffffffffffffff80821115612904578384fd5b818801915088601f830112612917578384fd5b81358181111561292357fe5b604051601f8201601f191681018501838111828210171561294057fe5b60405281815283820185018b1015612956578586fd5b81858501868301379081019093019390935250939692955090935050565b60008060408385031215612986578182fd5b61298f83612816565b9150602083013580151581146129a3578182fd5b809150509250929050565b600080604083850312156129c0578182fd5b6129c983612816565b946020939093013593505050565b6000806000606084860312156129eb578283fd5b6129f484612816565b95602085013595506040909401359392505050565b60008060008060008060c08789031215612a21578182fd5b612a2a87612816565b95506020870135945060408701359350606087013560ff81168114612a4d578283fd5b9598949750929560808101359460a0909101359350915050565b600060208284031215612a78578081fd5b81356001600160e01b031981168114610887578182fd5b600060208284031215612aa0578081fd5b5035919050565b600080600060608486031215612abb578283fd5b833592506128a460208501612816565b60008060408385031215612add578182fd5b50508035926020909101359150565b6001600160a01b0391909116815260200190565b901515815260200190565b90815260200190565b6000602080835283518082850152825b81811015612b4057858101830151858201604001528201612b24565b81811115612b515783604083870101525b50601f01601f1916929092016040019392505050565b6020808252600f908201526e65786365737320776974686472617760881b604082015260600190565b6020808252600690820152651b1bd8dad95960d21b604082015260600190565b6020808252601390820152724d6178206c6f636b206973203420796561727360681b604082015260600190565b81518152602091820151918101919091526040019056fe456e756d657261626c655365743a20696e646578206f7574206f6620626f756e64734552433732313a207472616e7366657220746f206e6f6e20455243373231526563656976657220696d706c656d656e7465724552433732313a207472616e7366657220746f20746865207a65726f2061646472657373416464726573733a20696e73756666696369656e742062616c616e636520666f722063616c6c4552433732313a206f70657261746f7220717565727920666f72206e6f6e6578697374656e7420746f6b656e4552433732313a20617070726f76652063616c6c6572206973206e6f74206f776e6572206e6f7220617070726f76656420666f7220616c6c4552433732313a2062616c616e636520717565727920666f7220746865207a65726f20616464726573734552433732313a206f776e657220717565727920666f72206e6f6e6578697374656e7420746f6b656e456e756d657261626c654d61703a20696e646578206f7574206f6620626f756e6473717565727920666f72206e6f6e6578697374656e7420746f6b656e00000000004552433732313a20617070726f76656420717565727920666f72206e6f6e6578697374656e7420746f6b656e4552433732313a207472616e73666572206f6620746f6b656e2074686174206973206e6f74206f776e4552433732313a20617070726f76616c20746f2063757272656e74206f776e65724552433732313a207472616e736665722063616c6c6572206973206e6f74206f776e6572206e6f7220617070726f7665645361666545524332303a204552433230206f7065726174696f6e20646964206e6f742073756363656564a2646970667358221220b885496cefe8565286ecf0c1a02e18f1e9aed3c8a7c815b38784d2f10d8cd85a64736f6c63430007060033",
  "devdoc": {
    "kind": "dev",
    "methods": {
      "DOMAIN_SEPARATOR()": {
        "returns": {
          "seperator": "The domain seperator for `permit`."
        }
      },
      "PERMIT_TYPEHASH()": {
        "returns": {
          "typehash": "The typehash for the `permit`."
        }
      },
      "approve(address,uint256)": {
        "details": "See {IERC721-approve}."
      },
      "balanceOf(address)": {
        "details": "See {IERC721-balanceOf}."
      },
      "baseURI()": {
        "details": "Returns the base URI set via {_setBaseURI}. This will be automatically added as a prefix in {tokenURI} to each token's URI, or to the token ID if no specific URI is set for that token ID."
      },
      "exists(uint256)": {
        "params": {
          "tokenID": "The ID of the token to query."
        },
        "returns": {
          "status": "True if the token exists, false if it doesn't."
        }
      },
      "getApproved(uint256)": {
        "details": "See {IERC721-getApproved}."
      },
      "isApprovedForAll(address,address)": {
        "details": "See {IERC721-isApprovedForAll}."
      },
      "name()": {
        "details": "See {IERC721Metadata-name}."
      },
      "nonces(uint256)": {
        "params": {
          "tokenID": "ID of the token to request nonce."
        },
        "returns": {
          "nonce": "Nonce of the token."
        }
      },
      "ownerOf(uint256)": {
        "details": "See {IERC721-ownerOf}."
      },
      "permit(address,uint256,uint256,uint8,bytes32,bytes32)": {
        "params": {
          "deadline": "The deadline timestamp by which the call must be mined for the approve to work.",
          "r": "Must produce valid secp256k1 signature from the holder along with `v` and `s`.",
          "s": "Must produce valid secp256k1 signature from the holder along with `r` and `v`.",
          "spender": "The account that is being approved.",
          "tokenID": "The ID of the token that is being approved for spending.",
          "v": "Must produce valid secp256k1 signature from the holder along with `r` and `s`."
        }
      },
      "safeTransfer(address,uint256)": {
        "details": "This was excluded from the official `ERC721` standard in favor of `safeTransferFrom(address from, address to, uint256 tokenID)`. We elect to include it.",
        "params": {
          "to": "The receipient of the token.",
          "tokenID": "The token to transfer."
        }
      },
      "safeTransferFrom(address,address,uint256)": {
        "details": "See {IERC721-safeTransferFrom}."
      },
      "safeTransferFrom(address,address,uint256,bytes)": {
        "details": "See {IERC721-safeTransferFrom}."
      },
      "setApprovalForAll(address,bool)": {
        "details": "See {IERC721-setApprovalForAll}."
      },
      "supportsInterface(bytes4)": {
        "details": "See {IERC165-supportsInterface}. Time complexity O(1), guaranteed to always use less than 30 000 gas."
      },
      "symbol()": {
        "details": "See {IERC721Metadata-symbol}."
      },
      "tokenByIndex(uint256)": {
        "details": "See {IERC721Enumerable-tokenByIndex}."
      },
      "tokenOfOwnerByIndex(address,uint256)": {
        "details": "See {IERC721Enumerable-tokenOfOwnerByIndex}."
      },
      "totalSupply()": {
        "details": "See {IERC721Enumerable-totalSupply}."
      },
      "transfer(address,uint256)": {
        "details": "This was excluded from the official `ERC721` standard in favor of `transferFrom(address from, address to, uint256 tokenID)`. We elect to include it.",
        "params": {
          "to": "The receipient of the token.",
          "tokenID": "The token to transfer."
        }
      },
      "transferFrom(address,address,uint256)": {
        "details": "See {IERC721-transferFrom}."
      }
    },
    "version": 1
  },
  "userdoc": {
    "kind": "user",
    "methods": {
      "DOMAIN_SEPARATOR()": {
        "notice": "The domain separator used in the encoding of the signature for `permit`, as defined by `EIP712`."
      },
      "PERMIT_TYPEHASH()": {
        "notice": "The permit typehash used in the `permit` signature."
      },
      "exists(uint256)": {
        "notice": "Determines if a token exists or not."
      },
      "nonces(uint256)": {
        "notice": "Returns the current nonce for `tokenID`. This value must be included whenever a signature is generated for `permit`. Every successful call to `permit` increases ``tokenID``'s nonce by one. This prevents a signature from being used multiple times."
      },
      "permit(address,uint256,uint256,uint8,bytes32,bytes32)": {
        "notice": "Approve of a specific `tokenID` for spending by `spender` via signature."
      },
      "safeTransfer(address,uint256)": {
        "notice": "Safely transfers `tokenID` from `msg.sender` to `to`."
      },
      "tokenURI(uint256)": {
        "notice": "Returns the Uniform Resource Identifier (URI) for `tokenID` token."
      },
      "transfer(address,uint256)": {
        "notice": "Transfers `tokenID` from `msg.sender` to `to`."
      }
    },
    "version": 1
  },
  "storageLayout": {
    "storage": [
      {
        "astId": 434,
        "contract": "contracts/staking/iDSlocker.sol:iDSLocker",
        "label": "_supportedInterfaces",
        "offset": 0,
        "slot": "0",
        "type": "t_mapping(t_bytes4,t_bool)"
      },
      {
        "astId": 1684,
        "contract": "contracts/staking/iDSlocker.sol:iDSLocker",
        "label": "_holderTokens",
        "offset": 0,
        "slot": "1",
        "type": "t_mapping(t_address,t_struct(UintSet)4050_storage)"
      },
      {
        "astId": 1686,
        "contract": "contracts/staking/iDSlocker.sol:iDSLocker",
        "label": "_tokenOwners",
        "offset": 0,
        "slot": "2",
        "type": "t_struct(UintToAddressMap)3427_storage"
      },
      {
        "astId": 1690,
        "contract": "contracts/staking/iDSlocker.sol:iDSLocker",
        "label": "_tokenApprovals",
        "offset": 0,
        "slot": "4",
        "type": "t_mapping(t_uint256,t_address)"
      },
      {
        "astId": 1696,
        "contract": "contracts/staking/iDSlocker.sol:iDSLocker",
        "label": "_operatorApprovals",
        "offset": 0,
        "slot": "5",
        "type": "t_mapping(t_address,t_mapping(t_address,t_bool))"
      },
      {
        "astId": 1698,
        "contract": "contracts/staking/iDSlocker.sol:iDSLocker",
        "label": "_name",
        "offset": 0,
        "slot": "6",
        "type": "t_string_storage"
      },
      {
        "astId": 1700,
        "contract": "contracts/staking/iDSlocker.sol:iDSLocker",
        "label": "_symbol",
        "offset": 0,
        "slot": "7",
        "type": "t_string_storage"
      },
      {
        "astId": 1704,
        "contract": "contracts/staking/iDSlocker.sol:iDSLocker",
        "label": "_tokenURIs",
        "offset": 0,
        "slot": "8",
        "type": "t_mapping(t_uint256,t_string_storage)"
      },
      {
        "astId": 1706,
        "contract": "contracts/staking/iDSlocker.sol:iDSLocker",
        "label": "_baseURI",
        "offset": 0,
        "slot": "9",
        "type": "t_string_storage"
      },
      {
        "astId": 38190,
        "contract": "contracts/staking/iDSlocker.sol:iDSLocker",
        "label": "_nonces",
        "offset": 0,
        "slot": "10",
        "type": "t_mapping(t_uint256,t_uint256)"
      },
      {
        "astId": 38196,
        "contract": "contracts/staking/iDSlocker.sol:iDSLocker",
        "label": "_baseURI_",
        "offset": 0,
        "slot": "11",
        "type": "t_string_storage"
      },
      {
        "astId": 4156,
        "contract": "contracts/staking/iDSlocker.sol:iDSLocker",
        "label": "_status",
        "offset": 0,
        "slot": "12",
        "type": "t_uint256"
      },
      {
        "astId": 18026,
        "contract": "contracts/staking/iDSlocker.sol:iDSLocker",
        "label": "collateral_address",
        "offset": 0,
        "slot": "13",
        "type": "t_address"
      },
      {
        "astId": 18034,
        "contract": "contracts/staking/iDSlocker.sol:iDSLocker",
        "label": "totalNumLocks",
        "offset": 0,
        "slot": "14",
        "type": "t_uint256"
      },
      {
        "astId": 18038,
        "contract": "contracts/staking/iDSlocker.sol:iDSLocker",
        "label": "_locks",
        "offset": 0,
        "slot": "15",
        "type": "t_mapping(t_uint256,t_struct(Lock)18017_storage)"
      },
      {
        "astId": 18040,
        "contract": "contracts/staking/iDSlocker.sol:iDSLocker",
        "label": "_iDSLockListeners",
        "offset": 0,
        "slot": "16",
        "type": "t_struct(AddressSet)3929_storage"
      }
    ],
    "types": {
      "t_address": {
        "encoding": "inplace",
        "label": "address",
        "numberOfBytes": "20"
      },
      "t_array(t_bytes32)dyn_storage": {
        "base": "t_bytes32",
        "encoding": "dynamic_array",
        "label": "bytes32[]",
        "numberOfBytes": "32"
      },
      "t_array(t_struct(MapEntry)3101_storage)dyn_storage": {
        "base": "t_struct(MapEntry)3101_storage",
        "encoding": "dynamic_array",
        "label": "struct EnumerableMap.MapEntry[]",
        "numberOfBytes": "32"
      },
      "t_bool": {
        "encoding": "inplace",
        "label": "bool",
        "numberOfBytes": "1"
      },
      "t_bytes32": {
        "encoding": "inplace",
        "label": "bytes32",
        "numberOfBytes": "32"
      },
      "t_bytes4": {
        "encoding": "inplace",
        "label": "bytes4",
        "numberOfBytes": "4"
      },
      "t_mapping(t_address,t_bool)": {
        "encoding": "mapping",
        "key": "t_address",
        "label": "mapping(address => bool)",
        "numberOfBytes": "32",
        "value": "t_bool"
      },
      "t_mapping(t_address,t_mapping(t_address,t_bool))": {
        "encoding": "mapping",
        "key": "t_address",
        "label": "mapping(address => mapping(address => bool))",
        "numberOfBytes": "32",
        "value": "t_mapping(t_address,t_bool)"
      },
      "t_mapping(t_address,t_struct(UintSet)4050_storage)": {
        "encoding": "mapping",
        "key": "t_address",
        "label": "mapping(address => struct EnumerableSet.UintSet)",
        "numberOfBytes": "32",
        "value": "t_struct(UintSet)4050_storage"
      },
      "t_mapping(t_bytes32,t_uint256)": {
        "encoding": "mapping",
        "key": "t_bytes32",
        "label": "mapping(bytes32 => uint256)",
        "numberOfBytes": "32",
        "value": "t_uint256"
      },
      "t_mapping(t_bytes4,t_bool)": {
        "encoding": "mapping",
        "key": "t_bytes4",
        "label": "mapping(bytes4 => bool)",
        "numberOfBytes": "32",
        "value": "t_bool"
      },
      "t_mapping(t_uint256,t_address)": {
        "encoding": "mapping",
        "key": "t_uint256",
        "label": "mapping(uint256 => address)",
        "numberOfBytes": "32",
        "value": "t_address"
      },
      "t_mapping(t_uint256,t_string_storage)": {
        "encoding": "mapping",
        "key": "t_uint256",
        "label": "mapping(uint256 => string)",
        "numberOfBytes": "32",
        "value": "t_string_storage"
      },
      "t_mapping(t_uint256,t_struct(Lock)18017_storage)": {
        "encoding": "mapping",
        "key": "t_uint256",
        "label": "mapping(uint256 => struct Lock)",
        "numberOfBytes": "32",
        "value": "t_struct(Lock)18017_storage"
      },
      "t_mapping(t_uint256,t_uint256)": {
        "encoding": "mapping",
        "key": "t_uint256",
        "label": "mapping(uint256 => uint256)",
        "numberOfBytes": "32",
        "value": "t_uint256"
      },
      "t_string_storage": {
        "encoding": "bytes",
        "label": "string",
        "numberOfBytes": "32"
      },
      "t_struct(AddressSet)3929_storage": {
        "encoding": "inplace",
        "label": "struct EnumerableSet.AddressSet",
        "members": [
          {
            "astId": 3928,
            "contract": "contracts/staking/iDSlocker.sol:iDSLocker",
            "label": "_inner",
            "offset": 0,
            "slot": "0",
            "type": "t_struct(Set)3664_storage"
          }
        ],
        "numberOfBytes": "64"
      },
      "t_struct(Lock)18017_storage": {
        "encoding": "inplace",
        "label": "struct Lock",
        "members": [
          {
            "astId": 18014,
            "contract": "contracts/staking/iDSlocker.sol:iDSLocker",
            "label": "amount",
            "offset": 0,
            "slot": "0",
            "type": "t_uint256"
          },
          {
            "astId": 18016,
            "contract": "contracts/staking/iDSlocker.sol:iDSLocker",
            "label": "end",
            "offset": 0,
            "slot": "1",
            "type": "t_uint256"
          }
        ],
        "numberOfBytes": "64"
      },
      "t_struct(Map)3109_storage": {
        "encoding": "inplace",
        "label": "struct EnumerableMap.Map",
        "members": [
          {
            "astId": 3104,
            "contract": "contracts/staking/iDSlocker.sol:iDSLocker",
            "label": "_entries",
            "offset": 0,
            "slot": "0",
            "type": "t_array(t_struct(MapEntry)3101_storage)dyn_storage"
          },
          {
            "astId": 3108,
            "contract": "contracts/staking/iDSlocker.sol:iDSLocker",
            "label": "_indexes",
            "offset": 0,
            "slot": "1",
            "type": "t_mapping(t_bytes32,t_uint256)"
          }
        ],
        "numberOfBytes": "64"
      },
      "t_struct(MapEntry)3101_storage": {
        "encoding": "inplace",
        "label": "struct EnumerableMap.MapEntry",
        "members": [
          {
            "astId": 3098,
            "contract": "contracts/staking/iDSlocker.sol:iDSLocker",
            "label": "_key",
            "offset": 0,
            "slot": "0",
            "type": "t_bytes32"
          },
          {
            "astId": 3100,
            "contract": "contracts/staking/iDSlocker.sol:iDSLocker",
            "label": "_value",
            "offset": 0,
            "slot": "1",
            "type": "t_bytes32"
          }
        ],
        "numberOfBytes": "64"
      },
      "t_struct(Set)3664_storage": {
        "encoding": "inplace",
        "label": "struct EnumerableSet.Set",
        "members": [
          {
            "astId": 3659,
            "contract": "contracts/staking/iDSlocker.sol:iDSLocker",
            "label": "_values",
            "offset": 0,
            "slot": "0",
            "type": "t_array(t_bytes32)dyn_storage"
          },
          {
            "astId": 3663,
            "contract": "contracts/staking/iDSlocker.sol:iDSLocker",
            "label": "_indexes",
            "offset": 0,
            "slot": "1",
            "type": "t_mapping(t_bytes32,t_uint256)"
          }
        ],
        "numberOfBytes": "64"
      },
      "t_struct(UintSet)4050_storage": {
        "encoding": "inplace",
        "label": "struct EnumerableSet.UintSet",
        "members": [
          {
            "astId": 4049,
            "contract": "contracts/staking/iDSlocker.sol:iDSLocker",
            "label": "_inner",
            "offset": 0,
            "slot": "0",
            "type": "t_struct(Set)3664_storage"
          }
        ],
        "numberOfBytes": "64"
      },
      "t_struct(UintToAddressMap)3427_storage": {
        "encoding": "inplace",
        "label": "struct EnumerableMap.UintToAddressMap",
        "members": [
          {
            "astId": 3426,
            "contract": "contracts/staking/iDSlocker.sol:iDSLocker",
            "label": "_inner",
            "offset": 0,
            "slot": "0",
            "type": "t_struct(Map)3109_storage"
          }
        ],
        "numberOfBytes": "64"
      },
      "t_uint256": {
        "encoding": "inplace",
        "label": "uint256",
        "numberOfBytes": "32"
      }
    }
  }
}