{
  "address": "0x2c0abcBfB23ffa8994bf603a766a037228ca6C27",
  "abi": [
    {
      "inputs": [],
      "stateMutability": "nonpayable",
      "type": "constructor"
    },
    {
      "anonymous": false,
      "inputs": [
        {
          "indexed": true,
          "internalType": "address",
          "name": "owner",
          "type": "address"
        },
        {
          "indexed": true,
          "internalType": "address",
          "name": "approved",
          "type": "address"
        },
        {
          "indexed": true,
          "internalType": "uint256",
          "name": "tokenId",
          "type": "uint256"
        }
      ],
      "name": "Approval",
      "type": "event"
    },
    {
      "anonymous": false,
      "inputs": [
        {
          "indexed": true,
          "internalType": "address",
          "name": "owner",
          "type": "address"
        },
        {
          "indexed": true,
          "internalType": "address",
          "name": "operator",
          "type": "address"
        },
        {
          "indexed": false,
          "internalType": "bool",
          "name": "approved",
          "type": "bool"
        }
      ],
      "name": "ApprovalForAll",
      "type": "event"
    },
    {
      "anonymous": false,
      "inputs": [
        {
          "indexed": true,
          "internalType": "address",
          "name": "from",
          "type": "address"
        },
        {
          "indexed": true,
          "internalType": "address",
          "name": "to",
          "type": "address"
        },
        {
          "indexed": true,
          "internalType": "uint256",
          "name": "tokenId",
          "type": "uint256"
        }
      ],
      "name": "Transfer",
      "type": "event"
    },
    {
      "inputs": [
        {
          "internalType": "address",
          "name": "to",
          "type": "address"
        },
        {
          "internalType": "uint256",
          "name": "tokenId",
          "type": "uint256"
        }
      ],
      "name": "approve",
      "outputs": [],
      "stateMutability": "nonpayable",
      "type": "function"
    },
    {
      "inputs": [
        {
          "internalType": "address",
          "name": "owner",
          "type": "address"
        }
      ],
      "name": "balanceOf",
      "outputs": [
        {
          "internalType": "uint256",
          "name": "",
          "type": "uint256"
        }
      ],
      "stateMutability": "view",
      "type": "function"
    },
    {
      "inputs": [
        {
          "internalType": "address",
          "name": "recipient",
          "type": "address"
        },
        {
          "internalType": "address",
          "name": "marketFactoryAddress",
          "type": "address"
        },
        {
          "internalType": "address",
          "name": "ammFactoryAddress",
          "type": "address"
        },
        {
          "internalType": "uint256[]",
          "name": "marketIds",
          "type": "uint256[]"
        },
        {
          "internalType": "uint256[]",
          "name": "outcomes",
          "type": "uint256[]"
        },
        {
          "internalType": "uint256[]",
          "name": "amounts",
          "type": "uint256[]"
        }
      ],
      "name": "buyBulk",
      "outputs": [
        {
          "internalType": "uint256",
          "name": "",
          "type": "uint256"
        }
      ],
      "stateMutability": "nonpayable",
      "type": "function"
    },
    {
      "inputs": [
        {
          "internalType": "address",
          "name": "holder",
          "type": "address"
        }
      ],
      "name": "getAPR",
      "outputs": [
        {
          "internalType": "uint256",
          "name": "",
          "type": "uint256"
        }
      ],
      "stateMutability": "view",
      "type": "function"
    },
    {
      "inputs": [
        {
          "internalType": "uint256",
          "name": "tokenId",
          "type": "uint256"
        }
      ],
      "name": "getApproved",
      "outputs": [
        {
          "internalType": "address",
          "name": "",
          "type": "address"
        }
      ],
      "stateMutability": "view",
      "type": "function"
    },
    {
      "inputs": [
        {
          "internalType": "address",
          "name": "user",
          "type": "address"
        }
      ],
      "name": "getUserLockId",
      "outputs": [
        {
          "internalType": "uint256[]",
          "name": "",
          "type": "uint256[]"
        }
      ],
      "stateMutability": "view",
      "type": "function"
    },
    {
      "inputs": [
        {
          "internalType": "address",
          "name": "user",
          "type": "address"
        }
      ],
      "name": "getUserTotalBalance",
      "outputs": [
        {
          "components": [
            {
              "internalType": "uint256[]",
              "name": "token_amounts",
              "type": "uint256[]"
            },
            {
              "internalType": "uint256[]",
              "name": "marketIds",
              "type": "uint256[]"
            },
            {
              "internalType": "uint256[]",
              "name": "outcomes",
              "type": "uint256[]"
            },
            {
              "internalType": "uint256",
              "name": "lockId",
              "type": "uint256"
            }
          ],
          "internalType": "struct IndexCDS.Index_info[]",
          "name": "",
          "type": "tuple[]"
        }
      ],
      "stateMutability": "view",
      "type": "function"
    },
    {
      "inputs": [
        {
          "internalType": "address",
          "name": "owner",
          "type": "address"
        },
        {
          "internalType": "address",
          "name": "operator",
          "type": "address"
        }
      ],
      "name": "isApprovedForAll",
      "outputs": [
        {
          "internalType": "bool",
          "name": "",
          "type": "bool"
        }
      ],
      "stateMutability": "view",
      "type": "function"
    },
    {
      "inputs": [],
      "name": "name",
      "outputs": [
        {
          "internalType": "string",
          "name": "",
          "type": "string"
        }
      ],
      "stateMutability": "view",
      "type": "function"
    },
    {
      "inputs": [
        {
          "internalType": "uint256",
          "name": "tokenId",
          "type": "uint256"
        }
      ],
      "name": "ownerOf",
      "outputs": [
        {
          "internalType": "address",
          "name": "",
          "type": "address"
        }
      ],
      "stateMutability": "view",
      "type": "function"
    },
    {
      "inputs": [
        {
          "internalType": "address",
          "name": "from",
          "type": "address"
        },
        {
          "internalType": "address",
          "name": "to",
          "type": "address"
        },
        {
          "internalType": "uint256",
          "name": "tokenId",
          "type": "uint256"
        }
      ],
      "name": "safeTransferFrom",
      "outputs": [],
      "stateMutability": "nonpayable",
      "type": "function"
    },
    {
      "inputs": [
        {
          "internalType": "address",
          "name": "from",
          "type": "address"
        },
        {
          "internalType": "address",
          "name": "to",
          "type": "address"
        },
        {
          "internalType": "uint256",
          "name": "tokenId",
          "type": "uint256"
        },
        {
          "internalType": "bytes",
          "name": "data",
          "type": "bytes"
        }
      ],
      "name": "safeTransferFrom",
      "outputs": [],
      "stateMutability": "nonpayable",
      "type": "function"
    },
    {
      "inputs": [
        {
          "internalType": "address",
          "name": "recipient",
          "type": "address"
        },
        {
          "internalType": "uint256",
          "name": "lockID",
          "type": "uint256"
        },
        {
          "internalType": "address",
          "name": "marketFactoryAddress",
          "type": "address"
        },
        {
          "internalType": "address",
          "name": "ammFactoryAddress",
          "type": "address"
        }
      ],
      "name": "sellBulk",
      "outputs": [],
      "stateMutability": "nonpayable",
      "type": "function"
    },
    {
      "inputs": [
        {
          "internalType": "address",
          "name": "operator",
          "type": "address"
        },
        {
          "internalType": "bool",
          "name": "approved",
          "type": "bool"
        }
      ],
      "name": "setApprovalForAll",
      "outputs": [],
      "stateMutability": "nonpayable",
      "type": "function"
    },
    {
      "inputs": [
        {
          "internalType": "bytes4",
          "name": "interfaceId",
          "type": "bytes4"
        }
      ],
      "name": "supportsInterface",
      "outputs": [
        {
          "internalType": "bool",
          "name": "",
          "type": "bool"
        }
      ],
      "stateMutability": "view",
      "type": "function"
    },
    {
      "inputs": [],
      "name": "symbol",
      "outputs": [
        {
          "internalType": "string",
          "name": "",
          "type": "string"
        }
      ],
      "stateMutability": "view",
      "type": "function"
    },
    {
      "inputs": [
        {
          "internalType": "uint256",
          "name": "tokenId",
          "type": "uint256"
        }
      ],
      "name": "tokenURI",
      "outputs": [
        {
          "internalType": "string",
          "name": "",
          "type": "string"
        }
      ],
      "stateMutability": "view",
      "type": "function"
    },
    {
      "inputs": [],
      "name": "totalNumMints",
      "outputs": [
        {
          "internalType": "uint256",
          "name": "",
          "type": "uint256"
        }
      ],
      "stateMutability": "view",
      "type": "function"
    },
    {
      "inputs": [
        {
          "internalType": "address",
          "name": "from",
          "type": "address"
        },
        {
          "internalType": "address",
          "name": "to",
          "type": "address"
        },
        {
          "internalType": "uint256",
          "name": "tokenId",
          "type": "uint256"
        }
      ],
      "name": "transferFrom",
      "outputs": [],
      "stateMutability": "nonpayable",
      "type": "function"
    }
  ],
  "transactionHash": "0xf2d12f3f2535c2cf07319b518fed47f5eb13bae3ea41c85b29ac80ab9ab941ca",
  "args": [],
  "numDeployments": 4,
  "solcInputHash": "682a37cc14a38ce0b7923449370aad26",
  "bytecode": "0x608060405260026008553480156200001657600080fd5b506040805180820182526008815267496e64657843445360c01b6020808301918252835180850190945260048452636943445360e01b908401528151919291620000639160009162000087565b5080516200007990600190602084019062000087565b50506001600655506200016a565b82805462000095906200012d565b90600052602060002090601f016020900481019282620000b9576000855562000104565b82601f10620000d457805160ff191683800117855562000104565b8280016001018555821562000104579182015b8281111562000104578251825591602001919060010190620000e7565b506200011292915062000116565b5090565b5b8082111562000112576000815560010162000117565b600181811c908216806200014257607f821691505b602082108114156200016457634e487b7160e01b600052602260045260246000fd5b50919050565b61313b806200017a6000396000f3fe608060405234801561001057600080fd5b50600436106101215760003560e01c806370a08231116100ad578063b88d4fde11610071578063b88d4fde1461027f578063bcc6c00e14610292578063c87b56dd1461029b578063e985e9c5146102ae578063f1dbe205146102ea57600080fd5b806370a08231146102115780637923076c14610224578063850d4eee1461024457806395d89b4114610264578063a22cb4651461026c57600080fd5b80631c5122d9116100f45780631c5122d9146101a357806323b872dd146101c557806342842e0e146101d857806345fb2f63146101eb5780636352211e146101fe57600080fd5b806301ffc9a71461012657806306fdde031461014e578063081812fc14610163578063095ea7b31461018e575b600080fd5b610139610134366004612afa565b6102fd565b60405190151581526020015b60405180910390f35b61015661034f565b6040516101459190612e63565b610176610171366004612c52565b6103e1565b6040516001600160a01b039091168152602001610145565b6101a161019c366004612a61565b610408565b005b6101b76101b136600461282b565b50600190565b604051908152602001610145565b6101a16101d3366004612939565b610523565b6101a16101e6366004612939565b610554565b6101b76101f936600461287f565b61056f565b61017661020c366004612c52565b6108fd565b6101b761021f36600461282b565b61095d565b61023761023236600461282b565b6109e3565b6040516101459190612d66565b61025761025236600461282b565b610c7a565b6040516101459190612e11565b610156610ce6565b6101a161027a366004612a34565b610cf5565b6101a161028d366004612979565b610d04565b6101b760075481565b6101566102a9366004612c52565b610d3c565b6101396102bc366004612847565b6001600160a01b03918216600090815260056020908152604080832093909416825291909152205460ff1690565b6101a16102f8366004612a8c565b610db0565b60006001600160e01b031982166380ac58cd60e01b148061032e57506001600160e01b03198216635b5e139f60e01b145b8061034957506301ffc9a760e01b6001600160e01b03198316145b92915050565b60606000805461035e90613020565b80601f016020809104026020016040519081016040528092919081815260200182805461038a90613020565b80156103d75780601f106103ac576101008083540402835291602001916103d7565b820191906000526020600020905b8154815290600101906020018083116103ba57829003601f168201915b5050505050905090565b60006103ec8261122c565b506000908152600460205260409020546001600160a01b031690565b6000610413826108fd565b9050806001600160a01b0316836001600160a01b031614156104865760405162461bcd60e51b815260206004820152602160248201527f4552433732313a20617070726f76616c20746f2063757272656e74206f776e656044820152603960f91b60648201526084015b60405180910390fd5b336001600160a01b03821614806104a257506104a281336102bc565b6105145760405162461bcd60e51b815260206004820152603e60248201527f4552433732313a20617070726f76652063616c6c6572206973206e6f7420746f60448201527f6b656e206f776e6572206e6f7220617070726f76656420666f7220616c6c0000606482015260840161047d565b61051e838361128e565b505050565b61052d33826112fc565b6105495760405162461bcd60e51b815260040161047d90612ec8565b61051e83838361137b565b61051e83838360405180602001604052806000815250610d04565b60008084519050600086905060008890506000816001600160a01b031663d8dfeb456040518163ffffffff1660e01b815260040160206040518083038186803b1580156105bb57600080fd5b505afa1580156105cf573d6000803e3d6000fd5b505050506040513d601f19601f820116820180604052508101906105f39190612b32565b90506000846001600160401b0381111561061d57634e487b7160e01b600052604160045260246000fd5b604051908082528060200260200182016040528015610646578160200160208202803683370190505b5090506000856001600160401b0381111561067157634e487b7160e01b600052604160045260246000fd5b60405190808252806020026020018201604052801561069a578160200160208202803683370190505b5090506000866001600160401b038111156106c557634e487b7160e01b600052604160045260246000fd5b6040519080825280602002602001820160405280156106ee578160200160208202803683370190505b50905060006106fe8c8c8c611517565b905060005b888110156108445761073f8789883386868151811061073257634e487b7160e01b600052603260045260246000fd5b602002602001015161167d565b84828151811061075f57634e487b7160e01b600052603260045260246000fd5b60200260200101818152505061079c8783838151811061078f57634e487b7160e01b600052603260045260246000fd5b6020026020010151611844565b8382815181106107bc57634e487b7160e01b600052603260045260246000fd5b60200260200101906001600160a01b031690816001600160a01b0316815250506108078382815181106107ff57634e487b7160e01b600052603260045260246000fd5b506001919050565b85828151811061082757634e487b7160e01b600052603260045260246000fd5b60209081029190910101528061083c8161305b565b915050610703565b506000610855336000878787611908565b905060405180608001604052808581526020018e81526020018d8152602001828152506009600083815260200190815260200160002060008201518160000190805190602001906108a792919061260f565b5060208281015180516108c0926001850192019061260f565b50604082015180516108dc91600284019160209091019061260f565b50606091909101516003909101559f9e505050505050505050505050505050565b6000818152600260205260408120546001600160a01b0316806103495760405162461bcd60e51b8152602060048201526018602482015277115490cdcc8c4e881a5b9d985b1a59081d1bdad95b88125160421b604482015260640161047d565b60006001600160a01b0382166109c75760405162461bcd60e51b815260206004820152602960248201527f4552433732313a2061646472657373207a65726f206973206e6f7420612076616044820152683634b21037bbb732b960b91b606482015260840161047d565b506001600160a01b031660009081526003602052604090205490565b6001600160a01b0381166000908152600b60209081526040808320805482518185028101850190935280835260609493830182828015610a4257602002820191906000526020600020905b815481526020019060010190808311610a2e575b50505050509050600081516001600160401b03811115610a7257634e487b7160e01b600052604160045260246000fd5b604051908082528060200260200182016040528015610ace57816020015b610abb6040518060800160405280606081526020016060815260200160608152602001600081525090565b815260200190600190039081610a905790505b50905060005b8251811015610c725760096000848381518110610b0157634e487b7160e01b600052603260045260246000fd5b6020026020010151815260200190815260200160002060405180608001604052908160008201805480602002602001604051908101604052809291908181526020018280548015610b7157602002820191906000526020600020905b815481526020019060010190808311610b5d575b5050505050815260200160018201805480602002602001604051908101604052809291908181526020018280548015610bc957602002820191906000526020600020905b815481526020019060010190808311610bb5575b5050505050815260200160028201805480602002602001604051908101604052809291908181526020018280548015610c2157602002820191906000526020600020905b815481526020019060010190808311610c0d575b50505050508152602001600382015481525050828281518110610c5457634e487b7160e01b600052603260045260246000fd5b60200260200101819052508080610c6a9061305b565b915050610ad4565b509392505050565b6001600160a01b0381166000908152600b6020908152604091829020805483518184028101840190945280845260609392830182828015610cda57602002820191906000526020600020905b815481526020019060010190808311610cc6575b50505050509050919050565b60606001805461035e90613020565b610d00338383611b44565b5050565b610d0e33836112fc565b610d2a5760405162461bcd60e51b815260040161047d90612ec8565b610d3684848484611c13565b50505050565b6060610d478261122c565b6000610d5e60408051602081019091526000815290565b90506000815111610d7e5760405180602001604052806000815250610da9565b80610d8884611c46565b604051602001610d99929190612d04565b6040516020818303038152906040525b9392505050565b600081905060008390506000816001600160a01b031663d8dfeb456040518163ffffffff1660e01b815260040160206040518083038186803b158015610df557600080fd5b505afa158015610e09573d6000803e3d6000fd5b505050506040513d601f19601f82011682018060405250810190610e2d9190612b32565b60008781526009602090815260408083208151815460a094810282018501909352608081018381529596509394909284928491840182828015610e8f57602002820191906000526020600020905b815481526020019060010190808311610e7b575b5050505050815260200160018201805480602002602001604051908101604052809291908181526020018280548015610ee757602002820191906000526020600020905b815481526020019060010190808311610ed3575b5050505050815260200160028201805480602002602001604051908101604052809291908181526020018280548015610f3f57602002820191906000526020600020905b815481526020019060010190808311610f2b575b50505050508152602001600382015481525050905060006008546001600160401b03811115610f7e57634e487b7160e01b600052604160045260246000fd5b604051908082528060200260200182016040528015610fa7578160200160208202803683370190505b50602083015151909150600090815b818110156111915760005b600854811015611032578551805183908110610fed57634e487b7160e01b600052603260045260246000fd5b602002602001015185828151811061101557634e487b7160e01b600052603260045260246000fd5b60209081029190910101528061102a8161305b565b915050610fc1565b5061109687898760200151848151811061105c57634e487b7160e01b600052603260045260246000fd5b60200260200101518860400151858151811061108857634e487b7160e01b600052603260045260246000fd5b602002602001015188611d5f565b876001600160a01b03166360cac85a88876020015184815181106110ca57634e487b7160e01b600052603260045260246000fd5b6020026020010151886040015185815181106110f657634e487b7160e01b600052603260045260246000fd5b60200260200101518860006040518663ffffffff1660e01b8152600401611121959493929190612e24565b602060405180830381600087803b15801561113b57600080fd5b505af115801561114f573d6000803e3d6000fd5b505050506040513d601f19601f820116820180604052508101906111739190612c6a565b61117d9084612f92565b9250806111898161305b565b915050610fb6565b5061119e8b8b6000611f03565b60405163a9059cbb60e01b8152336004820152602481018390526001600160a01b0386169063a9059cbb90604401602060405180830381600087803b1580156111e657600080fd5b505af11580156111fa573d6000803e3d6000fd5b505050506040513d601f19601f8201168201806040525081019061121e9190612ade565b505050505050505050505050565b6000818152600260205260409020546001600160a01b031661128b5760405162461bcd60e51b8152602060048201526018602482015277115490cdcc8c4e881a5b9d985b1a59081d1bdad95b88125160421b604482015260640161047d565b50565b600081815260046020526040902080546001600160a01b0319166001600160a01b03841690811790915581906112c3826108fd565b6001600160a01b03167f8c5be1e5ebec7d5bd14f71427d1e84f3dd0314c0f7b2291e5b200ac8c7c3b92560405160405180910390a45050565b600080611308836108fd565b9050806001600160a01b0316846001600160a01b0316148061134f57506001600160a01b0380821660009081526005602090815260408083209388168352929052205460ff165b806113735750836001600160a01b0316611368846103e1565b6001600160a01b0316145b949350505050565b826001600160a01b031661138e826108fd565b6001600160a01b0316146113f25760405162461bcd60e51b815260206004820152602560248201527f4552433732313a207472616e736665722066726f6d20696e636f72726563742060448201526437bbb732b960d91b606482015260840161047d565b6001600160a01b0382166114545760405162461bcd60e51b8152602060048201526024808201527f4552433732313a207472616e7366657220746f20746865207a65726f206164646044820152637265737360e01b606482015260840161047d565b61145f60008261128e565b6001600160a01b0383166000908152600360205260408120805460019290611488908490612fdd565b90915550506001600160a01b03821660009081526003602052604081208054600192906114b6908490612f92565b909155505060008181526002602052604080822080546001600160a01b0319166001600160a01b0386811691821790925591518493918716917fddf252ad1be2c89b69c2b068fc378daa952ba7f163c4a11628f55a4df523b3ef91a4505050565b6060600084516001600160401b0381111561154257634e487b7160e01b600052604160045260246000fd5b60405190808252806020026020018201604052801561159757816020015b61158460405180606001604052806000815260200160008152602001600081525090565b8152602001906001900390816115605790505b50905060005b85518110156116745760405180606001604052808583815181106115d157634e487b7160e01b600052603260045260246000fd5b602002602001015181526020018783815181106115fe57634e487b7160e01b600052603260045260246000fd5b6020026020010151815260200186838151811061162b57634e487b7160e01b600052603260045260246000fd5b602002602001015181525082828151811061165657634e487b7160e01b600052603260045260246000fd5b6020026020010181905250808061166c9061305b565b91505061159d565b50949350505050565b80516040516323b872dd60e01b81526001600160a01b03848116600483015230602483015260448201929092526000918516906323b872dd90606401602060405180830381600087803b1580156116d357600080fd5b505af11580156116e7573d6000803e3d6000fd5b505050506040513d601f19601f8201168201806040525081019061170b9190612ade565b50815160405163095ea7b360e01b81526001600160a01b03878116600483015260248201929092529085169063095ea7b390604401602060405180830381600087803b15801561175a57600080fd5b505af115801561176e573d6000803e3d6000fd5b505050506040513d601f19601f820116820180604052508101906117929190612ade565b5060208201516040808401518451915163072b60c360e41b81526001600160a01b038a8116600483015260248201949094526044810191909152606481019190915260006084820152908616906372b60c309060a401602060405180830381600087803b15801561180257600080fd5b505af1158015611816573d6000803e3d6000fd5b505050506040513d601f19601f8201168201806040525081019061183a9190612c6a565b9695505050505050565b600080836001600160a01b031663eb44fdd384602001516040518263ffffffff1660e01b815260040161187991815260200190565b60006040518083038186803b15801561189157600080fd5b505afa1580156118a5573d6000803e3d6000fd5b505050506040513d6000823e601f3d908101601f191682016040526118cd9190810190612b4e565b905080602001518360400151815181106118f757634e487b7160e01b600052603260045260246000fd5b602002602001015191505092915050565b60008060076000815461191a9061305b565b918290555085519091506000805b82811015611a9a5786818151811061195057634e487b7160e01b600052603260045260246000fd5b602002602001015188828151811061197857634e487b7160e01b600052603260045260246000fd5b602002602001015161198a9190612fbe565b6119949083612f92565b91508815611a88578581815181106119bc57634e487b7160e01b600052603260045260246000fd5b60200260200101516001600160a01b03166323b872dd8b308a85815181106119f457634e487b7160e01b600052603260045260246000fd5b60209081029190910101516040516001600160e01b031960e086901b1681526001600160a01b0393841660048201529290911660248301526044820152606401602060405180830381600087803b158015611a4e57600080fd5b505af1158015611a62573d6000803e3d6000fd5b505050506040513d601f19601f82011682018060405250810190611a869190612ade565b505b80611a928161305b565b915050611928565b506040805160608101825282815260208082018981528284018990526000878152600a8352939093208251815592518051929384939092611ae292600185019291019061260f565b5060408201518051611afe91600284019160209091019061265a565b5050506001600160a01b038a166000908152600b6020908152604082208054600181018255908352912001849055611b368a856120a0565b509198975050505050505050565b816001600160a01b0316836001600160a01b03161415611ba65760405162461bcd60e51b815260206004820152601960248201527f4552433732313a20617070726f766520746f2063616c6c657200000000000000604482015260640161047d565b6001600160a01b03838116600081815260056020908152604080832094871680845294825291829020805460ff191686151590811790915591519182527f17307eab39ab6107e8899845ad3d59bd9653f200f220920489ca2b5937696c31910160405180910390a3505050565b611c1e84848461137b565b611c2a848484846120ba565b610d365760405162461bcd60e51b815260040161047d90612e76565b606081611c6a5750506040805180820190915260018152600360fc1b602082015290565b8160005b8115611c945780611c7e8161305b565b9150611c8d9050600a83612faa565b9150611c6e565b6000816001600160401b03811115611cbc57634e487b7160e01b600052604160045260246000fd5b6040519080825280601f01601f191660200182016040528015611ce6576020820181803683370190505b5090505b841561137357611cfb600183612fdd565b9150611d08600a86613076565b611d13906030612f92565b60f81b818381518110611d3657634e487b7160e01b600052603260045260246000fd5b60200101906001600160f81b031916908160001a905350611d58600a86612faa565b9450611cea565b6000818381518110611d8157634e487b7160e01b600052603260045260246000fd5b602002602001015111611d9357600080fd5b60405163eb44fdd360e01b8152600481018490526000906001600160a01b0387169063eb44fdd39060240160006040518083038186803b158015611dd657600080fd5b505afa158015611dea573d6000803e3d6000fd5b505050506040513d6000823e601f3d908101601f19168201604052611e129190810190612b4e565b905080602001518381518110611e3857634e487b7160e01b600052603260045260246000fd5b60200260200101516001600160a01b031663095ea7b386848681518110611e6f57634e487b7160e01b600052603260045260246000fd5b60200260200101516040518363ffffffff1660e01b8152600401611ea89291906001600160a01b03929092168252602082015260400190565b602060405180830381600087803b158015611ec257600080fd5b505af1158015611ed6573d6000803e3d6000fd5b505050506040513d601f19601f82011682018060405250810190611efa9190612ade565b50505050505050565b6000828152600a602090815260408083208151606081018352815481526001820180548451818702810187019095528085529194929385840193909290830182828015611f6f57602002820191906000526020600020905b815481526020019060010190808311611f5b575b5050505050815260200160028201805480602002602001604051908101604052809291908181526020018280548015611fd157602002820191906000526020600020905b81546001600160a01b03168152600190910190602001808311611fb3575b50505091909252505050602081015151909150821561206a5760005b81811015612068576120568360400151828151811061201c57634e487b7160e01b600052603260045260246000fd5b6020026020010151878560200151848151811061204957634e487b7160e01b600052603260045260246000fd5b60200260200101516121c7565b806120608161305b565b915050611fed565b505b61207384612219565b6000848152600a602052604081208181559061209260018301826126af565b611efa6002830160006126af565b610d008282604051806020016040528060008152506122b4565b60006001600160a01b0384163b156121bc57604051630a85bd0160e11b81526001600160a01b0385169063150b7a02906120fe903390899088908890600401612d33565b602060405180830381600087803b15801561211857600080fd5b505af1925050508015612148575060408051601f3d908101601f1916820190925261214591810190612b16565b60015b6121a2573d808015612176576040519150601f19603f3d011682016040523d82523d6000602084013e61217b565b606091505b50805161219a5760405162461bcd60e51b815260040161047d90612e76565b805181602001fd5b6001600160e01b031916630a85bd0160e11b149050611373565b506001949350505050565b604080516001600160a01b038416602482015260448082018490528251808303909101815260649091019091526020810180516001600160e01b031663a9059cbb60e01b17905261051e9084906122e7565b6000612224826108fd565b905061223160008361128e565b6001600160a01b038116600090815260036020526040812080546001929061225a908490612fdd565b909155505060008281526002602052604080822080546001600160a01b0319169055518391906001600160a01b038416907fddf252ad1be2c89b69c2b068fc378daa952ba7f163c4a11628f55a4df523b3ef908390a45050565b6122be83836123b9565b6122cb60008484846120ba565b61051e5760405162461bcd60e51b815260040161047d90612e76565b600061233c826040518060400160405280602081526020017f5361666545524332303a206c6f772d6c6576656c2063616c6c206661696c6564815250856001600160a01b03166124fb9092919063ffffffff16565b80519091501561051e578080602001905181019061235a9190612ade565b61051e5760405162461bcd60e51b815260206004820152602a60248201527f5361666545524332303a204552433230206f7065726174696f6e20646964206e6044820152691bdd081cdd58d8d9595960b21b606482015260840161047d565b6001600160a01b03821661240f5760405162461bcd60e51b815260206004820181905260248201527f4552433732313a206d696e7420746f20746865207a65726f2061646472657373604482015260640161047d565b6000818152600260205260409020546001600160a01b0316156124745760405162461bcd60e51b815260206004820152601c60248201527f4552433732313a20746f6b656e20616c7265616479206d696e74656400000000604482015260640161047d565b6001600160a01b038216600090815260036020526040812080546001929061249d908490612f92565b909155505060008181526002602052604080822080546001600160a01b0319166001600160a01b03861690811790915590518392907fddf252ad1be2c89b69c2b068fc378daa952ba7f163c4a11628f55a4df523b3ef908290a45050565b60606113738484600085856001600160a01b0385163b61255d5760405162461bcd60e51b815260206004820152601d60248201527f416464726573733a2063616c6c20746f206e6f6e2d636f6e7472616374000000604482015260640161047d565b600080866001600160a01b031685876040516125799190612ce8565b60006040518083038185875af1925050503d80600081146125b6576040519150601f19603f3d011682016040523d82523d6000602084013e6125bb565b606091505b50915091506125cb8282866125d6565b979650505050505050565b606083156125e5575081610da9565b8251156125f55782518084602001fd5b8160405162461bcd60e51b815260040161047d9190612e63565b82805482825590600052602060002090810192821561264a579160200282015b8281111561264a57825182559160200191906001019061262f565b506126569291506126c9565b5090565b82805482825590600052602060002090810192821561264a579160200282015b8281111561264a57825182546001600160a01b0319166001600160a01b0390911617825560209092019160019091019061267a565b508054600082559060005260206000209081019061128b91905b5b8082111561265657600081556001016126ca565b80516126e9816130cc565b919050565b600082601f8301126126fe578081fd5b8151602061271361270e83612f6f565b612f3f565b80838252828201915082860187848660051b8901011115612732578586fd5b855b85811015612759578151612747816130cc565b84529284019290840190600101612734565b5090979650505050505050565b600082601f830112612776578081fd5b8135602061278661270e83612f6f565b80838252828201915082860187848660051b89010111156127a5578586fd5b855b85811015612759578135845292840192908401906001016127a7565b600082601f8301126127d3578081fd5b815160206127e361270e83612f6f565b80838252828201915082860187848660051b8901011115612802578586fd5b855b8581101561275957815184529284019290840190600101612804565b80516126e9816130e1565b60006020828403121561283c578081fd5b8135610da9816130cc565b60008060408385031215612859578081fd5b8235612864816130cc565b91506020830135612874816130cc565b809150509250929050565b60008060008060008060c08789031215612897578182fd5b86356128a2816130cc565b955060208701356128b2816130cc565b945060408701356128c2816130cc565b935060608701356001600160401b03808211156128dd578384fd5b6128e98a838b01612766565b945060808901359150808211156128fe578384fd5b61290a8a838b01612766565b935060a089013591508082111561291f578283fd5b5061292c89828a01612766565b9150509295509295509295565b60008060006060848603121561294d578081fd5b8335612958816130cc565b92506020840135612968816130cc565b929592945050506040919091013590565b6000806000806080858703121561298e578182fd5b8435612999816130cc565b93506020858101356129aa816130cc565b93506040860135925060608601356001600160401b03808211156129cc578384fd5b818801915088601f8301126129df578384fd5b8135818111156129f1576129f16130b6565b612a03601f8201601f19168501612f3f565b91508082528984828501011115612a18578485fd5b8084840185840137810190920192909252939692955090935050565b60008060408385031215612a46578182fd5b8235612a51816130cc565b91506020830135612874816130e1565b60008060408385031215612a73578182fd5b8235612a7e816130cc565b946020939093013593505050565b60008060008060808587031215612aa1578182fd5b8435612aac816130cc565b9350602085013592506040850135612ac3816130cc565b91506060850135612ad3816130cc565b939692955090935050565b600060208284031215612aef578081fd5b8151610da9816130e1565b600060208284031215612b0b578081fd5b8135610da9816130ef565b600060208284031215612b27578081fd5b8151610da9816130ef565b600060208284031215612b43578081fd5b8151610da9816130cc565b600060208284031215612b5f578081fd5b81516001600160401b0380821115612b75578283fd5b908301906101608286031215612b89578283fd5b612b91612f16565b612b9a836126de565b8152602083015182811115612bad578485fd5b612bb9878286016126ee565b602083015250612bcb604084016126de565b6040820152606083015160608201526080830151608082015260a083015160a082015260c083015160c082015260e083015160e08201526101008084015181830152506101208084015183811115612c21578586fd5b612c2d888287016127c3565b8284015250506101409150612c43828401612820565b91810191909152949350505050565b600060208284031215612c63578081fd5b5035919050565b600060208284031215612c7b578081fd5b5051919050565b6000815180845260208085019450808401835b83811015612cb157815187529582019590820190600101612c95565b509495945050505050565b60008151808452612cd4816020860160208601612ff4565b601f01601f19169290920160200192915050565b60008251612cfa818460208701612ff4565b9190910192915050565b60008351612d16818460208801612ff4565b835190830190612d2a818360208801612ff4565b01949350505050565b6001600160a01b038581168252841660208201526040810183905260806060820181905260009061183a90830184612cbc565b60006020808301818452808551808352604092508286019150828160051b870101848801865b83811015612e0357603f19898403018552815160808151818652612db282870182612c82565b915050888201518582038a870152612dca8282612c82565b9150508782015185820389870152612de28282612c82565b60609384015196909301959095525094870194925090860190600101612d8c565b509098975050505050505050565b602081526000610da96020830184612c82565b60018060a01b038616815284602082015283604082015260a060608201526000612e5160a0830185612c82565b90508260808301529695505050505050565b602081526000610da96020830184612cbc565b60208082526032908201527f4552433732313a207472616e7366657220746f206e6f6e20455243373231526560408201527131b2b4bb32b91034b6b83632b6b2b73a32b960711b606082015260800190565b6020808252602e908201527f4552433732313a2063616c6c6572206973206e6f7420746f6b656e206f776e6560408201526d1c881b9bdc88185c1c1c9bdd995960921b606082015260800190565b60405161016081016001600160401b0381118282101715612f3957612f396130b6565b60405290565b604051601f8201601f191681016001600160401b0381118282101715612f6757612f676130b6565b604052919050565b60006001600160401b03821115612f8857612f886130b6565b5060051b60200190565b60008219821115612fa557612fa561308a565b500190565b600082612fb957612fb96130a0565b500490565b6000816000190483118215151615612fd857612fd861308a565b500290565b600082821015612fef57612fef61308a565b500390565b60005b8381101561300f578181015183820152602001612ff7565b83811115610d365750506000910152565b600181811c9082168061303457607f821691505b6020821081141561305557634e487b7160e01b600052602260045260246000fd5b50919050565b600060001982141561306f5761306f61308a565b5060010190565b600082613085576130856130a0565b500690565b634e487b7160e01b600052601160045260246000fd5b634e487b7160e01b600052601260045260246000fd5b634e487b7160e01b600052604160045260246000fd5b6001600160a01b038116811461128b57600080fd5b801515811461128b57600080fd5b6001600160e01b03198116811461128b57600080fdfea2646970667358221220bf41f14482c06ea5ae1ffa218c386c2db29c6fe61dc0ed5c228822ccc31e560064736f6c63430008040033",
  "devdoc": {
    "kind": "dev",
    "methods": {
      "approve(address,uint256)": {
        "details": "See {IERC721-approve}."
      },
      "balanceOf(address)": {
        "details": "See {IERC721-balanceOf}."
      },
      "getApproved(uint256)": {
        "details": "See {IERC721-getApproved}."
      },
      "isApprovedForAll(address,address)": {
        "details": "See {IERC721-isApprovedForAll}."
      },
      "name()": {
        "details": "See {IERC721Metadata-name}."
      },
      "ownerOf(uint256)": {
        "details": "See {IERC721-ownerOf}."
      },
      "safeTransferFrom(address,address,uint256)": {
        "details": "See {IERC721-safeTransferFrom}."
      },
      "safeTransferFrom(address,address,uint256,bytes)": {
        "details": "See {IERC721-safeTransferFrom}."
      },
      "setApprovalForAll(address,bool)": {
        "details": "See {IERC721-setApprovalForAll}."
      },
      "supportsInterface(bytes4)": {
        "details": "See {IERC165-supportsInterface}."
      },
      "symbol()": {
        "details": "See {IERC721Metadata-symbol}."
      },
      "tokenURI(uint256)": {
        "details": "See {IERC721Metadata-tokenURI}."
      },
      "transferFrom(address,address,uint256)": {
        "details": "See {IERC721-transferFrom}."
      }
    },
    "version": 1
  },
  "userdoc": {
    "kind": "user",
    "methods": {},
    "version": 1
  },
  "storageLayout": {
    "storage": [
      {
        "astId": 2239,
        "contract": "contracts/stablecoin/indexCDS.sol:IndexCDS",
        "label": "_name",
        "offset": 0,
        "slot": "0",
        "type": "t_string_storage"
      },
      {
        "astId": 2241,
        "contract": "contracts/stablecoin/indexCDS.sol:IndexCDS",
        "label": "_symbol",
        "offset": 0,
        "slot": "1",
        "type": "t_string_storage"
      },
      {
        "astId": 2245,
        "contract": "contracts/stablecoin/indexCDS.sol:IndexCDS",
        "label": "_owners",
        "offset": 0,
        "slot": "2",
        "type": "t_mapping(t_uint256,t_address)"
      },
      {
        "astId": 2249,
        "contract": "contracts/stablecoin/indexCDS.sol:IndexCDS",
        "label": "_balances",
        "offset": 0,
        "slot": "3",
        "type": "t_mapping(t_address,t_uint256)"
      },
      {
        "astId": 2253,
        "contract": "contracts/stablecoin/indexCDS.sol:IndexCDS",
        "label": "_tokenApprovals",
        "offset": 0,
        "slot": "4",
        "type": "t_mapping(t_uint256,t_address)"
      },
      {
        "astId": 2259,
        "contract": "contracts/stablecoin/indexCDS.sol:IndexCDS",
        "label": "_operatorApprovals",
        "offset": 0,
        "slot": "5",
        "type": "t_mapping(t_address,t_mapping(t_address,t_bool))"
      },
      {
        "astId": 1178,
        "contract": "contracts/stablecoin/indexCDS.sol:IndexCDS",
        "label": "_status",
        "offset": 0,
        "slot": "6",
        "type": "t_uint256"
      },
      {
        "astId": 17903,
        "contract": "contracts/stablecoin/indexCDS.sol:IndexCDS",
        "label": "totalNumMints",
        "offset": 0,
        "slot": "7",
        "type": "t_uint256"
      },
      {
        "astId": 17906,
        "contract": "contracts/stablecoin/indexCDS.sol:IndexCDS",
        "label": "num_outcomes",
        "offset": 0,
        "slot": "8",
        "type": "t_uint256"
      },
      {
        "astId": 17911,
        "contract": "contracts/stablecoin/indexCDS.sol:IndexCDS",
        "label": "index_infos",
        "offset": 0,
        "slot": "9",
        "type": "t_mapping(t_uint256,t_struct(Index_info)17894_storage)"
      },
      {
        "astId": 17916,
        "contract": "contracts/stablecoin/indexCDS.sol:IndexCDS",
        "label": "indexes",
        "offset": 0,
        "slot": "10",
        "type": "t_mapping(t_uint256,t_struct(Index)17882_storage)"
      },
      {
        "astId": 17921,
        "contract": "contracts/stablecoin/indexCDS.sol:IndexCDS",
        "label": "address_to_id",
        "offset": 0,
        "slot": "11",
        "type": "t_mapping(t_address,t_array(t_uint256)dyn_storage)"
      }
    ],
    "types": {
      "t_address": {
        "encoding": "inplace",
        "label": "address",
        "numberOfBytes": "20"
      },
      "t_array(t_address)dyn_storage": {
        "base": "t_address",
        "encoding": "dynamic_array",
        "label": "address[]",
        "numberOfBytes": "32"
      },
      "t_array(t_uint256)dyn_storage": {
        "base": "t_uint256",
        "encoding": "dynamic_array",
        "label": "uint256[]",
        "numberOfBytes": "32"
      },
      "t_bool": {
        "encoding": "inplace",
        "label": "bool",
        "numberOfBytes": "1"
      },
      "t_mapping(t_address,t_array(t_uint256)dyn_storage)": {
        "encoding": "mapping",
        "key": "t_address",
        "label": "mapping(address => uint256[])",
        "numberOfBytes": "32",
        "value": "t_array(t_uint256)dyn_storage"
      },
      "t_mapping(t_address,t_bool)": {
        "encoding": "mapping",
        "key": "t_address",
        "label": "mapping(address => bool)",
        "numberOfBytes": "32",
        "value": "t_bool"
      },
      "t_mapping(t_address,t_mapping(t_address,t_bool))": {
        "encoding": "mapping",
        "key": "t_address",
        "label": "mapping(address => mapping(address => bool))",
        "numberOfBytes": "32",
        "value": "t_mapping(t_address,t_bool)"
      },
      "t_mapping(t_address,t_uint256)": {
        "encoding": "mapping",
        "key": "t_address",
        "label": "mapping(address => uint256)",
        "numberOfBytes": "32",
        "value": "t_uint256"
      },
      "t_mapping(t_uint256,t_address)": {
        "encoding": "mapping",
        "key": "t_uint256",
        "label": "mapping(uint256 => address)",
        "numberOfBytes": "32",
        "value": "t_address"
      },
      "t_mapping(t_uint256,t_struct(Index)17882_storage)": {
        "encoding": "mapping",
        "key": "t_uint256",
        "label": "mapping(uint256 => struct IndexCDS.Index)",
        "numberOfBytes": "32",
        "value": "t_struct(Index)17882_storage"
      },
      "t_mapping(t_uint256,t_struct(Index_info)17894_storage)": {
        "encoding": "mapping",
        "key": "t_uint256",
        "label": "mapping(uint256 => struct IndexCDS.Index_info)",
        "numberOfBytes": "32",
        "value": "t_struct(Index_info)17894_storage"
      },
      "t_string_storage": {
        "encoding": "bytes",
        "label": "string",
        "numberOfBytes": "32"
      },
      "t_struct(Index)17882_storage": {
        "encoding": "inplace",
        "label": "struct IndexCDS.Index",
        "members": [
          {
            "astId": 17875,
            "contract": "contracts/stablecoin/indexCDS.sol:IndexCDS",
            "label": "value",
            "offset": 0,
            "slot": "0",
            "type": "t_uint256"
          },
          {
            "astId": 17878,
            "contract": "contracts/stablecoin/indexCDS.sol:IndexCDS",
            "label": "amounts",
            "offset": 0,
            "slot": "1",
            "type": "t_array(t_uint256)dyn_storage"
          },
          {
            "astId": 17881,
            "contract": "contracts/stablecoin/indexCDS.sol:IndexCDS",
            "label": "tokens",
            "offset": 0,
            "slot": "2",
            "type": "t_array(t_address)dyn_storage"
          }
        ],
        "numberOfBytes": "96"
      },
      "t_struct(Index_info)17894_storage": {
        "encoding": "inplace",
        "label": "struct IndexCDS.Index_info",
        "members": [
          {
            "astId": 17885,
            "contract": "contracts/stablecoin/indexCDS.sol:IndexCDS",
            "label": "token_amounts",
            "offset": 0,
            "slot": "0",
            "type": "t_array(t_uint256)dyn_storage"
          },
          {
            "astId": 17888,
            "contract": "contracts/stablecoin/indexCDS.sol:IndexCDS",
            "label": "marketIds",
            "offset": 0,
            "slot": "1",
            "type": "t_array(t_uint256)dyn_storage"
          },
          {
            "astId": 17891,
            "contract": "contracts/stablecoin/indexCDS.sol:IndexCDS",
            "label": "outcomes",
            "offset": 0,
            "slot": "2",
            "type": "t_array(t_uint256)dyn_storage"
          },
          {
            "astId": 17893,
            "contract": "contracts/stablecoin/indexCDS.sol:IndexCDS",
            "label": "lockId",
            "offset": 0,
            "slot": "3",
            "type": "t_uint256"
          }
        ],
        "numberOfBytes": "128"
      },
      "t_uint256": {
        "encoding": "inplace",
        "label": "uint256",
        "numberOfBytes": "32"
      }
    }
  }
}