{
  "address": "0x35a09821223E874cEb365529e6B58BBD4f38e9c5",
  "abi": [
    {
      "inputs": [
        {
          "internalType": "address",
          "name": "_creator_address",
          "type": "address"
        },
        {
          "internalType": "address",
          "name": "_timelock_address",
          "type": "address"
        },
        {
          "internalType": "address",
          "name": "_MasterChef_address",
          "type": "address"
        },
        {
          "internalType": "address",
          "name": "_LendingPool_address",
          "type": "address"
        },
        {
          "internalType": "address",
          "name": "_DS_address",
          "type": "address"
        }
      ],
      "stateMutability": "nonpayable",
      "type": "constructor"
    },
    {
      "inputs": [
        {
          "internalType": "address",
          "name": "pool_address",
          "type": "address"
        }
      ],
      "name": "addPool",
      "outputs": [],
      "stateMutability": "nonpayable",
      "type": "function"
    },
    {
      "inputs": [
        {
          "internalType": "address",
          "name": "validator_address",
          "type": "address"
        }
      ],
      "name": "addValidator",
      "outputs": [],
      "stateMutability": "nonpayable",
      "type": "function"
    },
    {
      "inputs": [
        {
          "internalType": "address",
          "name": "recipient",
          "type": "address"
        },
        {
          "internalType": "string",
          "name": "id",
          "type": "string"
        }
      ],
      "name": "approveLoan",
      "outputs": [],
      "stateMutability": "nonpayable",
      "type": "function"
    },
    {
      "inputs": [
        {
          "internalType": "address",
          "name": "ammFactoryAddress",
          "type": "address"
        },
        {
          "internalType": "address",
          "name": "marketFactoryAddress",
          "type": "address"
        },
        {
          "internalType": "uint256",
          "name": "liquidityAmountUSD",
          "type": "uint256"
        },
        {
          "internalType": "string",
          "name": "description",
          "type": "string"
        },
        {
          "internalType": "string[]",
          "name": "names",
          "type": "string[]"
        },
        {
          "internalType": "uint256[]",
          "name": "odds",
          "type": "uint256[]"
        }
      ],
      "name": "initiateMarket",
      "outputs": [],
      "stateMutability": "nonpayable",
      "type": "function"
    },
    {
      "inputs": [
        {
          "internalType": "address",
          "name": "ammFactoryAddress",
          "type": "address"
        },
        {
          "internalType": "address",
          "name": "marketFactoryAddress",
          "type": "address"
        },
        {
          "internalType": "uint256",
          "name": "marketID",
          "type": "uint256"
        },
        {
          "internalType": "bool",
          "name": "isDefault",
          "type": "bool"
        }
      ],
      "name": "resolveMarket",
      "outputs": [],
      "stateMutability": "nonpayable",
      "type": "function"
    }
  ],
  "transactionHash": "0x8aec419bf5ff8b7843c439bccc2a04b06bc82d11837a85e366c932460b9ffa84",
  "args": [
    "0xFD84b7AC1E646580db8c77f1f05F47977fAda692",
    "0xFD84b7AC1E646580db8c77f1f05F47977fAda692",
    "0x471Ea79E8355f60EafB7432FF645992860c81ecC",
    "0x8e98BD7EE6B00Cc26E3dd4E09Ad3Ecd99ffA4972",
    "0xd52654d5D4b08366E33bDd2FFC1C2Bd8eF6f70aC"
  ],
  "solcInputHash": "6b5c7513e0191700db98fb0f972486e7",
  "bytecode": "0x60806040523480156200001157600080fd5b506040516200112b3803806200112b8339810160408190526200003491620000a0565b50600580546001600160a01b039586166001600160a01b03199182161790915560078054938616938216841790556008805482169093179092556009805491909416911617909155506200010f565b80516001600160a01b03811681146200009b57600080fd5b919050565b600080600080600060a08688031215620000b8578081fd5b620000c38662000083565b9450620000d36020870162000083565b9350620000e36040870162000083565b9250620000f36060870162000083565b9150620001036080870162000083565b90509295509295909350565b61100c806200011f6000396000f3fe608060405234801561001057600080fd5b50600436106100575760003560e01c80632dad3b7f1461005c5780634d238c8e14610071578063a3e5cff414610084578063a8cd065514610097578063d914cd4b146100aa575b600080fd5b61006f61006a366004610c47565b6100bd565b005b61006f61007f366004610b0b565b610186565b61006f610092366004610b80565b6102d1565b61006f6100a5366004610b2e565b61066c565b61006f6100b8366004610b0b565b6108d8565b3360009081526020819052604090205460ff1615156001146100fa5760405162461bcd60e51b81526004016100f190610f54565b60405180910390fd5b600954604051632dad3b7f60e01b81526001600160a01b0390911690632dad3b7f9061012e90869086908690600401610e13565b602060405180830381600087803b15801561014857600080fd5b505af115801561015c573d6000803e3d6000fd5b505050506040513d601f19601f820116820180604052508101906101809190610c9a565b50505050565b3360009081526001602081905260409091205460ff161515146101bb5760405162461bcd60e51b81526004016100f190610f13565b6001600160a01b0381166102095760405162461bcd60e51b815260206004820152601560248201527416995c9bc81859191c995cdcc819195d1958dd1959605a1b60448201526064016100f1565b6001600160a01b03811660009081526020819052604090205460ff161561026b5760405162461bcd60e51b81526020600482015260166024820152754164647265737320616c72656164792065786973747360501b60448201526064016100f1565b6001600160a01b03166000818152602081905260408120805460ff191660019081179091556003805491820181559091527fc2575a0e9e593c00f959f8c92f12db2869c3395a3b0502d05e2516446f71f85b0180546001600160a01b0319169091179055565b3360009081526020819052604090205460ff1615156001146103055760405162461bcd60e51b81526004016100f190610f54565b604051636a87a1c560e01b8152899089906000906001600160a01b03831690636a87a1c5906103449033908d908d908d908d908d908d90600401610e41565b602060405180830381600087803b15801561035e57600080fd5b505af1158015610372573d6000803e3d6000fd5b505050506040513d601f19601f820116820180604052508101906103969190610cd2565b60095460405163e0cd9c8f60e01b8152600481018d90529192506001600160a01b03169063e0cd9c8f90602401600060405180830381600087803b1580156103dd57600080fd5b505af11580156103f1573d6000803e3d6000fd5b50505050816001600160a01b031663d8dfeb456040518163ffffffff1660e01b815260040160206040518083038186803b15801561042e57600080fd5b505afa158015610442573d6000803e3d6000fd5b505050506040513d601f19601f820116820180604052508101906104669190610cb6565b60085460405163095ea7b360e01b81526001600160a01b039182166004820152602481018d905291169063095ea7b390604401602060405180830381600087803b1580156104b357600080fd5b505af11580156104c7573d6000803e3d6000fd5b505050506040513d601f19601f820116820180604052508101906104eb9190610c9a565b506008546040516321123f4b60e21b81526001600160a01b038581166004830152848116602483015260448201849052606482018d905230608483015290911690638448fd2c9060a401602060405180830381600087803b15801561054f57600080fd5b505af1158015610563573d6000803e3d6000fd5b505050506040513d601f19601f820116820180604052508101906105879190610cd2565b5060085460405163fe04b54960e01b81526001600160a01b038581166004830152848116602483015260448201849052306064830152600092169063fe04b5499060840160206040518083038186803b1580156105e357600080fd5b505afa1580156105f7573d6000803e3d6000fd5b505050506040513d601f19601f8201168201806040525081019061061b9190610cd2565b60408051808201825291825260208083019d8e526001600160a01b03909e16600090815260028f5281812094815293909d529b9091209a518b55505096516001909801979097555050505050505050565b3360009081526020819052604090205460ff1615156001146106a05760405162461bcd60e51b81526004016100f190610f54565b6001600160a01b03831660009081526002602090815260408083208584529091528120546060908690869084866106d85760016106db565b60005b604051631fc6ebd560e11b8152600481018a905260ff919091166024820181905291506001600160a01b03841690633f8dd7aa90604401600060405180830381600087803b15801561072c57600080fd5b505af1158015610740573d6000803e3d6000fd5b505060085460405163c0e3ee6b60e01b81526001600160a01b0388811660048301528781166024830152604482018d905260648201879052600060848301523060a4830152909116925063c0e3ee6b915060c401600060405180830381600087803b1580156107ae57600080fd5b505af11580156107c2573d6000803e3d6000fd5b505050506040513d6000823e601f3d908101601f191682016040526107ea9190810190610cea565b6001600160a01b038b1660009081526002602090815260408083208d845290915290206001015491975095508715610863578087116108635760405162461bcd60e51b815260206004820152601560248201527414185e5bdd5d081b9bdd081cdd59999a58da595b9d605a1b60448201526064016100f1565b600954604051631e05c99760e31b8152600481018990526001600160a01b039091169063f02e4cb890602401600060405180830381600087803b1580156108a957600080fd5b505af11580156108bd573d6000803e3d6000fd5b505050506108cb8188610a16565b5050505050505050505050565b6005546001600160a01b031633146109025760405162461bcd60e51b81526004016100f190610f13565b6001600160a01b0381166109505760405162461bcd60e51b815260206004820152601560248201527416995c9bc81859191c995cdcc819195d1958dd1959605a1b60448201526064016100f1565b6001600160a01b03811660009081526001602052604090205460ff16156109b25760405162461bcd60e51b81526020600482015260166024820152754164647265737320616c72656164792065786973747360501b60448201526064016100f1565b6001600160a01b031660008181526001602081905260408220805460ff1916821790556004805491820181559091527f8a35acfbc15ff81a39ae7d344fd709f28e8600b4aa8c65c6b64bfe7fe36bd19b0180546001600160a01b0319169091179055565b6040516024810183905260448101829052610a5c9060640160408051601f198184030181529190526020810180516001600160e01b031662d81ed360e71b179052610a60565b5050565b80516a636f6e736f6c652e6c6f67602083016000808483855afa5050505050565b60008083601f840112610a92578081fd5b50813567ffffffffffffffff811115610aa9578182fd5b6020830191508360208260051b8501011115610ac457600080fd5b9250929050565b60008083601f840112610adc578182fd5b50813567ffffffffffffffff811115610af3578182fd5b602083019150836020828501011115610ac457600080fd5b600060208284031215610b1c578081fd5b8135610b2781610fb0565b9392505050565b60008060008060808587031215610b43578283fd5b8435610b4e81610fb0565b93506020850135610b5e81610fb0565b9250604085013591506060850135610b7581610fc8565b939692955090935050565b600080600080600080600080600060c08a8c031215610b9d578485fd5b8935610ba881610fb0565b985060208a0135610bb881610fb0565b975060408a0135965060608a013567ffffffffffffffff80821115610bdb578687fd5b610be78d838e01610acb565b909850965060808c0135915080821115610bff578586fd5b610c0b8d838e01610a81565b909650945060a08c0135915080821115610c23578384fd5b50610c308c828d01610a81565b915080935050809150509295985092959850929598565b600080600060408486031215610c5b578283fd5b8335610c6681610fb0565b9250602084013567ffffffffffffffff811115610c81578283fd5b610c8d86828701610acb565b9497909650939450505050565b600060208284031215610cab578081fd5b8151610b2781610fc8565b600060208284031215610cc7578081fd5b8151610b2781610fb0565b600060208284031215610ce3578081fd5b5051919050565b60008060408385031215610cfc578182fd5b8251915060208084015167ffffffffffffffff80821115610d1b578384fd5b818601915086601f830112610d2e578384fd5b815181811115610d4057610d40610f9a565b8060051b604051601f19603f83011681018181108582111715610d6557610d65610f9a565b604052828152858101935084860182860187018b1015610d83578788fd5b8795505b83861015610da5578051855260019590950194938601938601610d87565b508096505050505050509250929050565b81835260006001600160fb1b03831115610dce578081fd5b8260051b80836020870137939093016020019283525090919050565b81835281816020850137506000828201602090810191909152601f909101601f19169091010190565b6001600160a01b0384168152604060208201819052600090610e389083018486610dea565b95945050505050565b6001600160a01b038816815260806020808301829052600091610e67908401898b610dea565b8381036040850152868152818101600588901b8201830189855b8a811015610eed57848303601f190184528135368d9003601e19018112610ea6578788fd5b8c01803567ffffffffffffffff811115610ebe578889fd5b8036038e1315610ecc578889fd5b610ed985828a8501610dea565b958801959450505090850190600101610e81565b50508581036060870152610f0281888a610db6565b9d9c50505050505050505050505050565b60208082526021908201527f4f6e6c7920506f6f6c732063616e2063616c6c20746869732066756e6374696f6040820152603760f91b606082015260800190565b60208082526026908201527f4f6e6c792056616c696461746f72732063616e2063616c6c20746869732066756040820152653731ba34b7b760d11b606082015260800190565b634e487b7160e01b600052604160045260246000fd5b6001600160a01b0381168114610fc557600080fd5b50565b8015158114610fc557600080fdfea26469706673582212204eb57dc66be5951185bbddd64dcf80224ed8153515cc7b37b55cebc4b2c3ff6e64736f6c63430008040033",
  "devdoc": {
    "kind": "dev",
    "methods": {},
    "version": 1
  },
  "userdoc": {
    "kind": "user",
    "methods": {},
    "version": 1
  },
  "storageLayout": {
    "storage": [
      {
        "astId": 15764,
        "contract": "contracts/stablecoin/controller.sol:Manager",
        "label": "validators",
        "offset": 0,
        "slot": "0",
        "type": "t_mapping(t_address,t_bool)"
      },
      {
        "astId": 15768,
        "contract": "contracts/stablecoin/controller.sol:Manager",
        "label": "pools",
        "offset": 0,
        "slot": "1",
        "type": "t_mapping(t_address,t_bool)"
      },
      {
        "astId": 15775,
        "contract": "contracts/stablecoin/controller.sol:Manager",
        "label": "lpinfo",
        "offset": 0,
        "slot": "2",
        "type": "t_mapping(t_address,t_mapping(t_uint256,t_struct(LiquidityInfo)15760_storage))"
      },
      {
        "astId": 15778,
        "contract": "contracts/stablecoin/controller.sol:Manager",
        "label": "validators_array",
        "offset": 0,
        "slot": "3",
        "type": "t_array(t_address)dyn_storage"
      },
      {
        "astId": 15781,
        "contract": "contracts/stablecoin/controller.sol:Manager",
        "label": "pools_array",
        "offset": 0,
        "slot": "4",
        "type": "t_array(t_address)dyn_storage"
      },
      {
        "astId": 15783,
        "contract": "contracts/stablecoin/controller.sol:Manager",
        "label": "creator_address",
        "offset": 0,
        "slot": "5",
        "type": "t_address"
      },
      {
        "astId": 15785,
        "contract": "contracts/stablecoin/controller.sol:Manager",
        "label": "timelock_address",
        "offset": 0,
        "slot": "6",
        "type": "t_address"
      },
      {
        "astId": 15787,
        "contract": "contracts/stablecoin/controller.sol:Manager",
        "label": "MasterChef_address",
        "offset": 0,
        "slot": "7",
        "type": "t_address"
      },
      {
        "astId": 15790,
        "contract": "contracts/stablecoin/controller.sol:Manager",
        "label": "masterchef",
        "offset": 0,
        "slot": "8",
        "type": "t_contract(MasterChef)14975"
      },
      {
        "astId": 15793,
        "contract": "contracts/stablecoin/controller.sol:Manager",
        "label": "lendingpool",
        "offset": 0,
        "slot": "9",
        "type": "t_contract(ILendingPool)15583"
      }
    ],
    "types": {
      "t_address": {
        "encoding": "inplace",
        "label": "address",
        "numberOfBytes": "20"
      },
      "t_array(t_address)dyn_storage": {
        "base": "t_address",
        "encoding": "dynamic_array",
        "label": "address[]",
        "numberOfBytes": "32"
      },
      "t_bool": {
        "encoding": "inplace",
        "label": "bool",
        "numberOfBytes": "1"
      },
      "t_contract(ILendingPool)15583": {
        "encoding": "inplace",
        "label": "contract ILendingPool",
        "numberOfBytes": "20"
      },
      "t_contract(MasterChef)14975": {
        "encoding": "inplace",
        "label": "contract MasterChef",
        "numberOfBytes": "20"
      },
      "t_mapping(t_address,t_bool)": {
        "encoding": "mapping",
        "key": "t_address",
        "label": "mapping(address => bool)",
        "numberOfBytes": "32",
        "value": "t_bool"
      },
      "t_mapping(t_address,t_mapping(t_uint256,t_struct(LiquidityInfo)15760_storage))": {
        "encoding": "mapping",
        "key": "t_address",
        "label": "mapping(address => mapping(uint256 => struct Manager.LiquidityInfo))",
        "numberOfBytes": "32",
        "value": "t_mapping(t_uint256,t_struct(LiquidityInfo)15760_storage)"
      },
      "t_mapping(t_uint256,t_struct(LiquidityInfo)15760_storage)": {
        "encoding": "mapping",
        "key": "t_uint256",
        "label": "mapping(uint256 => struct Manager.LiquidityInfo)",
        "numberOfBytes": "32",
        "value": "t_struct(LiquidityInfo)15760_storage"
      },
      "t_struct(LiquidityInfo)15760_storage": {
        "encoding": "inplace",
        "label": "struct Manager.LiquidityInfo",
        "members": [
          {
            "astId": 15757,
            "contract": "contracts/stablecoin/controller.sol:Manager",
            "label": "lptokenamount",
            "offset": 0,
            "slot": "0",
            "type": "t_uint256"
          },
          {
            "astId": 15759,
            "contract": "contracts/stablecoin/controller.sol:Manager",
            "label": "suppliedDS",
            "offset": 0,
            "slot": "1",
            "type": "t_uint256"
          }
        ],
        "numberOfBytes": "64"
      },
      "t_uint256": {
        "encoding": "inplace",
        "label": "uint256",
        "numberOfBytes": "32"
      }
    }
  }
}