{
  "address": "0x9b59B6ef69ab161BCA3F578E1E97A04dc7cc5F9c",
  "abi": [
    {
      "inputs": [
        {
          "internalType": "address",
          "name": "_ds_address",
          "type": "address"
        },
        {
          "internalType": "address",
          "name": "_collateral_address",
          "type": "address"
        },
        {
          "internalType": "address",
          "name": "_creator_address",
          "type": "address"
        },
        {
          "internalType": "address",
          "name": "_sDS_address",
          "type": "address"
        }
      ],
      "stateMutability": "nonpayable",
      "type": "constructor"
    },
    {
      "anonymous": false,
      "inputs": [
        {
          "indexed": false,
          "internalType": "address",
          "name": "oldOwner",
          "type": "address"
        },
        {
          "indexed": false,
          "internalType": "address",
          "name": "newOwner",
          "type": "address"
        }
      ],
      "name": "OwnerChanged",
      "type": "event"
    },
    {
      "anonymous": false,
      "inputs": [
        {
          "indexed": false,
          "internalType": "address",
          "name": "newOwner",
          "type": "address"
        }
      ],
      "name": "OwnerNominated",
      "type": "event"
    },
    {
      "inputs": [],
      "name": "acceptOwnership",
      "outputs": [],
      "stateMutability": "nonpayable",
      "type": "function"
    },
    {
      "inputs": [
        {
          "internalType": "address",
          "name": "_owner",
          "type": "address"
        }
      ],
      "name": "nominateNewOwner",
      "outputs": [],
      "stateMutability": "nonpayable",
      "type": "function"
    },
    {
      "inputs": [],
      "name": "nominatedOwner",
      "outputs": [
        {
          "internalType": "address",
          "name": "",
          "type": "address"
        }
      ],
      "stateMutability": "view",
      "type": "function"
    },
    {
      "inputs": [],
      "name": "owner",
      "outputs": [
        {
          "internalType": "address",
          "name": "",
          "type": "address"
        }
      ],
      "stateMutability": "view",
      "type": "function"
    },
    {
      "inputs": [
        {
          "internalType": "uint256",
          "name": "amount",
          "type": "uint256"
        }
      ],
      "name": "stake",
      "outputs": [],
      "stateMutability": "nonpayable",
      "type": "function"
    },
    {
      "inputs": [
        {
          "internalType": "uint256",
          "name": "amount",
          "type": "uint256"
        }
      ],
      "name": "withdraw",
      "outputs": [],
      "stateMutability": "nonpayable",
      "type": "function"
    }
  ],
  "transactionHash": "0xa71bf8934d624bfec8f2766d431081056bce90102dd23e7cdebbd02c1ece37aa",
  "args": [
    "0x970C0f56f0755B2CC3DEeBA00e9e8aE5138d9fBC",
    "0x5799bFe361BEea69f808328FF4884DF92f1f66f0",
    "0xFD84b7AC1E646580db8c77f1f05F47977fAda692",
    "0x1C168DF0F7b307B4E63E2f9796ac675eFcDDa51c"
  ],
  "solcInputHash": "85fbd2e79774b1ef389725d58cd99c0a",
  "bytecode": "0x608060405234801561001057600080fd5b506040516109a03803806109a08339818101604052608081101561003357600080fd5b5080516020820151604083015160609093015191929091816001600160a01b0381166100a6576040805162461bcd60e51b815260206004820152601960248201527f4f776e657220616464726573732063616e6e6f74206265203000000000000000604482015290519081900360640190fd5b600080546001600160a01b0319166001600160a01b038316908117825560408051928352602083019190915280517fb532073b38c83145e3e5135377a08bf9aab55bc0fd7c1179cd4fb995d2a5159c9281900390910190a1506001600160a01b0384161580159061011f57506001600160a01b03831615155b801561013357506001600160a01b03821615155b610184576040805162461bcd60e51b815260206004820152601560248201527f5a65726f20616464726573732064657465637465640000000000000000000000604482015290519081900360640190fd5b600680546001600160a01b03199081166001600160a01b0387811691821790935560078054831685851617905560058054831687851690811791829055600280548516909317909255600380548416909217909155600480549092168584161782556040805163313ce56760e01b8152905161026394929092169263313ce567928282019260209290829003018186803b15801561022157600080fd5b505afa158015610235573d6000803e3d6000fd5b505050506040513d602081101561024b57600080fd5b505160129060ff16610270602090811b61044617901c565b600855506102cd92505050565b6000828211156102c7576040805162461bcd60e51b815260206004820152601e60248201527f536166654d6174683a207375627472616374696f6e206f766572666c6f770000604482015290519081900360640190fd5b50900390565b6106c4806102dc6000396000f3fe608060405234801561001057600080fd5b50600436106100625760003560e01c80631627540c146100675780632e1a7d4d1461008f57806353a47bb7146100ac57806379ba5097146100d05780638da5cb5b146100d8578063a694fc3a146100e0575b600080fd5b61008d6004803603602081101561007d57600080fd5b50356001600160a01b03166100fd565b005b61008d600480360360208110156100a557600080fd5b503561019a565b6100b46102b0565b604080516001600160a01b039092168252519081900360200190f35b61008d6102bf565b6100b461037b565b61008d600480360360208110156100f657600080fd5b503561038a565b6000546001600160a01b031633146101465760405162461bcd60e51b815260040180806020018281038252602f81526020018061063c602f913960400191505060405180910390fd5b600180546001600160a01b0383166001600160a01b0319909116811790915560408051918252517f906a1c6bd7e3091ea86693dd029a831c19049ce77f1dce2ce0bab1cacbabce229181900360200190a150565b60006101a46104a3565b60075460408051637a94c56560e11b8152336004820152602481018690526044810184905290519293506001600160a01b039091169163f5298aca9160648082019260009290919082900301818387803b15801561020157600080fd5b505af1158015610215573d6000803e3d6000fd5b5050600754604080516370a0823160e01b815233600482015290516001600160a01b0390921693506370a082319250602480820192602092909190829003018186803b15801561026457600080fd5b505afa158015610278573d6000803e3d6000fd5b505050506040513d602081101561028e57600080fd5b50516102ac57336000908152600960205260409020805460ff191690555b5050565b6001546001600160a01b031681565b6001546001600160a01b031633146103085760405162461bcd60e51b81526004018080602001828103825260358152602001806106076035913960400191505060405180910390fd5b600054600154604080516001600160a01b03938416815292909116602083015280517fb532073b38c83145e3e5135377a08bf9aab55bc0fd7c1179cd4fb995d2a5159c9281900390910190a160018054600080546001600160a01b03199081166001600160a01b03841617909155169055565b6000546001600160a01b031681565b60006103946104a3565b6002546007549192506103b6916001600160a01b0391821691339116856104aa565b60075460408051630ab714fb60e11b8152336004820152602481018590526044810184905290516001600160a01b039092169163156e29f69160648082019260009290919082900301818387803b15801561041057600080fd5b505af1158015610424573d6000803e3d6000fd5b5050336000908152600960205260409020805460ff1916600117905550505050565b60008282111561049d576040805162461bcd60e51b815260206004820152601e60248201527f536166654d6174683a207375627472616374696f6e206f766572666c6f770000604482015290519081900360640190fd5b50900390565b620f424090565b604080516001600160a01b0385811660248301528481166044830152606480830185905283518084039091018152608490920183526020820180516001600160e01b03166323b872dd60e01b178152925182516000948594938a169392918291908083835b6020831061052e5780518252601f19909201916020918201910161050f565b6001836020036101000a0380198251168184511680821785525050505050509050019150506000604051808303816000865af19150503d8060008114610590576040519150601f19603f3d011682016040523d82523d6000602084013e610595565b606091505b50915091508180156105c35750805115806105c357508080602001905160208110156105c057600080fd5b50515b6105fe5760405162461bcd60e51b815260040180806020018281038252602481526020018061066b6024913960400191505060405180910390fd5b50505050505056fe596f75206d757374206265206e6f6d696e61746564206265666f726520796f752063616e20616363657074206f776e6572736869704f6e6c792074686520636f6e7472616374206f776e6572206d617920706572666f726d207468697320616374696f6e5472616e7366657248656c7065723a205452414e534645525f46524f4d5f4641494c4544a2646970667358221220caa334a3abca77fff9fc37aa4eebea6604d703d56a25aaabfb9ee0afdcec8ea964736f6c63430007060033",
  "devdoc": {
    "kind": "dev",
    "methods": {},
    "version": 1
  },
  "userdoc": {
    "kind": "user",
    "methods": {},
    "version": 1
  },
  "storageLayout": {
    "storage": [
      {
        "astId": 18512,
        "contract": "contracts/staking/stakingpool.sol:StakingPool",
        "label": "owner",
        "offset": 0,
        "slot": "0",
        "type": "t_address"
      },
      {
        "astId": 18514,
        "contract": "contracts/staking/stakingpool.sol:StakingPool",
        "label": "nominatedOwner",
        "offset": 0,
        "slot": "1",
        "type": "t_address"
      },
      {
        "astId": 19514,
        "contract": "contracts/staking/stakingpool.sol:StakingPool",
        "label": "ds_address",
        "offset": 0,
        "slot": "2",
        "type": "t_address"
      },
      {
        "astId": 19516,
        "contract": "contracts/staking/stakingpool.sol:StakingPool",
        "label": "collateral_address",
        "offset": 0,
        "slot": "3",
        "type": "t_address"
      },
      {
        "astId": 19518,
        "contract": "contracts/staking/stakingpool.sol:StakingPool",
        "label": "creator_address",
        "offset": 0,
        "slot": "4",
        "type": "t_address"
      },
      {
        "astId": 19520,
        "contract": "contracts/staking/stakingpool.sol:StakingPool",
        "label": "collateral_token",
        "offset": 0,
        "slot": "5",
        "type": "t_contract(ERC20)5733"
      },
      {
        "astId": 19522,
        "contract": "contracts/staking/stakingpool.sol:StakingPool",
        "label": "DScontract",
        "offset": 0,
        "slot": "6",
        "type": "t_contract(DS)16527"
      },
      {
        "astId": 19524,
        "contract": "contracts/staking/stakingpool.sol:StakingPool",
        "label": "sDScontract",
        "offset": 0,
        "slot": "7",
        "type": "t_contract(sDS)19499"
      },
      {
        "astId": 19526,
        "contract": "contracts/staking/stakingpool.sol:StakingPool",
        "label": "missing_decimals",
        "offset": 0,
        "slot": "8",
        "type": "t_uint256"
      },
      {
        "astId": 19530,
        "contract": "contracts/staking/stakingpool.sol:StakingPool",
        "label": "userStaked",
        "offset": 0,
        "slot": "9",
        "type": "t_mapping(t_address,t_bool)"
      }
    ],
    "types": {
      "t_address": {
        "encoding": "inplace",
        "label": "address",
        "numberOfBytes": "20"
      },
      "t_bool": {
        "encoding": "inplace",
        "label": "bool",
        "numberOfBytes": "1"
      },
      "t_contract(DS)16527": {
        "encoding": "inplace",
        "label": "contract DS",
        "numberOfBytes": "20"
      },
      "t_contract(ERC20)5733": {
        "encoding": "inplace",
        "label": "contract ERC20",
        "numberOfBytes": "20"
      },
      "t_contract(sDS)19499": {
        "encoding": "inplace",
        "label": "contract sDS",
        "numberOfBytes": "20"
      },
      "t_mapping(t_address,t_bool)": {
        "encoding": "mapping",
        "key": "t_address",
        "label": "mapping(address => bool)",
        "numberOfBytes": "32",
        "value": "t_bool"
      },
      "t_uint256": {
        "encoding": "inplace",
        "label": "uint256",
        "numberOfBytes": "32"
      }
    }
  }
}