{
  "address": "0xC67b31AB4e370e467353a87F427C6880F78cb480",
  "abi": [
    {
      "inputs": [],
      "stateMutability": "nonpayable",
      "type": "constructor"
    },
    {
      "inputs": [
        {
          "internalType": "address",
          "name": "pooladd",
          "type": "address"
        }
      ],
      "name": "isPool",
      "outputs": [
        {
          "internalType": "bool",
          "name": "",
          "type": "bool"
        }
      ],
      "stateMutability": "view",
      "type": "function"
    },
    {
      "inputs": [
        {
          "internalType": "address",
          "name": "token1",
          "type": "address"
        },
        {
          "internalType": "address",
          "name": "token2",
          "type": "address"
        }
      ],
      "name": "newPool",
      "outputs": [
        {
          "internalType": "contract StableSwap",
          "name": "",
          "type": "address"
        }
      ],
      "stateMutability": "nonpayable",
      "type": "function"
    }
  ],
  "transactionHash": "0x8cfbd1a25cfd34127c2d17c394c51b70fd49af2f4ef90ac69ed27387823882be",
  "args": [],
  "numDeployments": 5,
  "solcInputHash": "32fbb18dc865e454be6a8d21147e5957",
  "bytecode": "0x608060405234801561001057600080fd5b50600080546001600160a01b03191633179055611d9f806100326000396000f3fe608060405234801561001057600080fd5b50600436106100365760003560e01c80635b16ebb71461003b578063981f51361461007c575b600080fd5b610067610049366004610143565b6001600160a01b031660009081526001602052604090205460ff1690565b60405190151581526020015b60405180910390f35b61008f61008a366004610164565b6100a7565b6040516001600160a01b039091168152602001610073565b60008083836040516100b89061011a565b6001600160a01b03928316815291166020820152604001604051809103906000f0801580156100eb573d6000803e3d6000fd5b506001600160a01b0381166000908152600160208190526040909120805460ff19169091179055949350505050565b611bd38061019783390190565b80356001600160a01b038116811461013e57600080fd5b919050565b600060208284031215610154578081fd5b61015d82610127565b9392505050565b60008060408385031215610176578081fd5b61017f83610127565b915061018d60208401610127565b9050925092905056fe60c06040526001608081815260a0919091526200002090600290816200008e565b503480156200002e57600080fd5b5060405162001bd338038062001bd383398101604081905262000051916200010a565b60078054336001600160a01b031991821617909155600080546001600160a01b039485169083161790556001805492909316911617905562000141565b8260028101928215620000c4579160200282015b82811115620000c4578251829060ff16905591602001919060010190620000a2565b50620000d2929150620000d6565b5090565b5b80821115620000d25760008155600101620000d7565b80516001600160a01b03811681146200010557600080fd5b919050565b600080604083850312156200011d578182fd5b6200012883620000ed565b91506200013860208401620000ed565b90509250929050565b611a8280620001516000396000f3fe608060405234801561001057600080fd5b50600436106100b45760003560e01c80637066b5b2116100715780637066b5b21461014c57806370a082311461015f57806394edaa631461017f578063a60dc3b11461019f578063ca7b8704146101c7578063e25aa5fa146101cf57600080fd5b806313a980aa146100b957806318160ddd146100df5780634903b0d1146100e85780634f64b2be146100fb5780635673b02d146101265780636f76ab1814610139575b600080fd5b6100cc6100c7366004611814565b6101d7565b6040519081526020015b60405180910390f35b6100cc60065481565b6100cc6100f63660046117d0565b610283565b61010e6101093660046117d0565b61029a565b6040516001600160a01b0390911681526020016100d6565b6100cc610134366004611860565b6102ba565b6100cc610147366004611786565b610615565b6100cc61015a366004611835565b610a8d565b6100cc61016d36600461175f565b60086020526000908152604090205481565b61019261018d3660046117e8565b610bc6565b6040516100d69190611891565b6101b26101ad366004611814565b610da1565b604080519283526020830191909152016100d6565b610192610db9565b6100cc610dce565b6000806101e2610e1e565b9050600081846002811061020657634e487b7160e01b600052603260045260246000fd5b6020020151905060008261021b866001611a04565b6002811061023957634e487b7160e01b600052603260045260246000fd5b60200201519050600061024c8783611a04565b9050600061026661025e886001611a04565b888488610ebb565b905060006102748583611a04565b96505050505050505b92915050565b6004816002811061029357600080fd5b0154905081565b600081600281106102aa57600080fd5b01546001600160a01b0316905081565b6000838514156102f95760405162461bcd60e51b815260206004820152600560248201526434901e903560d91b60448201526064015b60405180910390fd5b6000856002811061031a57634e487b7160e01b600052603260045260246000fd5b01546040516323b872dd60e01b8152336004820152306024820152604481018590526001600160a01b03909116906323b872dd90606401602060405180830381600087803b15801561036b57600080fd5b505af115801561037f573d6000803e3d6000fd5b505050506040513d601f19601f820116820180604052508101906103a391906117b0565b5060006103ae610e1e565b90506000600287600281106103d357634e487b7160e01b600052603260045260246000fd5b01546103df90866119e5565b8288600281106103ff57634e487b7160e01b600052603260045260246000fd5b602002015161040e91906118c2565b9050600082876002811061043257634e487b7160e01b600052603260045260246000fd5b60200201519050600061044789898587610ebb565b90506002886002811061046a57634e487b7160e01b600052603260045260246000fd5b015460016104788385611a04565b6104829190611a04565b61048c91906118da565b94506000620f42406104a061012c886119e5565b6104aa91906118da565b90506104b68187611a04565b9550868610156104f35760405162461bcd60e51b8152602060048201526008602482015267323c901e1036b4b760c11b60448201526064016102f0565b8760048b6002811061051557634e487b7160e01b600052603260045260246000fd5b01600082825461052591906118c2565b9091555086905060048a6002811061054d57634e487b7160e01b600052603260045260246000fd5b01600082825461055d9190611a04565b9091555060009050896002811061058457634e487b7160e01b600052603260045260246000fd5b015460405163a9059cbb60e01b8152336004820152602481018890526001600160a01b039091169063a9059cbb90604401602060405180830381600087803b1580156105cf57600080fd5b505af11580156105e3573d6000803e3d6000fd5b505050506040513d601f19601f8201168201806040525081019061060791906117b0565b505050505050949350505050565b6006546000908180610625610e1e565b905082156106395761063681611092565b91505b610641611730565b60005b600281101561080957600088826002811061066f57634e487b7160e01b600052603260045260246000fd5b6020020135905080156107ad576000826002811061069d57634e487b7160e01b600052603260045260246000fd5b01546040516323b872dd60e01b8152336004820152306024820152604481018390526001600160a01b03909116906323b872dd90606401602060405180830381600087803b1580156106ee57600080fd5b505af1158015610702573d6000803e3d6000fd5b505050506040513d601f19601f8201168201806040525081019061072691906117b0565b506002826002811061074857634e487b7160e01b600052603260045260246000fd5b015461075490826119e5565b84836002811061077457634e487b7160e01b600052603260045260246000fd5b602002015161078391906118c2565b8383600281106107a357634e487b7160e01b600052603260045260246000fd5b60200201526107f8565b8382600281106107cd57634e487b7160e01b600052603260045260246000fd5b60200201518383600281106107f257634e487b7160e01b600052603260045260246000fd5b60200201525b5061080281611a1b565b9050610644565b50600061081582611092565b90508381116108665760405162461bcd60e51b815260206004820152601960248201527f6c6971756964697479206469646e277420696e6372656173650000000000000060448201526064016102f0565b6000851561098b5760005b600281101561097a576000868487846002811061089e57634e487b7160e01b600052603260045260246000fd5b60200201516108ad91906119e5565b6108b791906118da565b905060006108e98684600281106108de57634e487b7160e01b600052603260045260246000fd5b602002015183611261565b9050620f4240816108fc60016002611a04565b6109079060046119e5565b610914600261012c6119e5565b61091e91906118da565b61092891906119e5565b61093291906118da565b86846002811061095257634e487b7160e01b600052603260045260246000fd5b602002018181516109639190611a04565b9052506109739150829050611a1b565b9050610871565b5061098483611092565b905061098e565b50805b60005b6002811015610a06578981600281106109ba57634e487b7160e01b600052603260045260246000fd5b6020020135600482600281106109e057634e487b7160e01b600052603260045260246000fd5b0160008282546109f091906118c2565b909155506109ff905081611a1b565b9050610991565b508515610a34578486610a198284611a04565b610a2391906119e5565b610a2d91906118da565b9650610a38565b8096505b87871015610a775760405162461bcd60e51b815260206004820152600c60248201526b39b430b932b9901e1036b4b760a11b60448201526064016102f0565b610a81338861128b565b50505050505092915050565b6000610a9984846112d5565b50905081811015610ad85760405162461bcd60e51b815260206004820152600960248201526837baba101e1036b4b760b91b60448201526064016102f0565b8060048460028110610afa57634e487b7160e01b600052603260045260246000fd5b016000828254610b0a9190611a04565b90915550610b1a90503385611578565b60008360028110610b3b57634e487b7160e01b600052603260045260246000fd5b015460405163a9059cbb60e01b8152336004820152602481018390526001600160a01b039091169063a9059cbb90604401602060405180830381600087803b158015610b8657600080fd5b505af1158015610b9a573d6000803e3d6000fd5b505050506040513d601f19601f82011682018060405250810190610bbe91906117b0565b509392505050565b610bce611730565b60065460005b6002811015610d8f576000828660048460028110610c0257634e487b7160e01b600052603260045260246000fd5b0154610c0e91906119e5565b610c1891906118da565b9050848260028110610c3a57634e487b7160e01b600052603260045260246000fd5b6020020135811015610c7a5760405162461bcd60e51b815260206004820152600960248201526837baba101e1036b4b760b91b60448201526064016102f0565b8060048360028110610c9c57634e487b7160e01b600052603260045260246000fd5b016000828254610cac9190611a04565b90915550819050848360028110610cd357634e487b7160e01b600052603260045260246000fd5b602002015260008260028110610cf957634e487b7160e01b600052603260045260246000fd5b015460405163a9059cbb60e01b8152336004820152602481018390526001600160a01b039091169063a9059cbb90604401602060405180830381600087803b158015610d4457600080fd5b505af1158015610d58573d6000803e3d6000fd5b505050506040513d601f19601f82011682018060405250810190610d7c91906117b0565b505080610d8890611a1b565b9050610bd4565b50610d9a3385611578565b5092915050565b600080610dae84846112d5565b915091509250929050565b610dc1611730565b610dc9610e1e565b905090565b600080610de1610ddc610e1e565b611092565b6006549091508015610e155780610dfa6012600a61193d565b610e0490846119e5565b610e0e91906118da565b9250505090565b60009250505090565b610e26611730565b60005b6002811015610eb75760028160028110610e5357634e487b7160e01b600052603260045260246000fd5b015460048260028110610e7657634e487b7160e01b600052603260045260246000fd5b0154610e8291906119e5565b828260028110610ea257634e487b7160e01b600052603260045260246000fd5b6020020152610eb081611a1b565b9050610e29565b5090565b6000806002610ecb600182611a04565b610ed690600261193d565b610ee2906103e86119e5565b610eec91906119e5565b90506000610ef984611092565b905060008181805b6002811015610f8d578a811415610f1a57889150610f4f565b89811415610f2757610f7d565b878160028110610f4757634e487b7160e01b600052603260045260246000fd5b602002015191505b610f5982856118c2565b9350610f668260026119e5565b610f7086856119e5565b610f7a91906118da565b92505b610f8681611a1b565b9050610f01565b50610f998560026119e5565b610fa385846119e5565b610fad91906118da565b91506000610fbb86866118da565b610fc590856118c2565b9050600085815b60ff81101561104d578192508784836002610fe791906119e5565b610ff191906118c2565b610ffb9190611a04565b8661100684806119e5565b61101091906118c2565b61101a91906118da565b915060016110288385611261565b1161103d5750975061108a9650505050505050565b61104681611a1b565b9050610fcc565b5060405162461bcd60e51b815260206004820152601160248201527079206469646e277420636f6e766572676560781b60448201526064016102f0565b949350505050565b60008060026110a2600182611a04565b6110ad90600261193d565b6110b9906103e86119e5565b6110c391906119e5565b90506000805b6002811015611113578481600281106110f257634e487b7160e01b600052603260045260246000fd5b602002015161110190836118c2565b915061110c81611a1b565b90506110c9565b50806000805b60ff811015611224578260005b60028110156111855788816002811061114f57634e487b7160e01b600052603260045260246000fd5b602002015161115f9060026119e5565b61116986846119e5565b61117391906118da565b915061117e81611a1b565b9050611126565b5083925080611196600260016118c2565b6111a091906119e5565b846111ac600189611a04565b6111b691906119e5565b6111c091906118c2565b846111cc8360026119e5565b6111d6888a6119e5565b6111e091906118c2565b6111ea91906119e5565b6111f491906118da565b935060016112028585611261565b116112135750919695505050505050565b5061121d81611a1b565b9050611119565b5060405162461bcd60e51b815260206004820152601160248201527044206469646e277420636f6e766572676560781b60448201526064016102f0565b60008183101561127a576112758383611a04565b611284565b6112848284611a04565b9392505050565b6001600160a01b038216600090815260086020526040812080548392906112b39084906118c2565b9250508190555080600660008282546112cc91906118c2565b90915550505050565b6006546000908190816112e6610e1e565b905060006112f382611092565b905060008361130289846119e5565b61130c91906118da565b6113169083611a04565b905060006113258885846115b9565b905060006002896002811061134a57634e487b7160e01b600052603260045260246000fd5b015482868b6002811061136d57634e487b7160e01b600052603260045260246000fd5b602002015161137c9190611a04565b61138691906118da565b90506000805b60028110156114e2578a8114156113ea578386868984600281106113c057634e487b7160e01b600052603260045260246000fd5b60200201516113cf91906119e5565b6113d991906118da565b6113e39190611a04565b9150611457565b858588836002811061140c57634e487b7160e01b600052603260045260246000fd5b602002015161141b91906119e5565b61142591906118da565b87826002811061144557634e487b7160e01b600052603260045260246000fd5b60200201516114549190611a04565b91505b620f42408261146860016002611a04565b6114739060046119e5565b611480600261012c6119e5565b61148a91906118da565b61149491906119e5565b61149e91906118da565b8782600281106114be57634e487b7160e01b600052603260045260246000fd5b602002018181516114cf9190611a04565b9052506114db81611a1b565b905061138c565b5060006114f08b88876115b9565b905060028b6002811061151357634e487b7160e01b600052603260045260246000fd5b0154600182898e6002811061153857634e487b7160e01b600052603260045260246000fd5b60200201516115479190611a04565b6115519190611a04565b61155b91906118da565b99506115678a84611a04565b985050505050505050509250929050565b6001600160a01b038216600090815260086020526040812080548392906115a0908490611a04565b9250508190555080600660008282546112cc9190611a04565b60008060026115c9600182611a04565b6115d490600261193d565b6115e0906103e86119e5565b6115ea91906119e5565b905060008381805b60028110156116715788811461162e5787816002811061162257634e487b7160e01b600052603260045260246000fd5b60200201519150611633565b611661565b61163d82856118c2565b935061164a8260026119e5565b61165488856119e5565b61165e91906118da565b92505b61166a81611a1b565b90506115f2565b5061167d8460026119e5565b61168787846119e5565b61169191906118da565b9150600061169f85886118da565b6116a990856118c2565b9050600087815b60ff81101561104d5781925089848360026116cb91906119e5565b6116d591906118c2565b6116df9190611a04565b866116ea84806119e5565b6116f491906118c2565b6116fe91906118da565b9150600161170c8385611261565b116117205750965061128495505050505050565b61172981611a1b565b90506116b0565b60405180604001604052806002906020820280368337509192915050565b806040810183101561027d57600080fd5b600060208284031215611770578081fd5b81356001600160a01b0381168114611284578182fd5b60008060608385031215611798578081fd5b6117a2848461174e565b946040939093013593505050565b6000602082840312156117c1578081fd5b81518015158114611284578182fd5b6000602082840312156117e1578081fd5b5035919050565b600080606083850312156117fa578182fd5b8235915061180b846020850161174e565b90509250929050565b60008060408385031215611826578182fd5b50508035926020909101359150565b600080600060608486031215611849578081fd5b505081359360208301359350604090920135919050565b60008060008060808587031215611875578081fd5b5050823594602084013594506040840135936060013592509050565b60408101818360005b60028110156118b957815183526020928301929091019060010161189a565b50505092915050565b600082198211156118d5576118d5611a36565b500190565b6000826118f557634e487b7160e01b81526012600452602481fd5b500490565b600181815b8085111561193557816000190482111561191b5761191b611a36565b8085161561192857918102915b93841c93908002906118ff565b509250929050565b600061128483836000826119535750600161027d565b816119605750600061027d565b816001811461197657600281146119805761199c565b600191505061027d565b60ff84111561199157611991611a36565b50506001821b61027d565b5060208310610133831016604e8410600b84101617156119bf575081810a61027d565b6119c983836118fa565b80600019048211156119dd576119dd611a36565b029392505050565b60008160001904831182151516156119ff576119ff611a36565b500290565b600082821015611a1657611a16611a36565b500390565b6000600019821415611a2f57611a2f611a36565b5060010190565b634e487b7160e01b600052601160045260246000fdfea264697066735822122040589acca2eb2ff68ec67e9b95879160a413abe134a3798c83c9733be42ff4bc64736f6c63430008040033a2646970667358221220f279a8b53379a02fb1dd323f78be0284fb3beb9ee6bac887373ba37935b24c6d64736f6c63430008040033",
  "devdoc": {
    "kind": "dev",
    "methods": {},
    "version": 1
  },
  "userdoc": {
    "kind": "user",
    "methods": {},
    "notice": "have to separate factories because of code size limit ",
    "version": 1
  },
  "storageLayout": {
    "storage": [
      {
        "astId": 55674,
        "contract": "contracts/vaults/vault_tranche/tranchemaster.sol:TrancheAMMFactory",
        "label": "base_factory",
        "offset": 0,
        "slot": "0",
        "type": "t_address"
      },
      {
        "astId": 55678,
        "contract": "contracts/vaults/vault_tranche/tranchemaster.sol:TrancheAMMFactory",
        "label": "_isPool",
        "offset": 0,
        "slot": "1",
        "type": "t_mapping(t_address,t_bool)"
      }
    ],
    "types": {
      "t_address": {
        "encoding": "inplace",
        "label": "address",
        "numberOfBytes": "20"
      },
      "t_bool": {
        "encoding": "inplace",
        "label": "bool",
        "numberOfBytes": "1"
      },
      "t_mapping(t_address,t_bool)": {
        "encoding": "mapping",
        "key": "t_address",
        "label": "mapping(address => bool)",
        "numberOfBytes": "32",
        "value": "t_bool"
      }
    }
  }
}