{
  "address": "0xEa03Da62e0b6211AF7Da08f3Eaf35FBd281f0B77",
  "abi": [
    {
      "inputs": [
        {
          "internalType": "address",
          "name": "_owner",
          "type": "address"
        },
        {
          "internalType": "address",
          "name": "ammFactory_address",
          "type": "address"
        }
      ],
      "stateMutability": "nonpayable",
      "type": "constructor"
    },
    {
      "inputs": [
        {
          "components": [
            {
              "internalType": "address",
              "name": "_want",
              "type": "address"
            },
            {
              "internalType": "address[]",
              "name": "_instruments",
              "type": "address[]"
            },
            {
              "internalType": "uint256[]",
              "name": "_ratios",
              "type": "uint256[]"
            },
            {
              "internalType": "uint256",
              "name": "_junior_weight",
              "type": "uint256"
            },
            {
              "internalType": "uint256",
              "name": "_promisedReturn",
              "type": "uint256"
            },
            {
              "internalType": "uint256",
              "name": "_time_to_maturity",
              "type": "uint256"
            },
            {
              "internalType": "uint256",
              "name": "vaultId",
              "type": "uint256"
            }
          ],
          "internalType": "struct TrancheFactory.InitParams",
          "name": "param",
          "type": "tuple"
        }
      ],
      "name": "createVault",
      "outputs": [],
      "stateMutability": "nonpayable",
      "type": "function"
    },
    {
      "inputs": [
        {
          "internalType": "address",
          "name": "to",
          "type": "address"
        },
        {
          "internalType": "uint256",
          "name": "vaultId",
          "type": "uint256"
        },
        {
          "internalType": "uint256",
          "name": "lpshares",
          "type": "uint256"
        }
      ],
      "name": "decreaseLPTokenBalance",
      "outputs": [],
      "stateMutability": "nonpayable",
      "type": "function"
    },
    {
      "inputs": [
        {
          "internalType": "uint256",
          "name": "vaultId",
          "type": "uint256"
        }
      ],
      "name": "getAmm",
      "outputs": [
        {
          "internalType": "contract StableSwap",
          "name": "",
          "type": "address"
        }
      ],
      "stateMutability": "view",
      "type": "function"
    },
    {
      "inputs": [
        {
          "internalType": "uint256",
          "name": "vaultId",
          "type": "uint256"
        }
      ],
      "name": "getContracts",
      "outputs": [
        {
          "components": [
            {
              "internalType": "address",
              "name": "vault",
              "type": "address"
            },
            {
              "internalType": "address",
              "name": "splitter",
              "type": "address"
            },
            {
              "internalType": "address",
              "name": "amm",
              "type": "address"
            },
            {
              "components": [
                {
                  "internalType": "address",
                  "name": "_want",
                  "type": "address"
                },
                {
                  "internalType": "address[]",
                  "name": "_instruments",
                  "type": "address[]"
                },
                {
                  "internalType": "uint256[]",
                  "name": "_ratios",
                  "type": "uint256[]"
                },
                {
                  "internalType": "uint256",
                  "name": "_junior_weight",
                  "type": "uint256"
                },
                {
                  "internalType": "uint256",
                  "name": "_promisedReturn",
                  "type": "uint256"
                },
                {
                  "internalType": "uint256",
                  "name": "_time_to_maturity",
                  "type": "uint256"
                },
                {
                  "internalType": "uint256",
                  "name": "vaultId",
                  "type": "uint256"
                }
              ],
              "internalType": "struct TrancheFactory.InitParams",
              "name": "param",
              "type": "tuple"
            }
          ],
          "internalType": "struct TrancheFactory.Contracts",
          "name": "",
          "type": "tuple"
        }
      ],
      "stateMutability": "view",
      "type": "function"
    },
    {
      "inputs": [
        {
          "internalType": "address",
          "name": "to",
          "type": "address"
        },
        {
          "internalType": "uint256",
          "name": "vaultId",
          "type": "uint256"
        }
      ],
      "name": "getLPTokenBalance",
      "outputs": [
        {
          "internalType": "uint256",
          "name": "",
          "type": "uint256"
        }
      ],
      "stateMutability": "view",
      "type": "function"
    },
    {
      "inputs": [
        {
          "internalType": "uint256",
          "name": "vaultId",
          "type": "uint256"
        }
      ],
      "name": "getSplitter",
      "outputs": [
        {
          "internalType": "contract Splitter",
          "name": "",
          "type": "address"
        }
      ],
      "stateMutability": "view",
      "type": "function"
    },
    {
      "inputs": [
        {
          "internalType": "uint256",
          "name": "vaultId",
          "type": "uint256"
        }
      ],
      "name": "getSuperVault",
      "outputs": [
        {
          "internalType": "contract tVault",
          "name": "",
          "type": "address"
        }
      ],
      "stateMutability": "view",
      "type": "function"
    },
    {
      "inputs": [
        {
          "internalType": "address",
          "name": "to",
          "type": "address"
        },
        {
          "internalType": "uint256",
          "name": "vaultId",
          "type": "uint256"
        },
        {
          "internalType": "uint256",
          "name": "lpshares",
          "type": "uint256"
        }
      ],
      "name": "increaseLPTokenBalance",
      "outputs": [],
      "stateMutability": "nonpayable",
      "type": "function"
    }
  ],
  "transactionHash": "0x000282f980f44ba2757cefe8d5baa09f38fe32110bf09bdecb314e60a8fb5d27",
  "args": [
    "0xFD84b7AC1E646580db8c77f1f05F47977fAda692",
    "0xC67b31AB4e370e467353a87F427C6880F78cb480"
  ],
  "numDeployments": 5,
  "solcInputHash": "32fbb18dc865e454be6a8d21147e5957",
  "bytecode": "0x608060405234801561001057600080fd5b50604051615cff380380615cff83398101604081905261002f9161007c565b600180546001600160a01b039384166001600160a01b031991821617909155600280549290931691161790556100ae565b80516001600160a01b038116811461007757600080fd5b919050565b6000806040838503121561008e578182fd5b61009783610060565b91506100a560208401610060565b90509250929050565b615c42806100bd6000396000f3fe60806040523480156200001157600080fd5b5060043610620000935760003560e01c8063439e23fd1162000062578063439e23fd146200012857806389980366146200014e578063991a126e146200017d5780639cbfaea914620001ac57600080fd5b806338b3e69214620000985780633f96f9a714620000b1578063403e8fd114620000fa5780634227577d1462000111575b600080fd5b620000af620000a936600462000921565b620001f3565b005b620000dd620000c236600462000afa565b6000908152600360205260409020546001600160a01b031690565b6040516001600160a01b0390911681526020015b60405180910390f35b620000af6200010b36600462000a25565b62000231565b620000af6200012236600462000921565b6200050f565b6200013f6200013936600462000afa565b62000543565b604051620000f1919062000bfd565b620000dd6200015f36600462000afa565b6000908152600360205260409020600101546001600160a01b031690565b620000dd6200018e36600462000afa565b6000908152600360205260409020600201546001600160a01b031690565b620001e4620001bd366004620008f3565b60009081526004602090815260408083206001600160a01b03949094168352929052205490565b604051908152602001620000f1565b60008281526004602090815260408083206001600160a01b0387168452909152812080548392906200022790849062000cea565b9091555050505050565b600081604051620002429062000696565b6200024e919062000c4e565b604051809103906000f0801580156200026b573d6000803e3d6000fd5b5090506000816040516200027f90620006a4565b6001600160a01b039091168152602001604051809103906000f080158015620002ac573d6000803e3d6000fd5b5090506000816001600160a01b031663e9c52e586040518163ffffffff1660e01b815260040160006040518083038186803b158015620002eb57600080fd5b505afa15801562000300573d6000803e3d6000fd5b505050506040513d6000823e601f3d908101601f191682016040526200032a919081019062000958565b60025481519192506000916001600160a01b039091169063981f513690849084906200036657634e487b7160e01b600052603260045260246000fd5b6020026020010151846001815181106200039057634e487b7160e01b600052603260045260246000fd5b60200260200101516040518363ffffffff1660e01b8152600401620003cb9291906001600160a01b0392831681529116602082015260400190565b602060405180830381600087803b158015620003e657600080fd5b505af1158015620003fb573d6000803e3d6000fd5b505050506040513d601f19601f82011682018060405250810190620004219190620009ff565b60c0860151600081815260036020818152604090922080546001600160a01b03199081166001600160a01b038b811691909117835560018301805483168b831617905560028301805483168883161790558b5193830180549092169316929092178255828a01518051959650939490938a93620004a792600487019290910190620006b2565b5060408201518051620004c59160028401916020909101906200071c565b50606082015160038201556080820151600482015560a0820151600582015560c090910151600690910155600080549080620005018362000d1f565b919050555050505050505050565b60008281526004602090815260408083206001600160a01b0387168452909152812080548392906200022790849062000d05565b6200054d6200075a565b600082815260036020818152604092839020835160808101855281546001600160a01b03908116825260018301548116828501526002830154811682870152855160e08101875294830180549091168552600483018054875181870281018701909852808852929693956060880195909492938582019392918301828280156200060157602002820191906000526020600020905b81546001600160a01b03168152600190910190602001808311620005e2575b50505050508152602001600282018054806020026020016040519081016040528092919081815260200182805480156200065b57602002820191906000526020600020905b81548152602001906001019080831162000646575b505050918352505060038201546020820152600482015460408201526005820154606082015260069091015460809091015290525092915050565b612c6c8062000d8383390190565b61221e80620039ef83390190565b8280548282559060005260206000209081019282156200070a579160200282015b828111156200070a57825182546001600160a01b0319166001600160a01b03909116178255602090920191600190910190620006d3565b5062000718929150620007e4565b5090565b8280548282559060005260206000209081019282156200070a579160200282015b828111156200070a5782518255916020019190600101906200073d565b604051806080016040528060006001600160a01b0316815260200160006001600160a01b0316815260200160006001600160a01b03168152602001620007df6040518060e0016040528060006001600160a01b031681526020016060815260200160608152602001600081526020016000815260200160008152602001600081525090565b905290565b5b80821115620007185760008155600101620007e5565b8035620008088162000d69565b919050565b600082601f8301126200081e578081fd5b8135602062000837620008318362000cc3565b62000c8f565b80838252828201915082860187848660051b890101111562000857578586fd5b855b85811015620008825781356200086f8162000d69565b8452928401929084019060010162000859565b5090979650505050505050565b600082601f830112620008a0578081fd5b81356020620008b3620008318362000cc3565b80838252828201915082860187848660051b8901011115620008d3578586fd5b855b858110156200088257813584529284019290840190600101620008d5565b6000806040838503121562000906578182fd5b8235620009138162000d69565b946020939093013593505050565b60008060006060848603121562000936578081fd5b8335620009438162000d69565b95602085013595506040909401359392505050565b600060208083850312156200096b578182fd5b825167ffffffffffffffff81111562000982578283fd5b8301601f8101851362000993578283fd5b8051620009a4620008318262000cc3565b80828252848201915084840188868560051b8701011115620009c4578687fd5b8694505b83851015620009f3578051620009de8162000d69565b835260019490940193918501918501620009c8565b50979650505050505050565b60006020828403121562000a11578081fd5b815162000a1e8162000d69565b9392505050565b60006020828403121562000a37578081fd5b813567ffffffffffffffff8082111562000a4f578283fd5b9083019060e0828603121562000a63578283fd5b62000a6d62000c63565b62000a7883620007fb565b815260208301358281111562000a8c578485fd5b62000a9a878286016200080d565b60208301525060408301358281111562000ab2578485fd5b62000ac0878286016200088f565b604083015250606083013560608201526080830135608082015260a083013560a082015260c083013560c082015280935050505092915050565b60006020828403121562000b0c578081fd5b5035919050565b6000815180845260208085019450808401835b8381101562000b445781518752958201959082019060010162000b26565b509495945050505050565b80516001600160a01b03908116835260208083015160e08286018190528151908601819052600093918301929084906101008801905b8083101562000ba95785518516825294830194600192909201919083019062000b85565b5060408701519450878103604089015262000bc5818662000b13565b945050505050606083015160608501526080830151608085015260a083015160a085015260c083015160c08501528091505092915050565b60208152600060018060a01b0380845116602084015280602085015116604084015280604085015116606084015250606083015160808084015262000c4660a084018262000b4f565b949350505050565b60208152600062000a1e602083018462000b4f565b60405160e0810167ffffffffffffffff8111828210171562000c895762000c8962000d53565b60405290565b604051601f8201601f1916810167ffffffffffffffff8111828210171562000cbb5762000cbb62000d53565b604052919050565b600067ffffffffffffffff82111562000ce05762000ce062000d53565b5060051b60200190565b6000821982111562000d005762000d0062000d3d565b500190565b60008282101562000d1a5762000d1a62000d3d565b500390565b600060001982141562000d365762000d3662000d3d565b5060010190565b634e487b7160e01b600052601160045260246000fd5b634e487b7160e01b600052604160045260246000fd5b6001600160a01b038116811462000d7f57600080fd5b5056fe6101006040523480156200001257600080fd5b5060405162002c6c38038062002c6c8339810160408190526200003591620008d0565b806000015181600001516001600160a01b03166306fdde036040518163ffffffff1660e01b815260040160006040518083038186803b1580156200007857600080fd5b505afa1580156200008d573d6000803e3d6000fd5b505050506040513d6000823e601f3d908101601f19168201604052620000b7919081019062000836565b604051602001620000c9919062000ab5565b60405160208183030381529060405282600001516001600160a01b03166395d89b416040518163ffffffff1660e01b815260040160006040518083038186803b1580156200011657600080fd5b505afa1580156200012b573d6000803e3d6000fd5b505050506040513d6000823e601f3d908101601f1916820160405262000155919081019062000836565b60405160200162000167919062000a8a565b6040516020818303038152906040528181846001600160a01b031663313ce5676040518163ffffffff1660e01b815260040160206040518083038186803b158015620001b257600080fd5b505afa158015620001c7573d6000803e3d6000fd5b505050506040513d601f19601f82011682018060405250810190620001ed9190620009bd565b825162000202906000906020860190620005fa565b50815162000218906001906020850190620005fa565b507fff0000000000000000000000000000000000000000000000000000000000000060f882901b166080524660a05262000251620004cf565b60c052505050505060601b6001600160601b03191660e0528051600d80546001600160a01b0319166001600160a01b039092169190911790556020808201518051620002a292600892019062000689565b506020808201515160065560408201518051620002c4926007920190620006e1565b506060810151600a556080810151600b5560a0810151600c55426009556006546001600160401b038111156200030a57634e487b7160e01b600052604160045260246000fd5b60405190808252806020026020018201604052801562000334578160200160208202803683370190505b5080516200034b91600f91602090910190620006e1565b50600d60009054906101000a90046001600160a01b03166001600160a01b031663313ce5676040518163ffffffff1660e01b815260040160206040518083038186803b1580156200039b57600080fd5b505afa158015620003b0573d6000803e3d6000fd5b505050506040513d601f19601f82011682018060405250810190620003d69190620009bd565b620003e390600a62000bc2565b60105560005b600654811015620004c75780600e6000600884815481106200041b57634e487b7160e01b600052603260045260246000fd5b60009182526020808320909101546001600160a01b0316835282019290925260400190205560088054620004849190839081106200046957634e487b7160e01b600052603260045260246000fd5b6000918252602090912001546001600160a01b03166200056b565b600f8281548110620004a657634e487b7160e01b600052603260045260246000fd5b60009182526020909120015580620004be8162000cf1565b915050620003e9565b505062000d3b565b60007f8b73c3c69bb8fe3d512ecc4cf759cc79239f7b179b0ffacaa9a75d522b39400f6000604051620005039190620009e7565b6040805191829003822060208301939093528101919091527fc89efdaa54c0f20c7adf612882df0950f5a951637e0307cdcb4c672f298b8bc660608201524660808201523060a082015260c00160405160208183030381529060405280519060200120905090565b60105460405163ef8b30f760e01b81526000916001600160a01b0384169163ef8b30f791620005a09160040190815260200190565b60206040518083038186803b158015620005b957600080fd5b505afa158015620005ce573d6000803e3d6000fd5b505050506040513d601f19601f82011682018060405250810190620005f49190620009a4565b92915050565b828054620006089062000cb4565b90600052602060002090601f0160209004810192826200062c576000855562000677565b82601f106200064757805160ff191683800117855562000677565b8280016001018555821562000677579182015b82811115620006775782518255916020019190600101906200065a565b50620006859291506200071e565b5090565b82805482825590600052602060002090810192821562000677579160200282015b828111156200067757825182546001600160a01b0319166001600160a01b03909116178255602090920191600190910190620006aa565b828054828255906000526020600020908101928215620006775791602002820182811115620006775782518255916020019190600101906200065a565b5b808211156200068557600081556001016200071f565b80516001600160a01b03811681146200074d57600080fd5b919050565b600082601f83011262000763578081fd5b815160206200077c620007768362000b53565b62000b20565b80838252828201915082860187848660051b89010111156200079c578586fd5b855b85811015620007c557620007b28262000735565b845292840192908401906001016200079e565b5090979650505050505050565b600082601f830112620007e3578081fd5b81516020620007f6620007768362000b53565b80838252828201915082860187848660051b890101111562000816578586fd5b855b85811015620007c55781518452928401929084019060010162000818565b60006020828403121562000848578081fd5b81516001600160401b03808211156200085f578283fd5b818401915084601f83011262000873578283fd5b81518181111562000888576200088862000d25565b6200089d601f8201601f191660200162000b20565b9150808252856020828501011115620008b4578384fd5b620008c781602084016020860162000c81565b50949350505050565b600060208284031215620008e2578081fd5b81516001600160401b0380821115620008f9578283fd5b9083019060e082860312156200090d578283fd5b6200091762000af5565b620009228362000735565b815260208301518281111562000936578485fd5b620009448782860162000752565b6020830152506040830151828111156200095c578485fd5b6200096a87828601620007d2565b604083015250606083015160608201526080830151608082015260a083015160a082015260c083015160c082015280935050505092915050565b600060208284031215620009b6578081fd5b5051919050565b600060208284031215620009cf578081fd5b815160ff81168114620009e0578182fd5b9392505050565b600080835482600182811c91508083168062000a0457607f831692505b602080841082141562000a2557634e487b7160e01b87526022600452602487fd5b81801562000a3c576001811462000a4e5762000a7c565b60ff1986168952848901965062000a7c565b60008a815260209020885b8681101562000a745781548b82015290850190830162000a59565b505084890196505b509498975050505050505050565b601d60fa1b81526000825162000aa881600185016020870162000c81565b9190910160010192915050565b65039bab832b9160d51b81526000825162000ad881600685016020870162000c81565b650815985d5b1d60d21b6006939091019283015250600c01919050565b60405160e081016001600160401b038111828210171562000b1a5762000b1a62000d25565b60405290565b604051601f8201601f191681016001600160401b038111828210171562000b4b5762000b4b62000d25565b604052919050565b60006001600160401b0382111562000b6f5762000b6f62000d25565b5060051b60200190565b600181815b8085111562000bba57816000190482111562000b9e5762000b9e62000d0f565b8085161562000bac57918102915b93841c939080029062000b7e565b509250929050565b6000620009e060ff84168360008262000bde57506001620005f4565b8162000bed57506000620005f4565b816001811462000c06576002811462000c115762000c31565b6001915050620005f4565b60ff84111562000c255762000c2562000d0f565b50506001821b620005f4565b5060208310610133831016604e8410600b841016171562000c56575081810a620005f4565b62000c62838362000b79565b806000190482111562000c795762000c7962000d0f565b029392505050565b60005b8381101562000c9e57818101518382015260200162000c84565b8381111562000cae576000848401525b50505050565b600181811c9082168062000cc957607f821691505b6020821081141562000ceb57634e487b7160e01b600052602260045260246000fd5b50919050565b600060001982141562000d085762000d0862000d0f565b5060010190565b634e487b7160e01b600052601160045260246000fd5b634e487b7160e01b600052604160045260246000fd5b60805160f81c60a05160c05160e05160601c611ec762000da5600039600081816102f901528181610a3601528181610b0d01528181610d7b01528181610ec3015281816115a801526115e901526000610834015260006107ff015260006102b00152611ec76000f3fe608060405234801561001057600080fd5b50600436106102115760003560e01c80637f2b6a0d11610125578063ba087652116100ad578063d505accf1161007c578063d505accf1461047a578063d905777e1461048f578063dd62ed3e146104b8578063e31fbfa2146104e3578063ef8b30f7146104eb57600080fd5b8063ba08765214610441578063c63d75b614610333578063c6e6f59214610454578063ce96cb771461046757600080fd5b80639816f473116100f45780639816f473146103e2578063a2b379d7146103f3578063a9059cbb14610408578063b3d7f6b91461041b578063b460af941461042e57600080fd5b80637f2b6a0d146103b657806394bf804d146103be57806395082d25146103d157806395d89b41146103da57600080fd5b806334fd2eca116101a85780634cdad506116101775780634cdad50614610348578063695f7af01461035b5780636e553f651461036357806370a08231146103765780637ecebe001461039657600080fd5b806334fd2eca146102e45780633644e515146102ec57806338d52e0f146102f4578063402d267d1461033357600080fd5b80630a28a477116101e45780630a28a4771461027c57806318160ddd1461028f57806323b872dd14610298578063313ce567146102ab57600080fd5b806301e1d1141461021657806306fdde031461023157806307a2d13a14610246578063095ea7b314610259575b600080fd5b61021e6104fe565b6040519081526020015b60405180910390f35b6102396105d3565b6040516102289190611d3b565b61021e610254366004611b84565b610661565b61026c610267366004611b5b565b61068e565b6040519015158152602001610228565b61021e61028a366004611b84565b6106fb565b61021e60025481565b61026c6102a6366004611aaf565b61071b565b6102d27f000000000000000000000000000000000000000000000000000000000000000081565b60405160ff9091168152602001610228565b600b5461021e565b61021e6107fb565b61031b7f000000000000000000000000000000000000000000000000000000000000000081565b6040516001600160a01b039091168152602001610228565b61021e610341366004611a63565b5060001990565b61021e610356366004611b84565b610856565b61021e610861565b61021e610371366004611bb4565b6109dc565b61021e610384366004611a63565b60036020526000908152604090205481565b61021e6103a4366004611a63565b60056020526000908152604090205481565b61026c610ab4565b61021e6103cc366004611bb4565b610acd565b61021e60105481565b610239610bb4565b600d546001600160a01b031661031b565b6103fb610bc1565b6040516102289190611cf7565b61026c610416366004611b5b565b610c19565b61021e610429366004611b84565b610c7f565b61021e61043c366004611bd6565b610c9e565b61021e61044f366004611bd6565b610da2565b61021e610462366004611b84565b610eea565b61021e610475366004611a63565b610f0a565b61048d610488366004611aea565b610f2c565b005b61021e61049d366004611a63565b6001600160a01b031660009081526003602052604090205490565b61021e6104c6366004611a7d565b600460209081526000928352604080842090915290825290205481565b600a5461021e565b61021e6104f9366004611b84565b611170565b60008060005b6006548110156105cd576008818154811061052f57634e487b7160e01b600052603260045260246000fd5b60009182526020918290200154604080516278744560e21b815290516001600160a01b03909216926301e1d11492600480840193829003018186803b15801561057757600080fd5b505afa15801561058b573d6000803e3d6000fd5b505050506040513d601f19601f820116820180604052508101906105af9190611b9c565b6105b99083611d9d565b9150806105c581611e40565b915050610504565b50919050565b600080546105e090611e0b565b80601f016020809104026020016040519081016040528092919081815260200182805461060c90611e0b565b80156106595780601f1061062e57610100808354040283529160200191610659565b820191906000526020600020905b81548152906001019060200180831161063c57829003601f168201915b505050505081565b6002546000908015610685576106806106786104fe565b84908361117b565b610687565b825b9392505050565b3360008181526004602090815260408083206001600160a01b038716808552925280832085905551919290917f8c5be1e5ebec7d5bd14f71427d1e84f3dd0314c0f7b2291e5b200ac8c7c3b925906106e99086815260200190565b60405180910390a35060015b92915050565b600254600090801561068557610680816107136104fe565b85919061119a565b6001600160a01b03831660009081526004602090815260408083203384529091528120546000198114610777576107528382611df4565b6001600160a01b03861660009081526004602090815260408083203384529091529020555b6001600160a01b0385166000908152600360205260408120805485929061079f908490611df4565b90915550506001600160a01b0380851660008181526003602052604090819020805487019055519091871690600080516020611e72833981519152906107e89087815260200190565b60405180910390a3506001949350505050565b60007f000000000000000000000000000000000000000000000000000000000000000046146108315761082c6111c8565b905090565b507f000000000000000000000000000000000000000000000000000000000000000090565b60006106f582610661565b60008060065467ffffffffffffffff81111561088d57634e487b7160e01b600052604160045260246000fd5b6040519080825280602002602001820160405280156108b6578160200160208202803683370190505b5090506000805b6006548110156109c757601054600f82815481106108eb57634e487b7160e01b600052603260045260246000fd5b90600052602060002001546109346008848154811061091a57634e487b7160e01b600052603260045260246000fd5b6000918252602090912001546001600160a01b0316611262565b61093e9190611db5565b6109489190611dd5565b83828151811061096857634e487b7160e01b600052603260045260246000fd5b60200260200101818152505060105483828151811061099757634e487b7160e01b600052603260045260246000fd5b60200260200101516109a99190611df4565b6109b39083611d9d565b9150806109bf81611e40565b9150506108bd565b506006546109d59082611db5565b9250505090565b60006109e783611170565b905080610a295760405162461bcd60e51b815260206004820152600b60248201526a5a45524f5f53484152455360a81b60448201526064015b60405180910390fd5b610a5e6001600160a01b037f0000000000000000000000000000000000000000000000000000000000000000163330866112e6565b610a688282611370565b60408051848152602081018390526001600160a01b0384169133917fdcbc1c05240f31ff3ad067ef1ee35ce4997762752e3a095284754544f4c709d791015b60405180910390a36106f5565b6000600c5460095442610ac79190611df4565b11905090565b6000610ad883610c7f565b9050610b00604051806040016040528060048152602001636865726560e01b815250336113ce565b610b356001600160a01b037f0000000000000000000000000000000000000000000000000000000000000000163330846112e6565b610b5e6040518060400160405280600681526020016561737365747360d01b8152508285611413565b610b678361145f565b610b718284611370565b60408051828152602081018590526001600160a01b0384169133917fdcbc1c05240f31ff3ad067ef1ee35ce4997762752e3a095284754544f4c709d79101610aa7565b600180546105e090611e0b565b6060600f805480602002602001604051908101604052809291908181526020018280548015610c0f57602002820191906000526020600020905b815481526020019060010190808311610bfb575b5050505050905090565b33600090815260036020526040812080548391908390610c3a908490611df4565b90915550506001600160a01b03831660008181526003602052604090819020805485019055513390600080516020611e72833981519152906106e99086815260200190565b600254600090801561068557610680610c966104fe565b84908361119a565b6000610ca9846106fb565b9050336001600160a01b03831614610d19576001600160a01b03821660009081526004602090815260408083203384529091529020546000198114610d1757610cf28282611df4565b6001600160a01b03841660009081526004602090815260408083203384529091529020555b505b610d2382826117b3565b60408051858152602081018390526001600160a01b03808516929086169133917ffbde797d201c681b91056529119e0b02407c7bb96a4a2c75c01fc9667232c8db910160405180910390a46106876001600160a01b037f0000000000000000000000000000000000000000000000000000000000000000168486611815565b6000336001600160a01b03831614610e12576001600160a01b03821660009081526004602090815260408083203384529091529020546000198114610e1057610deb8582611df4565b6001600160a01b03841660009081526004602090815260408083203384529091529020555b505b610e1b84610856565b905080610e585760405162461bcd60e51b815260206004820152600b60248201526a5a45524f5f41535345545360a81b6044820152606401610a20565b610e6181611893565b610e6b82856117b3565b60408051828152602081018690526001600160a01b03808516929086169133917ffbde797d201c681b91056529119e0b02407c7bb96a4a2c75c01fc9667232c8db910160405180910390a46106876001600160a01b037f0000000000000000000000000000000000000000000000000000000000000000168483611815565b60025460009080156106855761068081610f026104fe565b85919061117b565b6001600160a01b0381166000908152600360205260408120546106f590610661565b42841015610f7c5760405162461bcd60e51b815260206004820152601760248201527f5045524d49545f444541444c494e455f455850495245440000000000000000006044820152606401610a20565b60006001610f886107fb565b6001600160a01b038a811660008181526005602090815260409182902080546001810190915582517f6e71edae12b1b97f4d1f60370fef10105fa2faae0126114a169c64845d6126c98184015280840194909452938d166060840152608083018c905260a083019390935260c08083018b90528151808403909101815260e08301909152805192019190912061190160f01b6101008301526101028201929092526101228101919091526101420160408051601f198184030181528282528051602091820120600084529083018083525260ff871690820152606081018590526080810184905260a0016020604051602081039080840390855afa158015611094573d6000803e3d6000fd5b5050604051601f1901519150506001600160a01b038116158015906110ca5750876001600160a01b0316816001600160a01b0316145b6111075760405162461bcd60e51b815260206004820152600e60248201526d24a72b20a624a22fa9a4a3a722a960911b6044820152606401610a20565b6001600160a01b0390811660009081526004602090815260408083208a8516808552908352928190208990555188815291928a16917f8c5be1e5ebec7d5bd14f71427d1e84f3dd0314c0f7b2291e5b200ac8c7c3b925910160405180910390a350505050505050565b60006106f582610eea565b82820281151584158583048514171661119357600080fd5b0492915050565b8282028115158415858304851417166111b257600080fd5b6001826001830304018115150290509392505050565b60007f8b73c3c69bb8fe3d512ecc4cf759cc79239f7b179b0ffacaa9a75d522b39400f60006040516111fa9190611c5c565b6040805191829003822060208301939093528101919091527fc89efdaa54c0f20c7adf612882df0950f5a951637e0307cdcb4c672f298b8bc660608201524660808201523060a082015260c00160405160208183030381529060405280519060200120905090565b60105460405163ef8b30f760e01b81526000916001600160a01b0384169163ef8b30f7916112969160040190815260200190565b60206040518083038186803b1580156112ae57600080fd5b505afa1580156112c2573d6000803e3d6000fd5b505050506040513d601f19601f820116820180604052508101906106f59190611b9c565b60006040516323b872dd60e01b81528460048201528360248201528260448201526020600060648360008a5af13d15601f3d11600160005114161716915050806113695760405162461bcd60e51b81526020600482015260146024820152731514905394d1915497d19493d357d1905253115160621b6044820152606401610a20565b5050505050565b80600260008282546113829190611d9d565b90915550506001600160a01b038216600081815260036020908152604080832080548601905551848152600080516020611e7283398151915291015b60405180910390a35050565b5050565b6113ca82826040516024016113e4929190611d4e565b60408051601f198184030181529190526020810180516001600160e01b031663319af33360e01b1790526119af565b61145a83838360405160240161142b93929190611d78565b60408051601f198184030181529190526020810180516001600160e01b031663969cdd0360e01b1790526119af565b505050565b6000805b60065481101561145a576008818154811061148e57634e487b7160e01b600052603260045260246000fd5b9060005260206000200160009054906101000a90046001600160a01b03166001600160a01b03166307a2d13a601054600784815481106114de57634e487b7160e01b600052603260045260246000fd5b9060005260206000200154866114f49190611dd5565b6114fe9190611db5565b6040518263ffffffff1660e01b815260040161151c91815260200190565b60206040518083038186803b15801561153457600080fd5b505afa158015611548573d6000803e3d6000fd5b505050506040513d601f19601f8201168201806040525081019061156c9190611b9c565b91506115d16008828154811061159257634e487b7160e01b600052603260045260246000fd5b6000918252602090912001546001600160a01b037f000000000000000000000000000000000000000000000000000000000000000081169116846119d0565b6040516370a0823160e01b81523060048201526000907f00000000000000000000000000000000000000000000000000000000000000006001600160a01b0316906370a082319060240160206040518083038186803b15801561163357600080fd5b505afa158015611647573d6000803e3d6000fd5b505050506040513d601f19601f8201168201806040525081019061166b9190611b9c565b90506116c36040518060400160405280600781526020016662616c616e636560c81b8152508260076000815481106116b357634e487b7160e01b600052603260045260246000fd5b9060005260206000200154611413565b6116ec6040518060400160405280600681526020016573686172657360d01b8152508486611413565b60006008838154811061170f57634e487b7160e01b600052603260045260246000fd5b600091825260209091200154604051636e553f6560e01b8152600481018690523060248201526001600160a01b0390911690636e553f6590604401602060405180830381600087803b15801561176457600080fd5b505af1158015611778573d6000803e3d6000fd5b505050506040513d601f19601f8201168201806040525081019061179c9190611b9c565b9050505080806117ab90611e40565b915050611463565b6001600160a01b038216600090815260036020526040812080548392906117db908490611df4565b90915550506002805482900390556040518181526000906001600160a01b03841690600080516020611e72833981519152906020016113be565b600060405163a9059cbb60e01b8152836004820152826024820152602060006044836000895af13d15601f3d116001600051141617169150508061188d5760405162461bcd60e51b815260206004820152600f60248201526e1514905394d1915497d19052531151608a1b6044820152606401610a20565b50505050565b6000805b60065481101561145a57601054600782815481106118c557634e487b7160e01b600052603260045260246000fd5b9060005260206000200154846118db9190611dd5565b6118e59190611db5565b91506008818154811061190857634e487b7160e01b600052603260045260246000fd5b600091825260209091200154604051632d182be560e21b815260048101849052306024820181905260448201526001600160a01b039091169063b460af9490606401602060405180830381600087803b15801561196457600080fd5b505af1158015611978573d6000803e3d6000fd5b505050506040513d601f19601f8201168201806040525081019061199c9190611b9c565b50806119a781611e40565b915050611897565b80516a636f6e736f6c652e6c6f67602083016000808483855afa5050505050565b600060405163095ea7b360e01b8152836004820152826024820152602060006044836000895af13d15601f3d116001600051141617169150508061188d5760405162461bcd60e51b815260206004820152600e60248201526d1054141493d59157d1905253115160921b6044820152606401610a20565b80356001600160a01b0381168114611a5e57600080fd5b919050565b600060208284031215611a74578081fd5b61068782611a47565b60008060408385031215611a8f578081fd5b611a9883611a47565b9150611aa660208401611a47565b90509250929050565b600080600060608486031215611ac3578081fd5b611acc84611a47565b9250611ada60208501611a47565b9150604084013590509250925092565b600080600080600080600060e0888a031215611b04578283fd5b611b0d88611a47565b9650611b1b60208901611a47565b95506040880135945060608801359350608088013560ff81168114611b3e578384fd5b9699959850939692959460a0840135945060c09093013592915050565b60008060408385031215611b6d578182fd5b611b7683611a47565b946020939093013593505050565b600060208284031215611b95578081fd5b5035919050565b600060208284031215611bad578081fd5b5051919050565b60008060408385031215611bc6578182fd5b82359150611aa660208401611a47565b600080600060608486031215611bea578283fd5b83359250611bfa60208501611a47565b9150611c0860408501611a47565b90509250925092565b60008151808452815b81811015611c3657602081850181015186830182015201611c1a565b81811115611c475782602083870101525b50601f01601f19169290920160200192915050565b600080835482600182811c915080831680611c7857607f831692505b6020808410821415611c9857634e487b7160e01b87526022600452602487fd5b818015611cac5760018114611cbd57611ce9565b60ff19861689528489019650611ce9565b60008a815260209020885b86811015611ce15781548b820152908501908301611cc8565b505084890196505b509498975050505050505050565b6020808252825182820181905260009190848201906040850190845b81811015611d2f57835183529284019291840191600101611d13565b50909695505050505050565b6020815260006106876020830184611c11565b604081526000611d616040830185611c11565b905060018060a01b03831660208301529392505050565b606081526000611d8b6060830186611c11565b60208301949094525060400152919050565b60008219821115611db057611db0611e5b565b500190565b600082611dd057634e487b7160e01b81526012600452602481fd5b500490565b6000816000190483118215151615611def57611def611e5b565b500290565b600082821015611e0657611e06611e5b565b500390565b600181811c90821680611e1f57607f821691505b602082108114156105cd57634e487b7160e01b600052602260045260246000fd5b6000600019821415611e5457611e54611e5b565b5060010190565b634e487b7160e01b600052601160045260246000fdfeddf252ad1be2c89b69c2b068fc378daa952ba7f163c4a11628f55a4df523b3efa2646970667358221220c600e3022239df18c82a294106ed4ad686dde1b9417cb303ab670f0f2309cb6164736f6c6343000804003360806040523480156200001157600080fd5b506040516200221e3803806200221e8339810160408190526200003491620003d1565b600080546001600160a01b0319166001600160a01b0383169081178255604080516395d89b4160e01b8152905184936395d89b419260048082019391829003018186803b1580156200008557600080fd5b505afa1580156200009a573d6000803e3d6000fd5b505050506040513d6000823e601f3d908101601f19168201604052620000c4919081019062000401565b604051602001620000d69190620004fc565b60405160208183030381529060405230604051620000f490620003c3565b62000102939291906200059d565b604051809103906000f0801580156200011f573d6000803e3d6000fd5b50600160006101000a8154816001600160a01b0302191690836001600160a01b0316021790555080816001600160a01b03166395d89b416040518163ffffffff1660e01b815260040160006040518083038186803b1580156200018157600080fd5b505afa15801562000196573d6000803e3d6000fd5b505050506040513d6000823e601f3d908101601f19168201604052620001c0919081019062000401565b604051602001620001d2919062000529565b60405160208183030381529060405230604051620001f090620003c3565b620001fe9392919062000549565b604051809103906000f0801580156200021b573d6000803e3d6000fd5b50600280546001600160a01b0319166001600160a01b039283161790556000546040805163718fdfd160e11b81529051919092169163e31fbfa2916004808301926020929190829003018186803b1580156200027657600080fd5b505afa1580156200028b573d6000803e3d6000fd5b505050506040513d601f19601f82011682018060405250810190620002b19190620004b5565b60035560005460408051631a7e976560e11b815290516001600160a01b03909216916334fd2eca91600480820192602092909190829003018186803b158015620002fa57600080fd5b505afa1580156200030f573d6000803e3d6000fd5b505050506040513d601f19601f82011682018060405250810190620003359190620004b5565b600555600054604080516395082d2560e01b815290516001600160a01b03909216916395082d2591600480820192602092909190829003018186803b1580156200037e57600080fd5b505afa15801562000393573d6000803e3d6000fd5b505050506040513d601f19601f82011682018060405250810190620003b99190620004b5565b6004555062000627565b61118f806200108f83390190565b600060208284031215620003e3578081fd5b81516001600160a01b0381168114620003fa578182fd5b9392505050565b60006020828403121562000413578081fd5b81516001600160401b03808211156200042a578283fd5b818401915084601f8301126200043e578283fd5b81518181111562000453576200045362000611565b604051601f8201601f19908116603f011681019083821181831017156200047e576200047e62000611565b8160405282815287602084870101111562000497578586fd5b620004aa836020830160208801620005de565b979650505050505050565b600060208284031215620004c7578081fd5b5051919050565b60008151808452620004e8816020860160208601620005de565b601f01601f19169290920160200192915050565b6273655f60e81b8152600082516200051c816003850160208701620005de565b9190910160030192915050565b626a755f60e81b8152600082516200051c816003850160208701620005de565b600060018060a01b038086168352608060208401526006608084015265353ab734b7b960d11b60a084015260c060408401526200058a60c0840186620004ce565b9150808416606084015250949350505050565b600060018060a01b03808616835260806020840152600660808401526539b2b734b7b960d11b60a084015260c060408401526200058a60c0840186620004ce565b60005b83811015620005fb578181015183820152602001620005e1565b838111156200060b576000848401525b50505050565b634e487b7160e01b600052604160045260246000fd5b610a5880620006376000396000f3fe608060405234801561001057600080fd5b506004361061004c5760003560e01c806317a4cf49146100515780635d1e2d1b14610077578063aa17a2cc1461009f578063e9c52e58146100b4575b600080fd5b61006461005f3660046108e4565b6100c9565b6040519081526020015b60405180910390f35b61008a6100853660046108e4565b6103ac565b6040805192835260208301919091520161006e565b6100b26100ad36600461090f565b610512565b005b6100bc610784565b60405161006e9190610939565b600080546001600160a01b0384811691161461011d5760405162461bcd60e51b815260206004820152600e60248201526d2bb937b7339029b83634ba3a32b960911b60448201526064015b60405180910390fd5b600060035460035460045461013291906109dd565b60045461013f91906109be565b610149919061099e565b90506000600454848361015c91906109be565b610166919061099e565b6001546040516370a0823160e01b815233600482015291925082916001600160a01b03909116906370a082319060240160206040518083038186803b1580156101ae57600080fd5b505afa1580156101c2573d6000803e3d6000fd5b505050506040513d601f19601f820116820180604052508101906101e69190610921565b10156102345760405162461bcd60e51b815260206004820152601860248201527f4e6f7420656e6f7567682073656e696f7220746f6b656e7300000000000000006044820152606401610114565b600254604051632770a7eb60e21b8152336004820152602481018690526001600160a01b0390911690639dc29fac90604401600060405180830381600087803b15801561028057600080fd5b505af1158015610294573d6000803e3d6000fd5b5050600154604051632770a7eb60e21b8152336004820152602481018590526001600160a01b039091169250639dc29fac9150604401600060405180830381600087803b1580156102e457600080fd5b505af11580156102f8573d6000803e3d6000fd5b50506000546001600160a01b0316915063a9059cbb90503361031a8488610986565b6040516001600160e01b031960e085901b1681526001600160a01b0390921660048301526024820152604401602060405180830381600087803b15801561036057600080fd5b505af1158015610374573d6000803e3d6000fd5b505050506040513d601f19601f8201168201806040525081019061039891906108bd565b506103a38185610986565b95945050505050565b6000805481906001600160a01b038581169116146103fd5760405162461bcd60e51b815260206004820152600e60248201526d2bb937b7339029b83634ba3a32b960911b6044820152606401610114565b6104126001600160a01b038516333086610833565b60006004546003548561042591906109be565b61042f919061099e565b9050600061043d82866109dd565b6002546040516340c10f1960e01b8152336004820152602481018590529192506001600160a01b0316906340c10f1990604401600060405180830381600087803b15801561048a57600080fd5b505af115801561049e573d6000803e3d6000fd5b50506001546040516340c10f1960e01b8152336004820152602481018590526001600160a01b0390911692506340c10f199150604401600060405180830381600087803b1580156104ee57600080fd5b505af1158015610502573d6000803e3d6000fd5b5093989297509195505050505050565b60008054906101000a90046001600160a01b03166001600160a01b0316637f2b6a0d6040518163ffffffff1660e01b815260040160206040518083038186803b15801561055e57600080fd5b505afa158015610572573d6000803e3d6000fd5b505050506040513d601f19601f8201168201806040525081019061059691906108bd565b6105d65760405162461bcd60e51b815260206004820152601160248201527015985d5b1d081b9bdd081b585d1d5c9959607a1b6044820152606401610114565b6001546001600160a01b03838116911614806105ff57506002546001600160a01b038381169116145b6106415760405162461bcd60e51b81526020600482015260136024820152722bb937b733902a3930b731b432902a37b5b2b760691b6044820152606401610114565b6001546000906001600160a01b03848116911614610660576000610663565b60015b905060008161067457600754610678565b6006545b90506000600454848361068b91906109be565b610695919061099e565b604051632770a7eb60e21b8152336004820152602481018690529091506001600160a01b03861690639dc29fac90604401600060405180830381600087803b1580156106e057600080fd5b505af11580156106f4573d6000803e3d6000fd5b505060005460405163a9059cbb60e01b8152336004820152602481018590526001600160a01b03909116925063a9059cbb9150604401602060405180830381600087803b15801561074457600080fd5b505af1158015610758573d6000803e3d6000fd5b505050506040513d601f19601f8201168201806040525081019061077c91906108bd565b505050505050565b60408051600280825260608083018452926000929190602083019080368337505060015482519293506001600160a01b0316918391506000906107d757634e487b7160e01b600052603260045260246000fd5b6001600160a01b03928316602091820292909201015260025482519116908290600190811061081657634e487b7160e01b600052603260045260246000fd5b6001600160a01b0390921660209283029190910190910152919050565b60006040516323b872dd60e01b81528460048201528360248201528260448201526020600060648360008a5af13d15601f3d11600160005114161716915050806108b65760405162461bcd60e51b81526020600482015260146024820152731514905394d1915497d19493d357d1905253115160621b6044820152606401610114565b5050505050565b6000602082840312156108ce578081fd5b815180151581146108dd578182fd5b9392505050565b600080604083850312156108f6578081fd5b823561090181610a0a565b946020939093013593505050565b600080604083850312156108f6578182fd5b600060208284031215610932578081fd5b5051919050565b6020808252825182820181905260009190848201906040850190845b8181101561097a5783516001600160a01b031683529284019291840191600101610955565b50909695505050505050565b60008219821115610999576109996109f4565b500190565b6000826109b957634e487b7160e01b81526012600452602481fd5b500490565b60008160001904831182151516156109d8576109d86109f4565b500290565b6000828210156109ef576109ef6109f4565b500390565b634e487b7160e01b600052601160045260246000fd5b6001600160a01b0381168114610a1f57600080fd5b5056fea2646970667358221220c0070f7c7a774801cbc3032f205747f4e0fb04fcbd30dd0622dd398dba37e78764736f6c6343000804003360e06040523480156200001157600080fd5b506040516200118f3803806200118f833981016040819052620000349162000343565b8282856001600160a01b031663313ce5676040518163ffffffff1660e01b815260040160206040518083038186803b1580156200007057600080fd5b505afa15801562000085573d6000803e3d6000fd5b505050506040513d601f19601f82011682018060405250810190620000ab9190620003d4565b8251620000c0906000906020860190620001ea565b508151620000d6906001906020850190620001ea565b507fff0000000000000000000000000000000000000000000000000000000000000060f882901b166080524660a0526200010f6200014e565b60c0525050600780546001600160a01b039687166001600160a01b0319918216179091556006805493909616921691909117909355506200050d915050565b60007f8b73c3c69bb8fe3d512ecc4cf759cc79239f7b179b0ffacaa9a75d522b39400f6000604051620001829190620003fe565b6040805191829003822060208301939093528101919091527fc89efdaa54c0f20c7adf612882df0950f5a951637e0307cdcb4c672f298b8bc660608201524660808201523060a082015260c00160405160208183030381529060405280519060200120905090565b828054620001f890620004a1565b90600052602060002090601f0160209004810192826200021c576000855562000267565b82601f106200023757805160ff191683800117855562000267565b8280016001018555821562000267579182015b82811115620002675782518255916020019190600101906200024a565b506200027592915062000279565b5090565b5b808211156200027557600081556001016200027a565b600082601f830112620002a1578081fd5b81516001600160401b0380821115620002be57620002be620004de565b604051601f8301601f19908116603f01168101908282118183101715620002e957620002e9620004de565b8160405283815260209250868385880101111562000305578485fd5b8491505b8382101562000328578582018301518183018401529082019062000309565b838211156200033957848385830101525b9695505050505050565b6000806000806080858703121562000359578384fd5b84516200036681620004f4565b60208601519094506001600160401b038082111562000383578485fd5b620003918883890162000290565b94506040870151915080821115620003a7578384fd5b50620003b68782880162000290565b9250506060850151620003c981620004f4565b939692955090935050565b600060208284031215620003e6578081fd5b815160ff81168114620003f7578182fd5b9392505050565b600080835482600182811c9150808316806200041b57607f831692505b60208084108214156200043c57634e487b7160e01b87526022600452602487fd5b818015620004535760018114620004655762000493565b60ff1986168952848901965062000493565b60008a815260209020885b868110156200048b5781548b82015290850190830162000470565b505084890196505b509498975050505050505050565b600181811c90821680620004b657607f821691505b60208210811415620004d857634e487b7160e01b600052602260045260246000fd5b50919050565b634e487b7160e01b600052604160045260246000fd5b6001600160a01b03811681146200050a57600080fd5b50565b60805160f81c60a05160c051610c4f62000540600039600061046f0152600061043a0152600061015f0152610c4f6000f3fe608060405234801561001057600080fd5b50600436106100ea5760003560e01c806370a082311161008c5780639dc29fac116100665780639dc29fac146101f8578063a9059cbb1461020b578063d505accf1461021e578063dd62ed3e1461023157600080fd5b806370a08231146101b05780637ecebe00146101d057806395d89b41146101f057600080fd5b806323b872dd116100c857806323b872dd14610147578063313ce5671461015a5780633644e5151461019357806340c10f191461019b57600080fd5b806306fdde03146100ef578063095ea7b31461010d57806318160ddd14610130575b600080fd5b6100f761025c565b6040516101049190610b26565b60405180910390f35b61012061011b366004610a62565b6102ea565b6040519015158152602001610104565b61013960025481565b604051908152602001610104565b6101206101553660046109b6565b610356565b6101817f000000000000000000000000000000000000000000000000000000000000000081565b60405160ff9091168152602001610104565b610139610436565b6101ae6101a9366004610a62565b610491565b005b6101396101be366004610963565b60036020526000908152604090205481565b6101396101de366004610963565b60056020526000908152604090205481565b6100f76104ea565b6101ae610206366004610a62565b6104f7565b610120610219366004610a62565b610547565b6101ae61022c3660046109f1565b6105ad565b61013961023f366004610984565b600460209081526000928352604080842090915290825290205481565b6000805461026990610ba8565b80601f016020809104026020016040519081016040528092919081815260200182805461029590610ba8565b80156102e25780601f106102b7576101008083540402835291602001916102e2565b820191906000526020600020905b8154815290600101906020018083116102c557829003601f168201915b505050505081565b3360008181526004602090815260408083206001600160a01b038716808552925280832085905551919290917f8c5be1e5ebec7d5bd14f71427d1e84f3dd0314c0f7b2291e5b200ac8c7c3b925906103459086815260200190565b60405180910390a350600192915050565b6001600160a01b038316600090815260046020908152604080832033845290915281205460001981146103b25761038d8382610b91565b6001600160a01b03861660009081526004602090815260408083203384529091529020555b6001600160a01b038516600090815260036020526040812080548592906103da908490610b91565b90915550506001600160a01b0380851660008181526003602052604090819020805487019055519091871690600080516020610bfa833981519152906104239087815260200190565b60405180910390a3506001949350505050565b60007f0000000000000000000000000000000000000000000000000000000000000000461461046c576104676107f1565b905090565b507f000000000000000000000000000000000000000000000000000000000000000090565b6006546001600160a01b031633146104dc5760405162461bcd60e51b815260206004820152600960248201526810a9b83634ba3a32b960b91b60448201526064015b60405180910390fd5b6104e6828261088b565b5050565b6001805461026990610ba8565b6006546001600160a01b0316331461053d5760405162461bcd60e51b815260206004820152600960248201526810a9b83634ba3a32b960b91b60448201526064016104d3565b6104e682826108e5565b33600090815260036020526040812080548391908390610568908490610b91565b90915550506001600160a01b03831660008181526003602052604090819020805485019055513390600080516020610bfa833981519152906103459086815260200190565b428410156105fd5760405162461bcd60e51b815260206004820152601760248201527f5045524d49545f444541444c494e455f4558504952454400000000000000000060448201526064016104d3565b60006001610609610436565b6001600160a01b038a811660008181526005602090815260409182902080546001810190915582517f6e71edae12b1b97f4d1f60370fef10105fa2faae0126114a169c64845d6126c98184015280840194909452938d166060840152608083018c905260a083019390935260c08083018b90528151808403909101815260e08301909152805192019190912061190160f01b6101008301526101028201929092526101228101919091526101420160408051601f198184030181528282528051602091820120600084529083018083525260ff871690820152606081018590526080810184905260a0016020604051602081039080840390855afa158015610715573d6000803e3d6000fd5b5050604051601f1901519150506001600160a01b0381161580159061074b5750876001600160a01b0316816001600160a01b0316145b6107885760405162461bcd60e51b815260206004820152600e60248201526d24a72b20a624a22fa9a4a3a722a960911b60448201526064016104d3565b6001600160a01b0390811660009081526004602090815260408083208a8516808552908352928190208990555188815291928a16917f8c5be1e5ebec7d5bd14f71427d1e84f3dd0314c0f7b2291e5b200ac8c7c3b925910160405180910390a350505050505050565b60007f8b73c3c69bb8fe3d512ecc4cf759cc79239f7b179b0ffacaa9a75d522b39400f60006040516108239190610a8b565b6040805191829003822060208301939093528101919091527fc89efdaa54c0f20c7adf612882df0950f5a951637e0307cdcb4c672f298b8bc660608201524660808201523060a082015260c00160405160208183030381529060405280519060200120905090565b806002600082825461089d9190610b79565b90915550506001600160a01b038216600081815260036020908152604080832080548601905551848152600080516020610bfa83398151915291015b60405180910390a35050565b6001600160a01b0382166000908152600360205260408120805483929061090d908490610b91565b90915550506002805482900390556040518181526000906001600160a01b03841690600080516020610bfa833981519152906020016108d9565b80356001600160a01b038116811461095e57600080fd5b919050565b600060208284031215610974578081fd5b61097d82610947565b9392505050565b60008060408385031215610996578081fd5b61099f83610947565b91506109ad60208401610947565b90509250929050565b6000806000606084860312156109ca578081fd5b6109d384610947565b92506109e160208501610947565b9150604084013590509250925092565b600080600080600080600060e0888a031215610a0b578283fd5b610a1488610947565b9650610a2260208901610947565b95506040880135945060608801359350608088013560ff81168114610a45578384fd5b9699959850939692959460a0840135945060c09093013592915050565b60008060408385031215610a74578182fd5b610a7d83610947565b946020939093013593505050565b600080835482600182811c915080831680610aa757607f831692505b6020808410821415610ac757634e487b7160e01b87526022600452602487fd5b818015610adb5760018114610aec57610b18565b60ff19861689528489019650610b18565b60008a815260209020885b86811015610b105781548b820152908501908301610af7565b505084890196505b509498975050505050505050565b6000602080835283518082850152825b81811015610b5257858101830151858201604001528201610b36565b81811115610b635783604083870101525b50601f01601f1916929092016040019392505050565b60008219821115610b8c57610b8c610be3565b500190565b600082821015610ba357610ba3610be3565b500390565b600181811c90821680610bbc57607f821691505b60208210811415610bdd57634e487b7160e01b600052602260045260246000fd5b50919050565b634e487b7160e01b600052601160045260246000fdfeddf252ad1be2c89b69c2b068fc378daa952ba7f163c4a11628f55a4df523b3efa2646970667358221220bbae936fe5cc46f7cccc9f164f5fa6ecac383707b329e8fd917ec650bb9c24c464736f6c63430008040033a2646970667358221220f79761100828da699122599f8eac3f0fa97e8277d8f1728d8e45f9a38f4ccdc564736f6c63430008040033",
  "devdoc": {
    "kind": "dev",
    "methods": {
      "createVault((address,address[],uint256[],uint256,uint256,uint256,uint256))": {
        "details": "a bid is filled when liquidity provider agrees to provide initial liq for senior/junior or vice versa.   so initial liq should be provided nonetheless "
      }
    },
    "version": 1
  },
  "userdoc": {
    "kind": "user",
    "methods": {
      "createVault((address,address[],uint256[],uint256,uint256,uint256,uint256))": {
        "notice": "adds vaults, spllitters, and amms when tranche bids are filled  Bidders have to specify the  param want: underlying token for all the vaults e.g(usdc,eth) param instruments: addresses of all vaults for the want they want exposure to param ratios: how much they want to split between the instruments  param junior weight: how much the juniors are allocated; lower means higher leverage for juniors but lower safety for seniors param promisedReturn: how much fixed income seniors are getting paid primarily,  param timetomaturity: when the tVault matures and tranche token holders can redeem their tranche for tVault "
      },
      "increaseLPTokenBalance(address,uint256,uint256)": {
        "notice": "lp token balance is stored in this contract"
      }
    },
    "notice": "contract that stores the contracts and liquidity for each tranches ",
    "version": 1
  },
  "storageLayout": {
    "storage": [
      {
        "astId": 55735,
        "contract": "contracts/vaults/vault_tranche/tranchemaster.sol:TrancheFactory",
        "label": "numVaults",
        "offset": 0,
        "slot": "0",
        "type": "t_uint256"
      },
      {
        "astId": 55737,
        "contract": "contracts/vaults/vault_tranche/tranchemaster.sol:TrancheFactory",
        "label": "owner",
        "offset": 0,
        "slot": "1",
        "type": "t_address"
      },
      {
        "astId": 55740,
        "contract": "contracts/vaults/vault_tranche/tranchemaster.sol:TrancheFactory",
        "label": "ammFactory",
        "offset": 0,
        "slot": "2",
        "type": "t_contract(TrancheAMMFactory)55732"
      },
      {
        "astId": 55772,
        "contract": "contracts/vaults/vault_tranche/tranchemaster.sol:TrancheFactory",
        "label": "vaultContracts",
        "offset": 0,
        "slot": "3",
        "type": "t_mapping(t_uint256,t_struct(Contracts)55767_storage)"
      },
      {
        "astId": 55778,
        "contract": "contracts/vaults/vault_tranche/tranchemaster.sol:TrancheFactory",
        "label": "lp_holdings",
        "offset": 0,
        "slot": "4",
        "type": "t_mapping(t_uint256,t_mapping(t_address,t_uint256))"
      }
    ],
    "types": {
      "t_address": {
        "encoding": "inplace",
        "label": "address",
        "numberOfBytes": "20"
      },
      "t_array(t_address)dyn_storage": {
        "base": "t_address",
        "encoding": "dynamic_array",
        "label": "address[]",
        "numberOfBytes": "32"
      },
      "t_array(t_uint256)dyn_storage": {
        "base": "t_uint256",
        "encoding": "dynamic_array",
        "label": "uint256[]",
        "numberOfBytes": "32"
      },
      "t_contract(TrancheAMMFactory)55732": {
        "encoding": "inplace",
        "label": "contract TrancheAMMFactory",
        "numberOfBytes": "20"
      },
      "t_mapping(t_address,t_uint256)": {
        "encoding": "mapping",
        "key": "t_address",
        "label": "mapping(address => uint256)",
        "numberOfBytes": "32",
        "value": "t_uint256"
      },
      "t_mapping(t_uint256,t_mapping(t_address,t_uint256))": {
        "encoding": "mapping",
        "key": "t_uint256",
        "label": "mapping(uint256 => mapping(address => uint256))",
        "numberOfBytes": "32",
        "value": "t_mapping(t_address,t_uint256)"
      },
      "t_mapping(t_uint256,t_struct(Contracts)55767_storage)": {
        "encoding": "mapping",
        "key": "t_uint256",
        "label": "mapping(uint256 => struct TrancheFactory.Contracts)",
        "numberOfBytes": "32",
        "value": "t_struct(Contracts)55767_storage"
      },
      "t_struct(Contracts)55767_storage": {
        "encoding": "inplace",
        "label": "struct TrancheFactory.Contracts",
        "members": [
          {
            "astId": 55759,
            "contract": "contracts/vaults/vault_tranche/tranchemaster.sol:TrancheFactory",
            "label": "vault",
            "offset": 0,
            "slot": "0",
            "type": "t_address"
          },
          {
            "astId": 55761,
            "contract": "contracts/vaults/vault_tranche/tranchemaster.sol:TrancheFactory",
            "label": "splitter",
            "offset": 0,
            "slot": "1",
            "type": "t_address"
          },
          {
            "astId": 55763,
            "contract": "contracts/vaults/vault_tranche/tranchemaster.sol:TrancheFactory",
            "label": "amm",
            "offset": 0,
            "slot": "2",
            "type": "t_address"
          },
          {
            "astId": 55766,
            "contract": "contracts/vaults/vault_tranche/tranchemaster.sol:TrancheFactory",
            "label": "param",
            "offset": 0,
            "slot": "3",
            "type": "t_struct(InitParams)55757_storage"
          }
        ],
        "numberOfBytes": "320"
      },
      "t_struct(InitParams)55757_storage": {
        "encoding": "inplace",
        "label": "struct TrancheFactory.InitParams",
        "members": [
          {
            "astId": 55742,
            "contract": "contracts/vaults/vault_tranche/tranchemaster.sol:TrancheFactory",
            "label": "_want",
            "offset": 0,
            "slot": "0",
            "type": "t_address"
          },
          {
            "astId": 55745,
            "contract": "contracts/vaults/vault_tranche/tranchemaster.sol:TrancheFactory",
            "label": "_instruments",
            "offset": 0,
            "slot": "1",
            "type": "t_array(t_address)dyn_storage"
          },
          {
            "astId": 55748,
            "contract": "contracts/vaults/vault_tranche/tranchemaster.sol:TrancheFactory",
            "label": "_ratios",
            "offset": 0,
            "slot": "2",
            "type": "t_array(t_uint256)dyn_storage"
          },
          {
            "astId": 55750,
            "contract": "contracts/vaults/vault_tranche/tranchemaster.sol:TrancheFactory",
            "label": "_junior_weight",
            "offset": 0,
            "slot": "3",
            "type": "t_uint256"
          },
          {
            "astId": 55752,
            "contract": "contracts/vaults/vault_tranche/tranchemaster.sol:TrancheFactory",
            "label": "_promisedReturn",
            "offset": 0,
            "slot": "4",
            "type": "t_uint256"
          },
          {
            "astId": 55754,
            "contract": "contracts/vaults/vault_tranche/tranchemaster.sol:TrancheFactory",
            "label": "_time_to_maturity",
            "offset": 0,
            "slot": "5",
            "type": "t_uint256"
          },
          {
            "astId": 55756,
            "contract": "contracts/vaults/vault_tranche/tranchemaster.sol:TrancheFactory",
            "label": "vaultId",
            "offset": 0,
            "slot": "6",
            "type": "t_uint256"
          }
        ],
        "numberOfBytes": "224"
      },
      "t_uint256": {
        "encoding": "inplace",
        "label": "uint256",
        "numberOfBytes": "32"
      }
    }
  }
}