{
  "address": "0x0559B2a21d6479b9a03ea835D83895f5aEE47C5f",
  "abi": [
    {
      "inputs": [
        {
          "internalType": "address",
          "name": "_owner",
          "type": "address"
        },
        {
          "internalType": "contract IERC20Full",
          "name": "_collateral",
          "type": "address"
        },
        {
          "internalType": "uint256",
          "name": "_shareFactor",
          "type": "uint256"
        },
        {
          "internalType": "contract FeePot",
          "name": "_feePot",
          "type": "address"
        },
        {
          "internalType": "uint256[3]",
          "name": "_fees",
          "type": "uint256[3]"
        },
        {
          "internalType": "address",
          "name": "_protocol",
          "type": "address"
        }
      ],
      "stateMutability": "nonpayable",
      "type": "constructor"
    },
    {
      "anonymous": false,
      "inputs": [
        {
          "indexed": false,
          "internalType": "uint256",
          "name": "id",
          "type": "uint256"
        }
      ],
      "name": "MarketActivated",
      "type": "event"
    },
    {
      "anonymous": false,
      "inputs": [
        {
          "indexed": false,
          "internalType": "uint256",
          "name": "id",
          "type": "uint256"
        },
        {
          "indexed": false,
          "internalType": "string[]",
          "name": "names",
          "type": "string[]"
        },
        {
          "indexed": false,
          "internalType": "uint256[]",
          "name": "initialOdds",
          "type": "uint256[]"
        }
      ],
      "name": "MarketCreated",
      "type": "event"
    },
    {
      "anonymous": false,
      "inputs": [
        {
          "indexed": false,
          "internalType": "uint256",
          "name": "id",
          "type": "uint256"
        },
        {
          "indexed": false,
          "internalType": "address",
          "name": "winner",
          "type": "address"
        },
        {
          "indexed": false,
          "internalType": "uint256",
          "name": "winnerIndex",
          "type": "uint256"
        },
        {
          "indexed": false,
          "internalType": "string",
          "name": "winnerName",
          "type": "string"
        }
      ],
      "name": "MarketResolved",
      "type": "event"
    },
    {
      "anonymous": false,
      "inputs": [
        {
          "indexed": false,
          "internalType": "uint256",
          "name": "id",
          "type": "uint256"
        },
        {
          "indexed": false,
          "internalType": "uint256",
          "name": "amount",
          "type": "uint256"
        },
        {
          "indexed": false,
          "internalType": "address",
          "name": "receiver",
          "type": "address"
        }
      ],
      "name": "SharesBurned",
      "type": "event"
    },
    {
      "anonymous": false,
      "inputs": [
        {
          "indexed": false,
          "internalType": "uint256",
          "name": "id",
          "type": "uint256"
        },
        {
          "indexed": false,
          "internalType": "uint256",
          "name": "amount",
          "type": "uint256"
        },
        {
          "indexed": false,
          "internalType": "address",
          "name": "receiver",
          "type": "address"
        }
      ],
      "name": "SharesMinted",
      "type": "event"
    },
    {
      "anonymous": false,
      "inputs": [
        {
          "indexed": false,
          "internalType": "uint256",
          "name": "id",
          "type": "uint256"
        },
        {
          "indexed": false,
          "internalType": "address",
          "name": "winningOutcome",
          "type": "address"
        },
        {
          "indexed": false,
          "internalType": "uint256",
          "name": "winningIndex",
          "type": "uint256"
        },
        {
          "indexed": false,
          "internalType": "string",
          "name": "winningName",
          "type": "string"
        },
        {
          "indexed": false,
          "internalType": "uint256",
          "name": "amount",
          "type": "uint256"
        },
        {
          "indexed": false,
          "internalType": "uint256",
          "name": "settlementFee",
          "type": "uint256"
        },
        {
          "indexed": false,
          "internalType": "uint256",
          "name": "payout",
          "type": "uint256"
        },
        {
          "indexed": true,
          "internalType": "address",
          "name": "receiver",
          "type": "address"
        }
      ],
      "name": "WinningsClaimed",
      "type": "event"
    },
    {
      "inputs": [],
      "name": "accumulatedProtocolFee",
      "outputs": [
        {
          "internalType": "uint256",
          "name": "",
          "type": "uint256"
        }
      ],
      "stateMutability": "view",
      "type": "function"
    },
    {
      "inputs": [
        {
          "internalType": "address",
          "name": "",
          "type": "address"
        }
      ],
      "name": "accumulatedSettlementFees",
      "outputs": [
        {
          "internalType": "uint256",
          "name": "",
          "type": "uint256"
        }
      ],
      "stateMutability": "view",
      "type": "function"
    },
    {
      "inputs": [
        {
          "internalType": "uint256",
          "name": "_id",
          "type": "uint256"
        },
        {
          "internalType": "uint256",
          "name": "_sharesToBurn",
          "type": "uint256"
        },
        {
          "internalType": "address",
          "name": "_receiver",
          "type": "address"
        }
      ],
      "name": "burnShares",
      "outputs": [
        {
          "internalType": "uint256",
          "name": "",
          "type": "uint256"
        }
      ],
      "stateMutability": "nonpayable",
      "type": "function"
    },
    {
      "inputs": [
        {
          "internalType": "uint256",
          "name": "_shares",
          "type": "uint256"
        }
      ],
      "name": "calcCost",
      "outputs": [
        {
          "internalType": "uint256",
          "name": "",
          "type": "uint256"
        }
      ],
      "stateMutability": "view",
      "type": "function"
    },
    {
      "inputs": [
        {
          "internalType": "uint256",
          "name": "_collateralIn",
          "type": "uint256"
        }
      ],
      "name": "calcShares",
      "outputs": [
        {
          "internalType": "uint256",
          "name": "",
          "type": "uint256"
        }
      ],
      "stateMutability": "view",
      "type": "function"
    },
    {
      "inputs": [
        {
          "internalType": "uint256[]",
          "name": "_ids",
          "type": "uint256[]"
        },
        {
          "internalType": "address",
          "name": "_receiver",
          "type": "address"
        }
      ],
      "name": "claimManyWinnings",
      "outputs": [
        {
          "internalType": "uint256",
          "name": "",
          "type": "uint256"
        }
      ],
      "stateMutability": "nonpayable",
      "type": "function"
    },
    {
      "inputs": [],
      "name": "claimProtocolFees",
      "outputs": [
        {
          "internalType": "uint256",
          "name": "",
          "type": "uint256"
        }
      ],
      "stateMutability": "nonpayable",
      "type": "function"
    },
    {
      "inputs": [
        {
          "internalType": "address",
          "name": "_receiver",
          "type": "address"
        }
      ],
      "name": "claimSettlementFees",
      "outputs": [
        {
          "internalType": "uint256",
          "name": "",
          "type": "uint256"
        }
      ],
      "stateMutability": "nonpayable",
      "type": "function"
    },
    {
      "inputs": [
        {
          "internalType": "uint256",
          "name": "_id",
          "type": "uint256"
        },
        {
          "internalType": "address",
          "name": "_receiver",
          "type": "address"
        }
      ],
      "name": "claimWinnings",
      "outputs": [
        {
          "internalType": "uint256",
          "name": "",
          "type": "uint256"
        }
      ],
      "stateMutability": "nonpayable",
      "type": "function"
    },
    {
      "inputs": [],
      "name": "collateral",
      "outputs": [
        {
          "internalType": "contract IERC20Full",
          "name": "",
          "type": "address"
        }
      ],
      "stateMutability": "view",
      "type": "function"
    },
    {
      "inputs": [
        {
          "internalType": "address",
          "name": "_creator",
          "type": "address"
        },
        {
          "internalType": "string",
          "name": "_description",
          "type": "string"
        },
        {
          "internalType": "string[]",
          "name": "_names",
          "type": "string[]"
        },
        {
          "internalType": "uint256[]",
          "name": "_odds",
          "type": "uint256[]"
        }
      ],
      "name": "createMarket",
      "outputs": [
        {
          "internalType": "uint256",
          "name": "",
          "type": "uint256"
        }
      ],
      "stateMutability": "nonpayable",
      "type": "function"
    },
    {
      "inputs": [
        {
          "internalType": "address",
          "name": "_creator",
          "type": "address"
        },
        {
          "internalType": "string",
          "name": "_description",
          "type": "string"
        },
        {
          "internalType": "contract OwnedERC20[]",
          "name": "zcb",
          "type": "address[]"
        }
      ],
      "name": "createZCBMarket",
      "outputs": [
        {
          "internalType": "uint256",
          "name": "",
          "type": "uint256"
        }
      ],
      "stateMutability": "nonpayable",
      "type": "function"
    },
    {
      "inputs": [],
      "name": "feePot",
      "outputs": [
        {
          "internalType": "contract FeePot",
          "name": "",
          "type": "address"
        }
      ],
      "stateMutability": "view",
      "type": "function"
    },
    {
      "inputs": [
        {
          "internalType": "uint256",
          "name": "_id",
          "type": "uint256"
        }
      ],
      "name": "getMarket",
      "outputs": [
        {
          "components": [
            {
              "internalType": "address",
              "name": "settlementAddress",
              "type": "address"
            },
            {
              "internalType": "contract OwnedERC20[]",
              "name": "shareTokens",
              "type": "address[]"
            },
            {
              "internalType": "contract OwnedERC20",
              "name": "winner",
              "type": "address"
            },
            {
              "internalType": "uint256",
              "name": "winnerIndex",
              "type": "uint256"
            },
            {
              "internalType": "uint256",
              "name": "settlementFee",
              "type": "uint256"
            },
            {
              "internalType": "uint256",
              "name": "protocolFee",
              "type": "uint256"
            },
            {
              "internalType": "uint256",
              "name": "stakerFee",
              "type": "uint256"
            },
            {
              "internalType": "uint256",
              "name": "creationTimestamp",
              "type": "uint256"
            },
            {
              "internalType": "uint256",
              "name": "resolutionTimestamp",
              "type": "uint256"
            },
            {
              "internalType": "uint256[]",
              "name": "initialOdds",
              "type": "uint256[]"
            },
            {
              "internalType": "bool",
              "name": "active",
              "type": "bool"
            }
          ],
          "internalType": "struct AbstractMarketFactoryV3.Market",
          "name": "",
          "type": "tuple"
        }
      ],
      "stateMutability": "view",
      "type": "function"
    },
    {
      "inputs": [
        {
          "internalType": "uint256",
          "name": "_id",
          "type": "uint256"
        }
      ],
      "name": "getMarketDetails",
      "outputs": [
        {
          "components": [
            {
              "internalType": "string",
              "name": "description",
              "type": "string"
            }
          ],
          "internalType": "struct TrustedMarketFactoryV3.MarketDetails",
          "name": "",
          "type": "tuple"
        }
      ],
      "stateMutability": "view",
      "type": "function"
    },
    {
      "inputs": [],
      "name": "getOwner",
      "outputs": [
        {
          "internalType": "address",
          "name": "",
          "type": "address"
        }
      ],
      "stateMutability": "view",
      "type": "function"
    },
    {
      "inputs": [
        {
          "internalType": "uint256",
          "name": "_marketId",
          "type": "uint256"
        }
      ],
      "name": "getRewardEndTime",
      "outputs": [
        {
          "internalType": "uint256",
          "name": "",
          "type": "uint256"
        }
      ],
      "stateMutability": "view",
      "type": "function"
    },
    {
      "inputs": [
        {
          "internalType": "uint256",
          "name": "_marketId",
          "type": "uint256"
        },
        {
          "internalType": "uint256",
          "name": "_outcome",
          "type": "uint256"
        }
      ],
      "name": "getTradeDetails",
      "outputs": [
        {
          "internalType": "uint256",
          "name": "",
          "type": "uint256"
        }
      ],
      "stateMutability": "view",
      "type": "function"
    },
    {
      "inputs": [],
      "name": "getVersion",
      "outputs": [
        {
          "internalType": "string",
          "name": "",
          "type": "string"
        }
      ],
      "stateMutability": "view",
      "type": "function"
    },
    {
      "inputs": [
        {
          "internalType": "uint256",
          "name": "_id",
          "type": "uint256"
        }
      ],
      "name": "getZCBMarket",
      "outputs": [
        {
          "components": [
            {
              "internalType": "address",
              "name": "settlementAddress",
              "type": "address"
            },
            {
              "internalType": "contract OwnedERC20[]",
              "name": "shareTokens",
              "type": "address[]"
            },
            {
              "internalType": "contract OwnedERC20",
              "name": "winner",
              "type": "address"
            },
            {
              "internalType": "uint256",
              "name": "winnerIndex",
              "type": "uint256"
            },
            {
              "internalType": "uint256",
              "name": "settlementFee",
              "type": "uint256"
            },
            {
              "internalType": "uint256",
              "name": "protocolFee",
              "type": "uint256"
            },
            {
              "internalType": "uint256",
              "name": "stakerFee",
              "type": "uint256"
            },
            {
              "internalType": "uint256",
              "name": "creationTimestamp",
              "type": "uint256"
            },
            {
              "internalType": "uint256",
              "name": "resolutionTimestamp",
              "type": "uint256"
            },
            {
              "internalType": "uint256[]",
              "name": "initialOdds",
              "type": "uint256[]"
            },
            {
              "internalType": "bool",
              "name": "active",
              "type": "bool"
            }
          ],
          "internalType": "struct AbstractMarketFactoryV3.Market",
          "name": "",
          "type": "tuple"
        }
      ],
      "stateMutability": "view",
      "type": "function"
    },
    {
      "inputs": [
        {
          "internalType": "uint256",
          "name": "_marketId",
          "type": "uint256"
        }
      ],
      "name": "get_buy_threshold",
      "outputs": [
        {
          "internalType": "uint256",
          "name": "",
          "type": "uint256"
        }
      ],
      "stateMutability": "view",
      "type": "function"
    },
    {
      "inputs": [
        {
          "internalType": "uint256",
          "name": "_marketId",
          "type": "uint256"
        },
        {
          "internalType": "bool",
          "name": "startAssessing",
          "type": "bool"
        }
      ],
      "name": "handleAssessment",
      "outputs": [],
      "stateMutability": "nonpayable",
      "type": "function"
    },
    {
      "inputs": [
        {
          "internalType": "uint256",
          "name": "_marketId",
          "type": "uint256"
        }
      ],
      "name": "handleOnlyReputable",
      "outputs": [],
      "stateMutability": "nonpayable",
      "type": "function"
    },
    {
      "inputs": [
        {
          "internalType": "uint256",
          "name": "_marketId",
          "type": "uint256"
        }
      ],
      "name": "isInAssessment",
      "outputs": [
        {
          "internalType": "bool",
          "name": "",
          "type": "bool"
        }
      ],
      "stateMutability": "view",
      "type": "function"
    },
    {
      "inputs": [
        {
          "internalType": "uint256",
          "name": "_id",
          "type": "uint256"
        }
      ],
      "name": "isMarketResolved",
      "outputs": [
        {
          "internalType": "bool",
          "name": "",
          "type": "bool"
        }
      ],
      "stateMutability": "view",
      "type": "function"
    },
    {
      "inputs": [
        {
          "internalType": "uint256",
          "name": "_marketId",
          "type": "uint256"
        },
        {
          "internalType": "uint256",
          "name": "_outcome",
          "type": "uint256"
        },
        {
          "internalType": "uint256",
          "name": "_collateralIn",
          "type": "uint256"
        }
      ],
      "name": "logTrade",
      "outputs": [],
      "stateMutability": "nonpayable",
      "type": "function"
    },
    {
      "inputs": [],
      "name": "marketCount",
      "outputs": [
        {
          "internalType": "uint256",
          "name": "",
          "type": "uint256"
        }
      ],
      "stateMutability": "view",
      "type": "function"
    },
    {
      "inputs": [
        {
          "internalType": "uint256",
          "name": "_id",
          "type": "uint256"
        },
        {
          "internalType": "uint256",
          "name": "_shareToMint",
          "type": "uint256"
        },
        {
          "internalType": "address",
          "name": "_receiver",
          "type": "address"
        }
      ],
      "name": "mintShares",
      "outputs": [],
      "stateMutability": "nonpayable",
      "type": "function"
    },
    {
      "inputs": [
        {
          "internalType": "uint256",
          "name": "_marketId",
          "type": "uint256"
        }
      ],
      "name": "onlyReputable",
      "outputs": [
        {
          "internalType": "bool",
          "name": "",
          "type": "bool"
        }
      ],
      "stateMutability": "view",
      "type": "function"
    },
    {
      "inputs": [],
      "name": "protocol",
      "outputs": [
        {
          "internalType": "address",
          "name": "",
          "type": "address"
        }
      ],
      "stateMutability": "view",
      "type": "function"
    },
    {
      "inputs": [],
      "name": "protocolFee",
      "outputs": [
        {
          "internalType": "uint256",
          "name": "",
          "type": "uint256"
        }
      ],
      "stateMutability": "view",
      "type": "function"
    },
    {
      "inputs": [
        {
          "internalType": "address",
          "name": "_newProtocol",
          "type": "address"
        },
        {
          "internalType": "bool",
          "name": "_claimFirst",
          "type": "bool"
        }
      ],
      "name": "setProtocol",
      "outputs": [],
      "stateMutability": "nonpayable",
      "type": "function"
    },
    {
      "inputs": [
        {
          "internalType": "uint256",
          "name": "_newFee",
          "type": "uint256"
        }
      ],
      "name": "setProtocolFee",
      "outputs": [],
      "stateMutability": "nonpayable",
      "type": "function"
    },
    {
      "inputs": [
        {
          "internalType": "uint256",
          "name": "_newFee",
          "type": "uint256"
        }
      ],
      "name": "setSettlementFee",
      "outputs": [],
      "stateMutability": "nonpayable",
      "type": "function"
    },
    {
      "inputs": [
        {
          "internalType": "uint256",
          "name": "_newFee",
          "type": "uint256"
        }
      ],
      "name": "setStakerFee",
      "outputs": [],
      "stateMutability": "nonpayable",
      "type": "function"
    },
    {
      "inputs": [
        {
          "internalType": "uint256",
          "name": "_marketId",
          "type": "uint256"
        },
        {
          "internalType": "uint256",
          "name": "threshold",
          "type": "uint256"
        }
      ],
      "name": "set_buy_threshold",
      "outputs": [],
      "stateMutability": "nonpayable",
      "type": "function"
    },
    {
      "inputs": [],
      "name": "settlementFee",
      "outputs": [
        {
          "internalType": "uint256",
          "name": "",
          "type": "uint256"
        }
      ],
      "stateMutability": "view",
      "type": "function"
    },
    {
      "inputs": [],
      "name": "shareFactor",
      "outputs": [
        {
          "internalType": "uint256",
          "name": "",
          "type": "uint256"
        }
      ],
      "stateMutability": "view",
      "type": "function"
    },
    {
      "inputs": [],
      "name": "stakerFee",
      "outputs": [
        {
          "internalType": "uint256",
          "name": "",
          "type": "uint256"
        }
      ],
      "stateMutability": "view",
      "type": "function"
    },
    {
      "inputs": [
        {
          "internalType": "address",
          "name": "_newOwner",
          "type": "address"
        }
      ],
      "name": "transferOwnership",
      "outputs": [
        {
          "internalType": "bool",
          "name": "",
          "type": "bool"
        }
      ],
      "stateMutability": "nonpayable",
      "type": "function"
    },
    {
      "inputs": [
        {
          "internalType": "uint256",
          "name": "_id",
          "type": "uint256"
        },
        {
          "internalType": "uint256",
          "name": "_winningOutcome",
          "type": "uint256"
        }
      ],
      "name": "trustedResolveMarket",
      "outputs": [],
      "stateMutability": "nonpayable",
      "type": "function"
    }
  ],
  "transactionHash": "0x6814eacdc84f4ad1c187b0793587af304d3e4de4192869875b79f1b1cde1e632",
  "args": [
    "0xFD84b7AC1E646580db8c77f1f05F47977fAda692",
    "0x5799bFe361BEea69f808328FF4884DF92f1f66f0",
    "1000000000000",
    "0xd0780FD29f17cF568f45d26d4F71f66ed747e605",
    [
      0,
      "500000000000000",
      0
    ],
    "0xFD84b7AC1E646580db8c77f1f05F47977fAda692"
  ],
  "numDeployments": 6,
  "solcInputHash": "e99c8449f30646952907aa423784d19d",
  "bytecode": "0x608060405260006007553480156200001657600080fd5b506040516200478438038062004784833981016040819052620000399162000535565b604080518082019091526006815265076312e312e360d41b6020820152600080546001600160a01b0319908116338216176001600160a01b038a81169190911783556001805483168a83161790556009889055600280549092169087161790558790879087908790879087908290602002015160035581600160200201516004558160026020020151600555600680546001600160a01b0319166001600160a01b038381169190911790915560405163095ea7b360e01b8152848216600482015260001960248201529086169063095ea7b390604401602060405180830381600087803b1580156200012a57600080fd5b505af11580156200013f573d6000803e3d6000fd5b505050506040513d601f19601f820116820180604052508101906200016591906200061b565b50600a620001726200030a565b81546001808201845560009384526020938490208351600b9093020180546001600160a01b0319166001600160a01b0390931692909217825582840151805193949293620001c993928501929190910190620003e8565b5060408201516002820180546001600160a01b0319166001600160a01b03909216919091179055606082015160038201556080820151600482015560a0820151600582015560c0820151600682015560e08201516007820155610100820151600882015561012082015180516200024b91600984019160209091019062000452565b506101409190910151600a909101805460ff19169115159190911790555050600d60209081526000197f81955a0a11e65eac625c29e8882660bae4e165a75d72780094acae8ece9a29ee8190557ffd54ff1ed53f34a900b24c5ba64f85761163b5d82d98a47b9bd80e45466993c581905560026000527f10a81eed9d63d16face5e76357905348e6253d3394086026bb2bf2145d7cc249558551620002fc9550600e94509086019250905062000490565b5050505050505050620006b0565b6200037c60405180610160016040528060006001600160a01b031681526020016060815260200160006001600160a01b03168152602001600081526020016000815260200160008152602001600081526020016000815260200160008152602001606081526020016000151581525090565b50604080516000808252602082018181526101a083018452928201818152606083018390526080830182905260a0830182905260c0830182905260e083018290526101008301829052610120830182905261014083018290526101608301939093526101809091015290565b82805482825590600052602060002090810192821562000440579160200282015b828111156200044057825182546001600160a01b0319166001600160a01b0390911617825560209092019160019091019062000409565b506200044e9291506200050c565b5090565b82805482825590600052602060002090810192821562000440579160200282015b828111156200044057825182559160200191906001019062000473565b8280546200049e9062000644565b90600052602060002090601f016020900481019282620004c2576000855562000440565b82601f10620004dd57805160ff191683800117855562000440565b828001600101855582156200044057918201828111156200044057825182559160200191906001019062000473565b5b808211156200044e57600081556001016200050d565b8051620005308162000697565b919050565b60008060008060008061010087890312156200054f578182fd5b86516200055c8162000697565b80965050602080880151620005718162000697565b604089015160608a015191975095506200058b8162000697565b9350609f880189136200059c578283fd5b604051606081016001600160401b0381118282101715620005c157620005c162000681565b6040528060808a0160e08b018c811115620005da578687fd5b865b6003811015620005fb57825184529285019291850191600101620005dc565b508396506200060a8162000523565b955050505050509295509295509295565b6000602082840312156200062d578081fd5b815180151581146200063d578182fd5b9392505050565b600181811c908216806200065957607f821691505b602082108114156200067b57634e487b7160e01b600052602260045260246000fd5b50919050565b634e487b7160e01b600052604160045260246000fd5b6001600160a01b0381168114620006ad57600080fd5b50565b6140c480620006c06000396000f3fe60806040523480156200001157600080fd5b5060043610620002855760003560e01c80637d1d7fb81162000161578063b0e21e8a11620000d3578063d8dfeb451162000092578063d8dfeb4514620005fb578063e5678dfa146200060f578063ea0548791462000626578063eb44fdd3146200063d578063ec9790821462000654578063f2fde38b146200065d57600080fd5b8063b0e21e8a1462000589578063cc87adea1462000593578063d072fa3514620005aa578063d5da4f1d14620005cd578063d784edb514620005e457600080fd5b806397eef187116200012057806397eef1871462000505578063992c9079146200051c5780639e8aee911462000533578063a544a62c1462000559578063b06c1ba3146200056357600080fd5b80637d1d7fb81462000498578063893d20e814620004a25780638ce7442614620004b45780638d082fde14620004c85780638e0ed19314620004ee57600080fd5b806349a4d93411620001fb5780636a87a1c511620001ba5780636a87a1c5146200042c57806373a0120b14620004435780637641ab011462000466578063787dce3d146200047057806378d1454c146200048757600080fd5b806349a4d93414620003a05780634a7d036914620003c35780634b2d9ffc14620003cd5780634c9f66c714620003d757806353ac55f5146200040457600080fd5b806332ecabe9116200024857806332ecabe9146200032d57806335a9cdad14620003445780633f8dd7aa146200035b57806342e0ed161462000372578063473a6d52146200038957600080fd5b80630d8e6e2c146200028a5780630d9d711114620002ac5780631647b05414620002e95780631a8883f514620002ff578063221fff811462000316575b600080fd5b6200029462000674565b604051620002a3919062002c18565b60405180910390f35b620002da620002bd36600462002aeb565b6000918252600b6020908152604080842092845291905290205490565b604051908152602001620002a3565b620002fd620002fa36600462002a6b565b50565b005b620002fd6200031036600462002ac4565b6200070e565b620002fd6200032736600462002b0d565b62000744565b620002fd6200033e3660046200273e565b62000acd565b620002da6200035536600462002b0d565b62000b1b565b620002fd6200036c36600462002aeb565b62000faa565b620002da6200038336600462002a6b565b50600090565b620002da6200039a36600462002a6b565b62000fba565b620002da620003b13660046200271f565b60086020526000908152604090205481565b620002da62000ffa565b620002da60035481565b600254620003eb906001600160a01b031681565b6040516001600160a01b039091168152602001620002a3565b6200041b6200041536600462002a6b565b620010c2565b6040519015158152602001620002a3565b620002da6200043d3660046200286b565b62001260565b620002da6200045436600462002a6b565b6000908152600d602052604090205490565b620002da60095481565b620002fd6200048136600462002a6b565b6200132d565b6200041b6200038336600462002a6b565b620002da60045481565b6000546001600160a01b0316620003eb565b600654620003eb906001600160a01b031681565b6200041b620004d936600462002a6b565b6000908152600c602052604090205460ff1690565b620002da620004ff3660046200271f565b6200134a565b620002fd6200051636600462002a6b565b62001405565b620002da6200052d36600462002a9d565b62001422565b6200054a6200054436600462002a6b565b62001894565b604051620002a3919062002c8c565b620002da60075481565b6200057a6200057436600462002a6b565b62001a73565b604051620002a3919062002c6f565b620002da60055481565b620002da620005a436600462002a6b565b62001b5a565b620002fd620005bb36600462002aeb565b6000918252600d602052604090912055565b620002fd620005de36600462002a6b565b62001b6c565b620002da620005f53660046200277b565b62001b89565b600154620003eb906001600160a01b031681565b620002da6200062036600462002920565b62001ca0565b620002fd6200063736600462002b48565b62001d0e565b6200054a6200064e36600462002a6b565b62001d54565b600a54620002da565b6200041b6200066e3660046200271f565b62001d72565b6060600e8054620006859062003039565b80601f0160208091040260200160405190810160405280929190818152602001828054620006b39062003039565b8015620007045780601f10620006d85761010080835404028352916020019162000704565b820191906000526020600020905b815481529060010190602001808311620006e657829003601f168201915b5050505050905090565b6000816200071e57600062000721565b60015b6000938452600c6020526040909320805460ff1916931515939093179092555050565b600a5483106200075357600080fd5b600a83815481106200077557634e487b7160e01b600052603260045260246000fd5b60009182526020909120600a600b90920201015460ff166200079657600080fd5b6000620007a38362000fba565b6001546040516323b872dd60e01b8152336004820152306024820152604481018390529192506001600160a01b0316906323b872dd90606401602060405180830381600087803b158015620007f757600080fd5b505af11580156200080c573d6000803e3d6000fd5b505050506040513d601f19601f82011682018060405250810190620008329190620029d0565b506000600a85815481106200085757634e487b7160e01b600052603260045260246000fd5b60009182526020918290206040805161016081018252600b90930290910180546001600160a01b03168352600181018054835181870281018701909452808452939491938583019392830182828015620008db57602002820191906000526020600020905b81546001600160a01b03168152600190910190602001808311620008bc575b505050505081526020016002820160009054906101000a90046001600160a01b03166001600160a01b03166001600160a01b0316815260200160038201548152602001600482015481526020016005820154815260200160068201548152602001600782015481526020016008820154815260200160098201805480602002602001604051908101604052809291908181526020018280548015620009a057602002820191906000526020600020905b8154815260200190600101908083116200098b575b5050509183525050600a919091015460ff161515602090910152905060005b81602001515181101562000a785781602001518181518110620009f257634e487b7160e01b600052603260045260246000fd5b6020908102919091010151604051636012669360e11b81526001600160a01b038681166004830152602482018890529091169063c024cd2690604401600060405180830381600087803b15801562000a4957600080fd5b505af115801562000a5e573d6000803e3d6000fd5b50505050808062000a6f9062003070565b915050620009bf565b5060408051868152602081018690526001600160a01b038516918101919091527fd81c0442e10068a9818f3aa093c9ccb804584690df572d7df3da2d892a6973f2906060015b60405180910390a15050505050565b6000546001600160a01b0316331462000ae557600080fd5b801562000af85762000af662000ffa565b505b50600680546001600160a01b0319166001600160a01b0392909216919091179055565b600a54600090841062000b2d57600080fd5b600a848154811062000b4f57634e487b7160e01b600052603260045260246000fd5b60009182526020909120600a600b90920201015460ff1662000b7057600080fd5b6000600a858154811062000b9457634e487b7160e01b600052603260045260246000fd5b60009182526020918290206040805161016081018252600b90930290910180546001600160a01b0316835260018101805483518187028101870190945280845293949193858301939283018282801562000c1857602002820191906000526020600020905b81546001600160a01b0316815260019091019060200180831162000bf9575b505050505081526020016002820160009054906101000a90046001600160a01b03166001600160a01b03166001600160a01b031681526020016003820154815260200160048201548152602001600582015481526020016006820154815260200160078201548152602001600882015481526020016009820180548060200260200160405190810160405280929190818152602001828054801562000cdd57602002820191906000526020600020905b81548152602001906001019080831162000cc8575b5050509183525050600a919091015460ff161515602090910152905060005b81602001515181101562000db3578160200151818151811062000d2f57634e487b7160e01b600052603260045260246000fd5b60209081029190910101516040516342986e1360e01b8152336004820152602481018790526001600160a01b03909116906342986e1390604401600060405180830381600087803b15801562000d8457600080fd5b505af115801562000d99573d6000803e3d6000fd5b50505050808062000daa9062003070565b91505062000cfc565b50600062000dc18562000fba565b9050600062000df2670de0b6b3a764000062000deb8560a001518562001dc490919063ffffffff16565b9062001dd9565b9050600062000e1c670de0b6b3a764000062000deb8660c001518662001dc490919063ffffffff16565b905062000e368162000e2f858562001de7565b9062001de7565b9250816007600082825462000e4c919062002ee1565b909155505060015460405163a9059cbb60e01b81526001600160a01b038881166004830152602482018690529091169063a9059cbb90604401602060405180830381600087803b15801562000ea057600080fd5b505af115801562000eb5573d6000803e3d6000fd5b505050506040513d601f19601f8201168201806040525081019062000edb9190620029d0565b50600254604051630ebdac0960e41b8152600481018390526001600160a01b039091169063ebdac09090602401602060405180830381600087803b15801562000f2357600080fd5b505af115801562000f38573d6000803e3d6000fd5b505050506040513d601f19601f8201168201806040525081019062000f5e9190620029d0565b506040805189815260208101899052338183015290517fb6fdb729b2ed801daf629f0ab713e4a7a73619505790f6f27fd92d6f2c9688d79181900360600190a150909695505050505050565b62000fb6828262001df5565b5050565b6000600954821015801562000fdb575060095462000fd990836200308e565b155b62000fe557600080fd5b60095462000ff4908362002efc565b92915050565b6006546000906001600160a01b03163314806200101657503330145b6200102057600080fd5b6007548015620010bd57600060075560015460065460405163a9059cbb60e01b81526001600160a01b0391821660048201526024810184905291169063a9059cbb90604401602060405180830381600087803b1580156200108057600080fd5b505af115801562001095573d6000803e3d6000fd5b505050506040513d601f19601f82011682018060405250810190620010bb9190620029d0565b505b919050565b600080600a8381548110620010e757634e487b7160e01b600052603260045260246000fd5b60009182526020918290206040805161016081018252600b90930290910180546001600160a01b031683526001810180548351818702810187019094528084529394919385830193928301828280156200116b57602002820191906000526020600020905b81546001600160a01b031681526001909101906020018083116200114c575b505050505081526020016002820160009054906101000a90046001600160a01b03166001600160a01b03166001600160a01b03168152602001600382015481526020016004820154815260200160058201548152602001600682015481526020016007820154815260200160088201548152602001600982018054806020026020016040519081016040528092919081815260200182805480156200123057602002820191906000526020600020905b8154815260200190600101908083116200121b575b5050509183525050600a919091015460ff161515602090910152604001516001600160a01b031615159392505050565b604080516020601f880181900481028201830183528101878152600092600f929182918b908b9081908501838280828437600092018290525093909452505083546001810185559381526020908190208351805194959190910193620012ce935084929190910190620024cb565b50620013219150899050620012e4868862002f4f565b8585808060200260200160405190810160405280939291908181526020018383602002808284376000920191909152506001925062001f46915050565b98975050505050505050565b6000546001600160a01b031633146200134557600080fd5b600555565b33600090815260086020526040812054801562000ff4573360009081526008602052604080822091909155600154905163a9059cbb60e01b81526001600160a01b038581166004830152602482018490529091169063a9059cbb90604401602060405180830381600087803b158015620013c357600080fd5b505af1158015620013d8573d6000803e3d6000fd5b505050506040513d601f19601f82011682018060405250810190620013fe9190620029d0565b5092915050565b6000546001600160a01b031633146200141d57600080fd5b600355565b60006200142f83620010c2565b620014755760405162461bcd60e51b81526020600482015260116024820152701b585c9ad95d081d5b9c995cdbdb1d9959607a1b60448201526064015b60405180910390fd5b6000600a84815481106200149957634e487b7160e01b600052603260045260246000fd5b60009182526020918290206040805161016081018252600b90930290910180546001600160a01b031683526001810180548351818702810187019094528084529394919385830193928301828280156200151d57602002820191906000526020600020905b81546001600160a01b03168152600190910190602001808311620014fe575b505050505081526020016002820160009054906101000a90046001600160a01b03166001600160a01b03166001600160a01b0316815260200160038201548152602001600482015481526020016005820154815260200160068201548152602001600782015481526020016008820154815260200160098201805480602002602001604051908101604052809291908181526020018280548015620015e257602002820191906000526020600020905b815481526020019060010190808311620015cd575b5050509183525050600a919091015460ff1615156020909101526040818101519051631c4a5de160e21b81523360048201529192506000916001600160a01b0390911690637129778490602401602060405180830381600087803b1580156200164a57600080fd5b505af11580156200165f573d6000803e3d6000fd5b505050506040513d601f19601f8201168201806040525081019062001685919062002a84565b60095490915062001697818362002efc565b620016a3919062002f13565b90506000620016b28262000fba565b90506000620016dc670de0b6b3a764000062000deb86608001518562001dc490919063ffffffff16565b9050620016ea828262001de7565b84516001600160a01b03166000908152600860205260408120805492945083929091906200171a90849062002ee1565b909155505060015460405163a9059cbb60e01b81526001600160a01b038881166004830152602482018590529091169063a9059cbb90604401602060405180830381600087803b1580156200176e57600080fd5b505af115801562001783573d6000803e3d6000fd5b505050506040513d601f19601f82011682018060405250810190620017a99190620029d0565b50600084606001519050600085604001516001600160a01b03166306fdde036040518163ffffffff1660e01b815260040160006040518083038186803b158015620017f357600080fd5b505afa15801562001808573d6000803e3d6000fd5b505050506040513d6000823e601f3d908101601f19168201604052620018329190810190620029ef565b9050876001600160a01b03167f76ea0c89f1eef8b1ac3908910bbe5ee5120ff997f6b3bcc900659973e6a2ff128a886040015185858a898b6040516200187f979695949392919062002d95565b60405180910390a25091979650505050505050565b6200189e6200255a565b600a548210620018e85760405162461bcd60e51b815260206004820152601460248201527313585c9ad95d08139bdd081058dd1a5d985d195960621b60448201526064016200146c565b600a82815481106200190a57634e487b7160e01b600052603260045260246000fd5b60009182526020918290206040805161016081018252600b90930290910180546001600160a01b031683526001810180548351818702810187019094528084529394919385830193928301828280156200198e57602002820191906000526020600020905b81546001600160a01b031681526001909101906020018083116200196f575b505050505081526020016002820160009054906101000a90046001600160a01b03166001600160a01b03166001600160a01b031681526020016003820154815260200160048201548152602001600582015481526020016006820154815260200160078201548152602001600882015481526020016009820180548060200260200160405190810160405280929190818152602001828054801562001a5357602002820191906000526020600020905b81548152602001906001019080831162001a3e575b5050509183525050600a919091015460ff16151560209091015292915050565b604080516020810190915260608152600f828154811062001aa457634e487b7160e01b600052603260045260246000fd5b9060005260206000200160405180602001604052908160008201805462001acb9062003039565b80601f016020809104026020016040519081016040528092919081815260200182805462001af99062003039565b801562001b4a5780601f1062001b1e5761010080835404028352916020019162001b4a565b820191906000526020600020905b81548152906001019060200180831162001b2c57829003601f168201915b5050505050815250509050919050565b60006009548262000ff4919062002f13565b6000546001600160a01b0316331462001b8457600080fd5b600455565b6040805160028082526060820183526000928392919060208301908036833701905050905060008160008151811062001bd257634e487b7160e01b600052603260045260246000fd5b60200260200101818152505060008160018151811062001c0257634e487b7160e01b600052603260045260246000fd5b602002602001018181525050600f604051806020016040528087878080601f01602080910402602001604051908101604052809392919081815260200183838082843760009201829052509390945250508354600181018555938152602090819020835180519495919091019362001c82935084929190910190620024cb565b50505062001c94868260018662002135565b9150505b949350505050565b600080805b845181101562001d065762001cef62001ce786838151811062001cd857634e487b7160e01b600052603260045260246000fd5b60200260200101518662001422565b8390620022fb565b91508062001cfd8162003070565b91505062001ca5565b509392505050565b6000838152600b6020908152604080832085845290915290205462001d3590829062002ee1565b6000938452600b60209081526040808620948652939052919092205550565b62001d5e6200255a565b600a548210620018e85762000ff462002309565b600080546001600160a01b0316331462001d8b57600080fd5b6001600160a01b03821662001d9f57600080fd5b50600080546001600160a01b0383166001600160a01b03199091161790556001919050565b600062001dd2828462002f13565b9392505050565b600062001dd2828462002efc565b600062001dd2828462002f35565b6000600a838154811062001e1957634e487b7160e01b600052603260045260246000fd5b90600052602060002090600b02019050600081600101838154811062001e4f57634e487b7160e01b600052603260045260246000fd5b60009182526020822001546002840180546001600160a01b0319166001600160a01b039092169182179055600a8401805460ff1916905560038401859055426008850155604080516306fdde0360e01b8152905191935083916306fdde03916004808201928692909190829003018186803b15801562001ece57600080fd5b505afa15801562001ee3573d6000803e3d6000fd5b505050506040513d6000823e601f3d908101601f1916820160405262001f0d9190810190620029ef565b90507f8008bbeee2e3c054e71d4965b4c22b41a2287cd6cc67c714bf918b538338be5f8583868460405162000abe949392919062002d5c565b600a80546040805161016081019091526001600160a01b03871681529091906020810162001f7587306200237f565b815260006020808301829052604083018290526004546060840152600554608084015260035460a08401524260c084015260e08301829052610100830188905286151561012090930192909252835460018082018655948252908290208351600b9092020180546001600160a01b0319166001600160a01b03909216919091178155828201518051939491936200201593928501929190910190620025c8565b5060408201516002820180546001600160a01b0319166001600160a01b03909216919091179055606082015160038201556080820151600482015560a0820151600582015560c0820151600682015560e08201516007820155610100820151600882015561012082015180516200209791600984019160209091019062002620565b506101409190910151600a909101805460ff19169115159190911790556040517f037fdac9e4b37ad8b184ce958d7b275e578c9e03d4cfbc51aa75de25fdb6bbec90620020ea9083908790879062002de3565b60405180910390a1811562001c98576040518181527fee570fee9d8debeedea533b8cdfde6b9d9995b915869d4d10d350e75a9bf0f88906020015b60405180910390a1949350505050565b600a805460408051610160810182526001600160a01b0388811682526020808301878152600094840185905260608401859052600454608085015260055460a085015260035460c08501524260e0850152610100840185905261012084018a90528815156101408501526001860187559590935281517fc65a7bb8d6351c1cf70c95a316cc6a92839c986682d98bc35f958f4883f9d2a8600b860290810180546001600160a01b031916929093169190911782559451805194959294919362002224937fc65a7bb8d6351c1cf70c95a316cc6a92839c986682d98bc35f958f4883f9d2a90192910190620025c8565b5060408201516002820180546001600160a01b0319166001600160a01b03909216919091179055606082015160038201556080820151600482015560a0820151600582015560c0820151600682015560e0820151600782015561010082015160088201556101208201518051620022a691600984019160209091019062002620565b506101409190910151600a909101805460ff1916911515919091179055821562001c98576040518181527fee570fee9d8debeedea533b8cdfde6b9d9995b915869d4d10d350e75a9bf0f889060200162002125565b600062001dd2828462002ee1565b620023136200255a565b50604080516000808252602082018181526101a083018452928201818152606083018390526080830182905260a0830182905260c0830182905260e083018290526101008301829052610120830182905261014083018290526101608301939093526101809091015290565b815160609060008167ffffffffffffffff811115620023ae57634e487b7160e01b600052604160045260246000fd5b604051908082528060200260200182016040528015620023d8578160200160208202803683370190505b50905060005b82811015620024c2578581815181106200240857634e487b7160e01b600052603260045260246000fd5b60200260200101518682815181106200243157634e487b7160e01b600052603260045260246000fd5b60200260200101518660405162002448906200265d565b620024569392919062002c2d565b604051809103906000f08015801562002473573d6000803e3d6000fd5b508282815181106200249557634e487b7160e01b600052603260045260246000fd5b6001600160a01b039092166020928302919091019091015280620024b98162003070565b915050620023de565b50949350505050565b828054620024d99062003039565b90600052602060002090601f016020900481019282620024fd576000855562002548565b82601f106200251857805160ff191683800117855562002548565b8280016001018555821562002548579182015b82811115620025485782518255916020019190600101906200252b565b50620025569291506200266b565b5090565b60405180610160016040528060006001600160a01b031681526020016060815260200160006001600160a01b03168152602001600081526020016000815260200160008152602001600081526020016000815260200160008152602001606081526020016000151581525090565b82805482825590600052602060002090810192821562002548579160200282015b828111156200254857825182546001600160a01b0319166001600160a01b03909116178255602090920191600190910190620025e9565b828054828255906000526020600020908101928215620025485791602002820182811115620025485782518255916020019190600101906200252b565b610f82806200310d83390190565b5b808211156200255657600081556001016200266c565b8035620010bd81620030e7565b60008083601f840112620026a1578182fd5b50813567ffffffffffffffff811115620026b9578182fd5b6020830191508360208260051b8501011115620026d557600080fd5b9250929050565b60008083601f840112620026ee578182fd5b50813567ffffffffffffffff81111562002706578182fd5b602083019150836020828501011115620026d557600080fd5b60006020828403121562002731578081fd5b813562001dd281620030e7565b6000806040838503121562002751578081fd5b82356200275e81620030e7565b915060208301356200277081620030fd565b809150509250929050565b6000806000806060858703121562002791578182fd5b84356200279e81620030e7565b935060208581013567ffffffffffffffff80821115620027bc578485fd5b620027ca89838a01620026dc565b90965094506040880135915080821115620027e3578384fd5b508601601f81018813620027f5578283fd5b80356200280c620028068262002e8f565b62002e5b565b8082825284820191508484018b868560051b87010111156200282c578687fd5b8694505b838510156200285b5780356200284681620030e7565b83526001949094019391850191850162002830565b50979a9699509497505050505050565b60008060008060008060006080888a03121562002886578283fd5b87356200289381620030e7565b9650602088013567ffffffffffffffff80821115620028b0578485fd5b620028be8b838c01620026dc565b909850965060408a0135915080821115620028d7578485fd5b620028e58b838c016200268f565b909650945060608a0135915080821115620028fe578384fd5b506200290d8a828b016200268f565b989b979a50959850939692959293505050565b6000806040838503121562002933578182fd5b823567ffffffffffffffff8111156200294a578283fd5b8301601f810185136200295b578283fd5b803560206200296e620028068362002e8f565b80838252828201915082850189848660051b88010111156200298e578788fd5b8795505b84861015620029b257803583526001959095019491830191830162002992565b509550620029c4905086820162002682565b93505050509250929050565b600060208284031215620029e2578081fd5b815162001dd281620030fd565b60006020828403121562002a01578081fd5b815167ffffffffffffffff81111562002a18578182fd5b8201601f8101841362002a29578182fd5b805162002a3a620028068262002eb6565b81815285602083850101111562002a4f578384fd5b62002a6282602083016020860162003006565b95945050505050565b60006020828403121562002a7d578081fd5b5035919050565b60006020828403121562002a96578081fd5b5051919050565b6000806040838503121562002ab0578182fd5b8235915060208301356200277081620030e7565b6000806040838503121562002ad7578182fd5b8235915060208301356200277081620030fd565b6000806040838503121562002afe578182fd5b50508035926020909101359150565b60008060006060848603121562002b22578081fd5b8335925060208401359150604084013562002b3d81620030e7565b809150509250925092565b60008060006060848603121562002b5d578081fd5b505081359360208301359350604090920135919050565b6000815180845260208085019450808401835b8381101562002bae5781516001600160a01b03168752958201959082019060010162002b87565b509495945050505050565b6000815180845260208085019450808401835b8381101562002bae5781518752958201959082019060010162002bcc565b6000815180845262002c0481602086016020860162003006565b601f01601f19169290920160200192915050565b60208152600062001dd2602083018462002bea565b60608152600062002c42606083018662002bea565b828103602084015262002c56818662002bea565b91505060018060a01b0383166040830152949350505050565b602081526000825160208084015262001c98604084018262002bea565b6020815262002ca76020820183516001600160a01b03169052565b6000602083015161016080604085015262002cc761018085018362002b74565b9150604085015162002ce460608601826001600160a01b03169052565b5060608501516080850152608085015160a085015260a085015160c085015260c085015160e085015260e0850151610100818187015280870151915050610120818187015280870151915050610140601f19868503018187015262002d4a848362002bb9565b96015115159190940152509192915050565b84815260018060a01b038416602082015282604082015260806060820152600062002d8b608083018462002bea565b9695505050505050565b87815260018060a01b038716602082015285604082015260e06060820152600062002dc460e083018762002bea565b60808301959095525060a081019290925260c090910152949350505050565b600060608201858352602060608185015281865180845260808601915060808160051b8701019350828801855b8281101562002e4257607f1988870301845262002e2f86835162002bea565b9550928401929084019060010162002e10565b5050505050828103604084015262001c94818562002bb9565b604051601f8201601f1916810167ffffffffffffffff8111828210171562002e875762002e87620030d1565b604052919050565b600067ffffffffffffffff82111562002eac5762002eac620030d1565b5060051b60200190565b600067ffffffffffffffff82111562002ed35762002ed3620030d1565b50601f01601f191660200190565b6000821982111562002ef75762002ef7620030a5565b500190565b60008262002f0e5762002f0e620030bb565b500490565b600081600019048311821515161562002f305762002f30620030a5565b500290565b60008282101562002f4a5762002f4a620030a5565b500390565b600062002f60620028068462002e8f565b808482526020808301925084368760051b8701111562002f7e578485fd5b845b8781101562002ffa57813567ffffffffffffffff81111562002fa0578687fd5b870136601f82011262002fb1578687fd5b803562002fc2620028068262002eb6565b818152368683850101111562002fd6578889fd5b81868401878301379081018501889052865250938201939082019060010162002f80565b50919695505050505050565b60005b838110156200302357818101518382015260200162003009565b8381111562003033576000848401525b50505050565b600181811c908216806200304e57607f821691505b60208210811415620010bb57634e487b7160e01b600052602260045260246000fd5b6000600019821415620030875762003087620030a5565b5060010190565b600082620030a057620030a0620030bb565b500690565b634e487b7160e01b600052601160045260246000fd5b634e487b7160e01b600052601260045260246000fd5b634e487b7160e01b600052604160045260246000fd5b6001600160a01b0381168114620002fa57600080fd5b8015158114620002fa57600080fdfe60806040523480156200001157600080fd5b5060405162000f8238038062000f828339810160408190526200003491620001f0565b8251839083906200004d90600390602085019062000097565b5080516200006390600490602084019062000097565b5050600580546001600160a01b031990811633909116176001600160a01b03939093169290921790915550620002cc915050565b828054620000a59062000279565b90600052602060002090601f016020900481019282620000c9576000855562000114565b82601f10620000e457805160ff191683800117855562000114565b8280016001018555821562000114579182015b8281111562000114578251825591602001919060010190620000f7565b506200012292915062000126565b5090565b5b8082111562000122576000815560010162000127565b600082601f8301126200014e578081fd5b81516001600160401b03808211156200016b576200016b620002b6565b604051601f8301601f19908116603f01168101908282118183101715620001965762000196620002b6565b81604052838152602092508683858801011115620001b2578485fd5b8491505b83821015620001d55785820183015181830184015290820190620001b6565b83821115620001e657848385830101525b9695505050505050565b60008060006060848603121562000205578283fd5b83516001600160401b03808211156200021c578485fd5b6200022a878388016200013d565b9450602086015191508082111562000240578384fd5b506200024f868287016200013d565b604086015190935090506001600160a01b03811681146200026e578182fd5b809150509250925092565b600181811c908216806200028e57607f821691505b60208210811415620002b057634e487b7160e01b600052602260045260246000fd5b50919050565b634e487b7160e01b600052604160045260246000fd5b610ca680620002dc6000396000f3fe608060405234801561001057600080fd5b506004361061010b5760003560e01c806370a08231116100a2578063a457c2d711610071578063a457c2d71461021f578063a9059cbb14610232578063c024cd2614610245578063dd62ed3e14610258578063f2fde38b1461026b57600080fd5b806370a08231146101c057806371297784146101e9578063893d20e8146101fc57806395d89b411461021757600080fd5b806323b872dd116100de57806323b872dd14610178578063313ce5671461018b578063395093511461019a57806342986e13146101ad57600080fd5b806306fdde0314610110578063095ea7b31461012e5780630fb665571461015157806318160ddd14610166575b600080fd5b61011861027e565b6040516101259190610b9d565b60405180910390f35b61014161013c366004610b74565b610310565b6040519015158152602001610125565b61016461015f366004610b39565b610328565b005b6002545b604051908152602001610125565b610141610186366004610b39565b61034f565b60405160128152602001610125565b6101416101a8366004610b74565b610373565b6101646101bb366004610b74565b610395565b61016a6101ce366004610ae6565b6001600160a01b031660009081526020819052604090205490565b61016a6101f7366004610ae6565b6103ba565b6005546040516001600160a01b039091168152602001610125565b6101186103ff565b61014161022d366004610b74565b61040e565b610141610240366004610b74565b61048e565b610164610253366004610b74565b61049c565b61016a610266366004610b07565b6104bd565b610141610279366004610ae6565b6104e8565b60606003805461028d90610c1f565b80601f01602080910402602001604051908101604052809291908181526020018280546102b990610c1f565b80156103065780601f106102db57610100808354040283529160200191610306565b820191906000526020600020905b8154815290600101906020018083116102e957829003601f168201915b5050505050905090565b60003361031e81858561053a565b5060019392505050565b6005546001600160a01b0316331461033f57600080fd5b61034a83838361065e565b505050565b60003361035d85828561082e565b61036885858561065e565b506001949350505050565b60003361031e81858561038683836104bd565b6103909190610bf0565b61053a565b6005546001600160a01b031633146103ac57600080fd5b6103b682826108a2565b5050565b6005546000906001600160a01b031633146103d457600080fd5b6001600160a01b0382166000908152602081905260409020546103f783826108a2565b90505b919050565b60606004805461028d90610c1f565b6000338161041c82866104bd565b9050838110156104815760405162461bcd60e51b815260206004820152602560248201527f45524332303a2064656372656173656420616c6c6f77616e63652062656c6f77604482015264207a65726f60d81b60648201526084015b60405180910390fd5b610368828686840361053a565b60003361031e81858561065e565b6005546001600160a01b031633146104b357600080fd5b6103b682826109f0565b6001600160a01b03918216600090815260016020908152604080832093909416825291909152205490565b6005546000906001600160a01b0316331461050257600080fd5b6001600160a01b03821661051557600080fd5b50600580546001600160a01b0383166001600160a01b03199091161790556001919050565b6001600160a01b03831661059c5760405162461bcd60e51b8152602060048201526024808201527f45524332303a20617070726f76652066726f6d20746865207a65726f206164646044820152637265737360e01b6064820152608401610478565b6001600160a01b0382166105fd5760405162461bcd60e51b815260206004820152602260248201527f45524332303a20617070726f766520746f20746865207a65726f206164647265604482015261737360f01b6064820152608401610478565b6001600160a01b0383811660008181526001602090815260408083209487168084529482529182902085905590518481527f8c5be1e5ebec7d5bd14f71427d1e84f3dd0314c0f7b2291e5b200ac8c7c3b925910160405180910390a3505050565b6001600160a01b0383166106c25760405162461bcd60e51b815260206004820152602560248201527f45524332303a207472616e736665722066726f6d20746865207a65726f206164604482015264647265737360d81b6064820152608401610478565b6001600160a01b0382166107245760405162461bcd60e51b815260206004820152602360248201527f45524332303a207472616e7366657220746f20746865207a65726f206164647260448201526265737360e81b6064820152608401610478565b6001600160a01b0383166000908152602081905260409020548181101561079c5760405162461bcd60e51b815260206004820152602660248201527f45524332303a207472616e7366657220616d6f756e7420657863656564732062604482015265616c616e636560d01b6064820152608401610478565b6001600160a01b038085166000908152602081905260408082208585039055918516815290812080548492906107d3908490610bf0565b92505081905550826001600160a01b0316846001600160a01b03167fddf252ad1be2c89b69c2b068fc378daa952ba7f163c4a11628f55a4df523b3ef8460405161081f91815260200190565b60405180910390a35b50505050565b600061083a84846104bd565b9050600019811461082857818110156108955760405162461bcd60e51b815260206004820152601d60248201527f45524332303a20696e73756666696369656e7420616c6c6f77616e63650000006044820152606401610478565b610828848484840361053a565b6001600160a01b0382166109025760405162461bcd60e51b815260206004820152602160248201527f45524332303a206275726e2066726f6d20746865207a65726f206164647265736044820152607360f81b6064820152608401610478565b6001600160a01b038216600090815260208190526040902054818110156109765760405162461bcd60e51b815260206004820152602260248201527f45524332303a206275726e20616d6f756e7420657863656564732062616c616e604482015261636560f01b6064820152608401610478565b6001600160a01b03831660009081526020819052604081208383039055600280548492906109a5908490610c08565b90915550506040518281526000906001600160a01b038516907fddf252ad1be2c89b69c2b068fc378daa952ba7f163c4a11628f55a4df523b3ef9060200160405180910390a3505050565b6001600160a01b038216610a465760405162461bcd60e51b815260206004820152601f60248201527f45524332303a206d696e7420746f20746865207a65726f2061646472657373006044820152606401610478565b8060026000828254610a589190610bf0565b90915550506001600160a01b03821660009081526020819052604081208054839290610a85908490610bf0565b90915550506040518181526001600160a01b038316906000907fddf252ad1be2c89b69c2b068fc378daa952ba7f163c4a11628f55a4df523b3ef9060200160405180910390a35050565b80356001600160a01b03811681146103fa57600080fd5b600060208284031215610af7578081fd5b610b0082610acf565b9392505050565b60008060408385031215610b19578081fd5b610b2283610acf565b9150610b3060208401610acf565b90509250929050565b600080600060608486031215610b4d578081fd5b610b5684610acf565b9250610b6460208501610acf565b9150604084013590509250925092565b60008060408385031215610b86578182fd5b610b8f83610acf565b946020939093013593505050565b6000602080835283518082850152825b81811015610bc957858101830151858201604001528201610bad565b81811115610bda5783604083870101525b50601f01601f1916929092016040019392505050565b60008219821115610c0357610c03610c5a565b500190565b600082821015610c1a57610c1a610c5a565b500390565b600181811c90821680610c3357607f821691505b60208210811415610c5457634e487b7160e01b600052602260045260246000fd5b50919050565b634e487b7160e01b600052601160045260246000fdfea26469706673582212209db522cfedad47d91dcef5c7f788007fedcd06a6453a5b5d56b0db88f4cd093f64736f6c63430008040033a2646970667358221220a4d7c337b9c135c0cdce98829f8ebf19ffa51ae7a7a4571d7b9a406d5854032864736f6c63430008040033",
  "devdoc": {
    "kind": "dev",
    "methods": {
      "transferOwnership(address)": {
        "details": "Allows the current owner to transfer control of the contract to a newOwner.",
        "params": {
          "_newOwner": "The address to transfer ownership to."
        }
      }
    },
    "version": 1
  },
  "userdoc": {
    "kind": "user",
    "methods": {},
    "version": 1
  },
  "storageLayout": {
    "storage": [
      {
        "astId": 15877,
        "contract": "contracts/turbo/TrustedMarketFactoryV3.sol:TrustedMarketFactoryV3",
        "label": "owner",
        "offset": 0,
        "slot": "0",
        "type": "t_address"
      },
      {
        "astId": 34216,
        "contract": "contracts/turbo/TrustedMarketFactoryV3.sol:TrustedMarketFactoryV3",
        "label": "collateral",
        "offset": 0,
        "slot": "1",
        "type": "t_contract(IERC20Full)15709"
      },
      {
        "astId": 34219,
        "contract": "contracts/turbo/TrustedMarketFactoryV3.sol:TrustedMarketFactoryV3",
        "label": "feePot",
        "offset": 0,
        "slot": "2",
        "type": "t_contract(FeePot)38245"
      },
      {
        "astId": 34221,
        "contract": "contracts/turbo/TrustedMarketFactoryV3.sol:TrustedMarketFactoryV3",
        "label": "stakerFee",
        "offset": 0,
        "slot": "3",
        "type": "t_uint256"
      },
      {
        "astId": 34223,
        "contract": "contracts/turbo/TrustedMarketFactoryV3.sol:TrustedMarketFactoryV3",
        "label": "settlementFee",
        "offset": 0,
        "slot": "4",
        "type": "t_uint256"
      },
      {
        "astId": 34225,
        "contract": "contracts/turbo/TrustedMarketFactoryV3.sol:TrustedMarketFactoryV3",
        "label": "protocolFee",
        "offset": 0,
        "slot": "5",
        "type": "t_uint256"
      },
      {
        "astId": 34227,
        "contract": "contracts/turbo/TrustedMarketFactoryV3.sol:TrustedMarketFactoryV3",
        "label": "protocol",
        "offset": 0,
        "slot": "6",
        "type": "t_address"
      },
      {
        "astId": 34230,
        "contract": "contracts/turbo/TrustedMarketFactoryV3.sol:TrustedMarketFactoryV3",
        "label": "accumulatedProtocolFee",
        "offset": 0,
        "slot": "7",
        "type": "t_uint256"
      },
      {
        "astId": 34234,
        "contract": "contracts/turbo/TrustedMarketFactoryV3.sol:TrustedMarketFactoryV3",
        "label": "accumulatedSettlementFees",
        "offset": 0,
        "slot": "8",
        "type": "t_mapping(t_address,t_uint256)"
      },
      {
        "astId": 34236,
        "contract": "contracts/turbo/TrustedMarketFactoryV3.sol:TrustedMarketFactoryV3",
        "label": "shareFactor",
        "offset": 0,
        "slot": "9",
        "type": "t_uint256"
      },
      {
        "astId": 34267,
        "contract": "contracts/turbo/TrustedMarketFactoryV3.sol:TrustedMarketFactoryV3",
        "label": "markets",
        "offset": 0,
        "slot": "10",
        "type": "t_array(t_struct(Market)34263_storage)dyn_storage"
      },
      {
        "astId": 34280,
        "contract": "contracts/turbo/TrustedMarketFactoryV3.sol:TrustedMarketFactoryV3",
        "label": "TradeDetails",
        "offset": 0,
        "slot": "11",
        "type": "t_mapping(t_uint256,t_mapping(t_uint256,t_uint256))"
      },
      {
        "astId": 34284,
        "contract": "contracts/turbo/TrustedMarketFactoryV3.sol:TrustedMarketFactoryV3",
        "label": "inAssessment",
        "offset": 0,
        "slot": "12",
        "type": "t_mapping(t_uint256,t_bool)"
      },
      {
        "astId": 34288,
        "contract": "contracts/turbo/TrustedMarketFactoryV3.sol:TrustedMarketFactoryV3",
        "label": "buy_thresholds",
        "offset": 0,
        "slot": "13",
        "type": "t_mapping(t_uint256,t_uint256)"
      },
      {
        "astId": 16867,
        "contract": "contracts/turbo/TrustedMarketFactoryV3.sol:TrustedMarketFactoryV3",
        "label": "version",
        "offset": 0,
        "slot": "14",
        "type": "t_string_storage"
      },
      {
        "astId": 48605,
        "contract": "contracts/turbo/TrustedMarketFactoryV3.sol:TrustedMarketFactoryV3",
        "label": "marketDetails",
        "offset": 0,
        "slot": "15",
        "type": "t_array(t_struct(MarketDetails)48601_storage)dyn_storage"
      },
      {
        "astId": 48626,
        "contract": "contracts/turbo/TrustedMarketFactoryV3.sol:TrustedMarketFactoryV3",
        "label": "managers",
        "offset": 0,
        "slot": "16",
        "type": "t_mapping(t_address,t_bool)"
      }
    ],
    "types": {
      "t_address": {
        "encoding": "inplace",
        "label": "address",
        "numberOfBytes": "20"
      },
      "t_array(t_contract(OwnedERC20)45481)dyn_storage": {
        "base": "t_contract(OwnedERC20)45481",
        "encoding": "dynamic_array",
        "label": "contract OwnedERC20[]",
        "numberOfBytes": "32"
      },
      "t_array(t_struct(Market)34263_storage)dyn_storage": {
        "base": "t_struct(Market)34263_storage",
        "encoding": "dynamic_array",
        "label": "struct AbstractMarketFactoryV3.Market[]",
        "numberOfBytes": "32"
      },
      "t_array(t_struct(MarketDetails)48601_storage)dyn_storage": {
        "base": "t_struct(MarketDetails)48601_storage",
        "encoding": "dynamic_array",
        "label": "struct TrustedMarketFactoryV3.MarketDetails[]",
        "numberOfBytes": "32"
      },
      "t_array(t_uint256)dyn_storage": {
        "base": "t_uint256",
        "encoding": "dynamic_array",
        "label": "uint256[]",
        "numberOfBytes": "32"
      },
      "t_bool": {
        "encoding": "inplace",
        "label": "bool",
        "numberOfBytes": "1"
      },
      "t_contract(FeePot)38245": {
        "encoding": "inplace",
        "label": "contract FeePot",
        "numberOfBytes": "20"
      },
      "t_contract(IERC20Full)15709": {
        "encoding": "inplace",
        "label": "contract IERC20Full",
        "numberOfBytes": "20"
      },
      "t_contract(OwnedERC20)45481": {
        "encoding": "inplace",
        "label": "contract OwnedERC20",
        "numberOfBytes": "20"
      },
      "t_mapping(t_address,t_bool)": {
        "encoding": "mapping",
        "key": "t_address",
        "label": "mapping(address => bool)",
        "numberOfBytes": "32",
        "value": "t_bool"
      },
      "t_mapping(t_address,t_uint256)": {
        "encoding": "mapping",
        "key": "t_address",
        "label": "mapping(address => uint256)",
        "numberOfBytes": "32",
        "value": "t_uint256"
      },
      "t_mapping(t_uint256,t_bool)": {
        "encoding": "mapping",
        "key": "t_uint256",
        "label": "mapping(uint256 => bool)",
        "numberOfBytes": "32",
        "value": "t_bool"
      },
      "t_mapping(t_uint256,t_mapping(t_uint256,t_uint256))": {
        "encoding": "mapping",
        "key": "t_uint256",
        "label": "mapping(uint256 => mapping(uint256 => uint256))",
        "numberOfBytes": "32",
        "value": "t_mapping(t_uint256,t_uint256)"
      },
      "t_mapping(t_uint256,t_uint256)": {
        "encoding": "mapping",
        "key": "t_uint256",
        "label": "mapping(uint256 => uint256)",
        "numberOfBytes": "32",
        "value": "t_uint256"
      },
      "t_string_storage": {
        "encoding": "bytes",
        "label": "string",
        "numberOfBytes": "32"
      },
      "t_struct(Market)34263_storage": {
        "encoding": "inplace",
        "label": "struct AbstractMarketFactoryV3.Market",
        "members": [
          {
            "astId": 34238,
            "contract": "contracts/turbo/TrustedMarketFactoryV3.sol:TrustedMarketFactoryV3",
            "label": "settlementAddress",
            "offset": 0,
            "slot": "0",
            "type": "t_address"
          },
          {
            "astId": 34242,
            "contract": "contracts/turbo/TrustedMarketFactoryV3.sol:TrustedMarketFactoryV3",
            "label": "shareTokens",
            "offset": 0,
            "slot": "1",
            "type": "t_array(t_contract(OwnedERC20)45481)dyn_storage"
          },
          {
            "astId": 34245,
            "contract": "contracts/turbo/TrustedMarketFactoryV3.sol:TrustedMarketFactoryV3",
            "label": "winner",
            "offset": 0,
            "slot": "2",
            "type": "t_contract(OwnedERC20)45481"
          },
          {
            "astId": 34247,
            "contract": "contracts/turbo/TrustedMarketFactoryV3.sol:TrustedMarketFactoryV3",
            "label": "winnerIndex",
            "offset": 0,
            "slot": "3",
            "type": "t_uint256"
          },
          {
            "astId": 34249,
            "contract": "contracts/turbo/TrustedMarketFactoryV3.sol:TrustedMarketFactoryV3",
            "label": "settlementFee",
            "offset": 0,
            "slot": "4",
            "type": "t_uint256"
          },
          {
            "astId": 34251,
            "contract": "contracts/turbo/TrustedMarketFactoryV3.sol:TrustedMarketFactoryV3",
            "label": "protocolFee",
            "offset": 0,
            "slot": "5",
            "type": "t_uint256"
          },
          {
            "astId": 34253,
            "contract": "contracts/turbo/TrustedMarketFactoryV3.sol:TrustedMarketFactoryV3",
            "label": "stakerFee",
            "offset": 0,
            "slot": "6",
            "type": "t_uint256"
          },
          {
            "astId": 34255,
            "contract": "contracts/turbo/TrustedMarketFactoryV3.sol:TrustedMarketFactoryV3",
            "label": "creationTimestamp",
            "offset": 0,
            "slot": "7",
            "type": "t_uint256"
          },
          {
            "astId": 34257,
            "contract": "contracts/turbo/TrustedMarketFactoryV3.sol:TrustedMarketFactoryV3",
            "label": "resolutionTimestamp",
            "offset": 0,
            "slot": "8",
            "type": "t_uint256"
          },
          {
            "astId": 34260,
            "contract": "contracts/turbo/TrustedMarketFactoryV3.sol:TrustedMarketFactoryV3",
            "label": "initialOdds",
            "offset": 0,
            "slot": "9",
            "type": "t_array(t_uint256)dyn_storage"
          },
          {
            "astId": 34262,
            "contract": "contracts/turbo/TrustedMarketFactoryV3.sol:TrustedMarketFactoryV3",
            "label": "active",
            "offset": 0,
            "slot": "10",
            "type": "t_bool"
          }
        ],
        "numberOfBytes": "352"
      },
      "t_struct(MarketDetails)48601_storage": {
        "encoding": "inplace",
        "label": "struct TrustedMarketFactoryV3.MarketDetails",
        "members": [
          {
            "astId": 48600,
            "contract": "contracts/turbo/TrustedMarketFactoryV3.sol:TrustedMarketFactoryV3",
            "label": "description",
            "offset": 0,
            "slot": "0",
            "type": "t_string_storage"
          }
        ],
        "numberOfBytes": "32"
      },
      "t_uint256": {
        "encoding": "inplace",
        "label": "uint256",
        "numberOfBytes": "32"
      }
    }
  }
}