{
  "address": "0x92bC25C5Be800C2ECb1e66281634D9FE30b29Ab9",
  "abi": [
    {
      "inputs": [
        {
          "internalType": "address",
          "name": "dss_address",
          "type": "address"
        }
      ],
      "stateMutability": "nonpayable",
      "type": "constructor"
    },
    {
      "inputs": [],
      "name": "dss",
      "outputs": [
        {
          "internalType": "contract DSS",
          "name": "",
          "type": "address"
        }
      ],
      "stateMutability": "view",
      "type": "function"
    },
    {
      "inputs": [
        {
          "internalType": "address",
          "name": "account",
          "type": "address"
        }
      ],
      "name": "getMaxVoteBalance",
      "outputs": [
        {
          "internalType": "uint256",
          "name": "",
          "type": "uint256"
        }
      ],
      "stateMutability": "view",
      "type": "function"
    },
    {
      "inputs": [
        {
          "internalType": "bytes32",
          "name": "reactorKey",
          "type": "bytes32"
        }
      ],
      "name": "getVotes",
      "outputs": [
        {
          "internalType": "uint256",
          "name": "",
          "type": "uint256"
        }
      ],
      "stateMutability": "view",
      "type": "function"
    },
    {
      "inputs": [
        {
          "internalType": "bytes32",
          "name": "",
          "type": "bytes32"
        }
      ],
      "name": "systemAggregations",
      "outputs": [
        {
          "internalType": "uint256",
          "name": "",
          "type": "uint256"
        }
      ],
      "stateMutability": "view",
      "type": "function"
    },
    {
      "inputs": [
        {
          "internalType": "address",
          "name": "",
          "type": "address"
        }
      ],
      "name": "userNonces",
      "outputs": [
        {
          "internalType": "uint256",
          "name": "",
          "type": "uint256"
        }
      ],
      "stateMutability": "view",
      "type": "function"
    },
    {
      "inputs": [
        {
          "internalType": "address",
          "name": "",
          "type": "address"
        },
        {
          "internalType": "bytes32",
          "name": "",
          "type": "bytes32"
        }
      ],
      "name": "userVoteItems",
      "outputs": [
        {
          "internalType": "uint256",
          "name": "",
          "type": "uint256"
        }
      ],
      "stateMutability": "view",
      "type": "function"
    },
    {
      "inputs": [
        {
          "internalType": "address",
          "name": "",
          "type": "address"
        },
        {
          "internalType": "uint256",
          "name": "",
          "type": "uint256"
        }
      ],
      "name": "userVoteKeys",
      "outputs": [
        {
          "internalType": "bytes32",
          "name": "",
          "type": "bytes32"
        }
      ],
      "stateMutability": "view",
      "type": "function"
    },
    {
      "inputs": [
        {
          "internalType": "bytes32",
          "name": "_voteSessionKey",
          "type": "bytes32"
        },
        {
          "internalType": "uint256",
          "name": "_nonce",
          "type": "uint256"
        },
        {
          "internalType": "uint256",
          "name": "_totalVotes",
          "type": "uint256"
        },
        {
          "internalType": "bytes32[]",
          "name": "reactorKeys",
          "type": "bytes32[]"
        },
        {
          "internalType": "uint256[]",
          "name": "amounts",
          "type": "uint256[]"
        }
      ],
      "name": "vote",
      "outputs": [],
      "stateMutability": "nonpayable",
      "type": "function"
    }
  ],
  "transactionHash": "0x69bbce113ad1d302b22840da9f33f7ce71a446645025720a16ea4eabec9bf1a6",
  "args": [
    "0xd2B269F5a37B70ce7ab098BaeeCCB7A0740B7f8B"
  ],
  "solcInputHash": "256d0a41466e4b2edeb4e0708cf9f0fe",
  "bytecode": "0x608060405234801561001057600080fd5b50604051610c6c380380610c6c83398101604081905261002f91610054565b600080546001600160a01b0319166001600160a01b0392909216919091179055610082565b600060208284031215610065578081fd5b81516001600160a01b038116811461007b578182fd5b9392505050565b610bdb806100916000396000f3fe608060405234801561001057600080fd5b50600436106100885760003560e01c80636cd9f6fd1161005b5780636cd9f6fd146100ef5780638c65f6e114610102578063f46759a514610115578063fa290fad1461012a57610088565b80632f7801f41461008d5780634c051100146100b65780635a2a987e146100c957806360edfd48146100dc575b600080fd5b6100a061009b366004610997565b61013f565b6040516100ad9190610b06565b60405180910390f35b6100a06100c43660046109ec565b610151565b6100a06100d73660046109da565b610166565b6100a06100ea3660046109ec565b610197565b6100a06100fd3660046109b1565b6101a9565b6100a0610110366004610997565b6101c6565b610128610123366004610a04565b610259565b005b610132610359565b6040516100ad9190610af2565b60076020526000908152604090205481565b6000818152600460205260409020545b919050565b6002602052816000526040600020818154811061018257600080fd5b90600052602060002001600091509150505481565b60046020526000908152604090205481565b600360209081526000928352604080842090915290825290205481565b600080546040516370a0823160e01b815282916001600160a01b0316906370a08231906101f7908690600401610af2565b60206040518083038186803b15801561020f57600080fd5b505afa158015610223573d6000803e3d6000fd5b505050506040513d601f19601f820116820180604052508101906102479190610ada565b905061025281610368565b9392505050565b815160008167ffffffffffffffff8111801561027457600080fd5b506040519080825280602002602001820160405280156102ae57816020015b61029b6108fd565b8152602001906001900390816102935790505b50905060005b828110156103165760405180604001604052808683815181106102d357fe5b602002602001015181526020018583815181106102ec57fe5b602002602001015181525082828151811061030357fe5b60209081029190910101526001016102b4565b506040805160c08101825233815260208101899052908101879052600060608201526080810186905260a0810182905261034f8161036b565b5050505050505050565b6000546001600160a01b031681565b90565b80516001600160a01b0381166000818152600160209081526040808320548151808301835260058152646e6f6e636560d81b8185015294845260079092529091205490916103b891610605565b6040808401516001600160a01b038416600090815260076020529190912054146103fd5760405162461bcd60e51b81526004016103f490610b0f565b60405180910390fd5b6001600160a01b0382166000908152600760205260409020546104219060016106b7565b6001600160a01b0383166000908152600760205260408120919091555b8360a00151518110156105685760008460a00151828151811061045d57fe5b602002602001015160000151905060008560a00151838151811061047d57fe5b6020908102919091018101518101516001600160a01b03871660009081526003835260408082208683529093529190912054909150156104ea57806104c6576104c68583610711565b6001600160a01b03851660009081526003602090815260408220918490525261055e565b801561055e576001600160a01b038516600081815260026020908152604080832080546001810182559084528284200186905592825260038152828220858352815282822084905560049052205461054290826106b7565b60008381526004602052604090205561055b84826106b7565b93505b505060010161043e565b5061059e6040518060400160405280600e81526020016d746f74616c75736564766f74657360901b815250828560800151610826565b826080015181146105c15760405162461bcd60e51b81526004016103f490610b36565b60006105cc836101c6565b60408051808201825293845260208085019283526001600160a01b03909516600090815260019586905220925183555191909201555050565b6106b382826040516024018080602001838152602001828103825284818151815260200191508051906020019080838360005b83811015610650578181015183820152602001610638565b50505050905090810190601f16801561067d5780820380516001836020036101000a031916815260200191505b5060408051601f198184030181529190526020810180516001600160e01b03166309710a9d60e41b17905293506108dc92505050565b5050565b600082820183811015610252576040805162461bcd60e51b815260206004820152601b60248201527f536166654d6174683a206164646974696f6e206f766572666c6f770000000000604482015290519081900360640190fd5b60005b6001600160a01b038316600090815260026020526040902054811015610821576001600160a01b038316600090815260026020526040902080548391908390811061075b57fe5b90600052602060002001541415610819576001600160a01b03831660009081526002602052604090208054600019810190811061079457fe5b906000526020600020015460026000856001600160a01b03166001600160a01b0316815260200190815260200160002082815481106107cf57fe5b60009182526020808320909101929092556001600160a01b03851681526002909152604090208054806107fe57fe5b60019003818190600052602060002001600090559055610821565b600101610714565b505050565b6108218383836040516024018080602001848152602001838152602001828103825285818151815260200191508051906020019080838360005b83811015610878578181015183820152602001610860565b50505050905090810190601f1680156108a55780820380516001836020036101000a031916815260200191505b5060408051601f198184030181529190526020810180516001600160e01b031663969cdd0360e01b17905294506108dc9350505050565b80516a636f6e736f6c652e6c6f67602083016000808483855afa5050505050565b604080518082019091526000808252602082015290565b80356001600160a01b038116811461016157600080fd5b600082601f83011261093b578081fd5b8135602061095061094b83610b87565b610b63565b828152818101908583018385028701840188101561096c578586fd5b855b8581101561098a5781358452928401929084019060010161096e565b5090979650505050505050565b6000602082840312156109a8578081fd5b61025282610914565b600080604083850312156109c3578081fd5b6109cc83610914565b946020939093013593505050565b600080604083850312156109c3578182fd5b6000602082840312156109fd578081fd5b5035919050565b600080600080600060a08688031215610a1b578081fd5b85359450602080870135945060408701359350606087013567ffffffffffffffff80821115610a48578384fd5b818901915089601f830112610a5b578384fd5b8135610a6961094b82610b87565b81815284810190848601868402860187018e1015610a85578788fd5b8795505b83861015610aa7578035835260019590950194918601918601610a89565b50965050506080890135925080831115610abf578384fd5b5050610acd8882890161092b565b9150509295509295909350565b600060208284031215610aeb578081fd5b5051919050565b6001600160a01b0391909116815260200190565b90815260200190565b6020808252600d908201526c494e56414c49445f4e4f4e434560981b604082015260600190565b6020808252601390820152720ac9ea88abea89ea88298be9a92a69a82a8869606b1b604082015260600190565b60405181810167ffffffffffffffff81118282101715610b7f57fe5b604052919050565b600067ffffffffffffffff821115610b9b57fe5b506020908102019056fea26469706673582212203a1e41afdbab7896b1655e4e93732f880398dd97401c3f277db7c554eee132a664736f6c63430007060033",
  "devdoc": {
    "kind": "dev",
    "methods": {},
    "stateVariables": {
      "allowedreactorKeys": {
        "details": "Stores the users next valid vote nonce"
      }
    },
    "version": 1
  },
  "userdoc": {
    "kind": "user",
    "methods": {},
    "version": 1
  },
  "storageLayout": {
    "storage": [
      {
        "astId": 19131,
        "contract": "contracts/staking/voting.sol:VoteTracker",
        "label": "dss",
        "offset": 0,
        "slot": "0",
        "type": "t_contract(DSS)16702"
      },
      {
        "astId": 19135,
        "contract": "contracts/staking/voting.sol:VoteTracker",
        "label": "userVoteDetails",
        "offset": 0,
        "slot": "1",
        "type": "t_mapping(t_address,t_struct(UserVoteDetails)19126_storage)"
      },
      {
        "astId": 19140,
        "contract": "contracts/staking/voting.sol:VoteTracker",
        "label": "userVoteKeys",
        "offset": 0,
        "slot": "2",
        "type": "t_mapping(t_address,t_array(t_bytes32)dyn_storage)"
      },
      {
        "astId": 19146,
        "contract": "contracts/staking/voting.sol:VoteTracker",
        "label": "userVoteItems",
        "offset": 0,
        "slot": "3",
        "type": "t_mapping(t_address,t_mapping(t_bytes32,t_uint256))"
      },
      {
        "astId": 19150,
        "contract": "contracts/staking/voting.sol:VoteTracker",
        "label": "systemAggregations",
        "offset": 0,
        "slot": "4",
        "type": "t_mapping(t_bytes32,t_uint256)"
      },
      {
        "astId": 19153,
        "contract": "contracts/staking/voting.sol:VoteTracker",
        "label": "allowedreactorKeys",
        "offset": 0,
        "slot": "5",
        "type": "t_struct(Bytes32Set)3844_storage"
      },
      {
        "astId": 19157,
        "contract": "contracts/staking/voting.sol:VoteTracker",
        "label": "userNonces",
        "offset": 0,
        "slot": "7",
        "type": "t_mapping(t_address,t_uint256)"
      }
    ],
    "types": {
      "t_address": {
        "encoding": "inplace",
        "label": "address",
        "numberOfBytes": "20"
      },
      "t_array(t_bytes32)dyn_storage": {
        "base": "t_bytes32",
        "encoding": "dynamic_array",
        "label": "bytes32[]",
        "numberOfBytes": "32"
      },
      "t_bytes32": {
        "encoding": "inplace",
        "label": "bytes32",
        "numberOfBytes": "32"
      },
      "t_contract(DSS)16702": {
        "encoding": "inplace",
        "label": "contract DSS",
        "numberOfBytes": "20"
      },
      "t_mapping(t_address,t_array(t_bytes32)dyn_storage)": {
        "encoding": "mapping",
        "key": "t_address",
        "label": "mapping(address => bytes32[])",
        "numberOfBytes": "32",
        "value": "t_array(t_bytes32)dyn_storage"
      },
      "t_mapping(t_address,t_mapping(t_bytes32,t_uint256))": {
        "encoding": "mapping",
        "key": "t_address",
        "label": "mapping(address => mapping(bytes32 => uint256))",
        "numberOfBytes": "32",
        "value": "t_mapping(t_bytes32,t_uint256)"
      },
      "t_mapping(t_address,t_struct(UserVoteDetails)19126_storage)": {
        "encoding": "mapping",
        "key": "t_address",
        "label": "mapping(address => struct UserVoteDetails)",
        "numberOfBytes": "32",
        "value": "t_struct(UserVoteDetails)19126_storage"
      },
      "t_mapping(t_address,t_uint256)": {
        "encoding": "mapping",
        "key": "t_address",
        "label": "mapping(address => uint256)",
        "numberOfBytes": "32",
        "value": "t_uint256"
      },
      "t_mapping(t_bytes32,t_uint256)": {
        "encoding": "mapping",
        "key": "t_bytes32",
        "label": "mapping(bytes32 => uint256)",
        "numberOfBytes": "32",
        "value": "t_uint256"
      },
      "t_struct(Bytes32Set)3844_storage": {
        "encoding": "inplace",
        "label": "struct EnumerableSet.Bytes32Set",
        "members": [
          {
            "astId": 3843,
            "contract": "contracts/staking/voting.sol:VoteTracker",
            "label": "_inner",
            "offset": 0,
            "slot": "0",
            "type": "t_struct(Set)3664_storage"
          }
        ],
        "numberOfBytes": "64"
      },
      "t_struct(Set)3664_storage": {
        "encoding": "inplace",
        "label": "struct EnumerableSet.Set",
        "members": [
          {
            "astId": 3659,
            "contract": "contracts/staking/voting.sol:VoteTracker",
            "label": "_values",
            "offset": 0,
            "slot": "0",
            "type": "t_array(t_bytes32)dyn_storage"
          },
          {
            "astId": 3663,
            "contract": "contracts/staking/voting.sol:VoteTracker",
            "label": "_indexes",
            "offset": 0,
            "slot": "1",
            "type": "t_mapping(t_bytes32,t_uint256)"
          }
        ],
        "numberOfBytes": "64"
      },
      "t_struct(UserVoteDetails)19126_storage": {
        "encoding": "inplace",
        "label": "struct UserVoteDetails",
        "members": [
          {
            "astId": 19123,
            "contract": "contracts/staking/voting.sol:VoteTracker",
            "label": "totalUsedVotes",
            "offset": 0,
            "slot": "0",
            "type": "t_uint256"
          },
          {
            "astId": 19125,
            "contract": "contracts/staking/voting.sol:VoteTracker",
            "label": "totalAvailableVotes",
            "offset": 0,
            "slot": "1",
            "type": "t_uint256"
          }
        ],
        "numberOfBytes": "64"
      },
      "t_uint256": {
        "encoding": "inplace",
        "label": "uint256",
        "numberOfBytes": "32"
      }
    }
  }
}